:020000040000FA
:1000000059EF00F0FF00FF005F823CEF58F0FF0067
:10001000FF00FF00FF00FF005F80D8CF2EF0E8CF89
:100020002FF0E0CF30F0D9CF31F0DACF32F0F3CF8C
:1000300033F0F4CF34F00E01CEA321EF00F023EF24
:1000400000F049EF00F0CE932BEC58F0010E0101C7
:100050007227000E732374237523D351D8B433EF62
:1000600000F035EF00F049EF00F072C123F073C1EA
:1000700024F074C125F075C126F0000EB6EC2EF008
:10008000000E0101726F000E736F000E746F000E90
:10009000756F34C0F4FF33C0F3FF32C0DAFF31C0F4
:1000A000D9FF30C0E0FF2FC0E8FF2EC0D8FF5F901F
:1000B00010002AEF3BF0FF00FF00FF00FF00FF00F1
:1000C000FF00FF00FF00FF00FF00FF00FF00FF0038
:1000D000FF00FF00FF00FF00FF00FF00FF00FF0028
:1000E000FF00FF00FF00FF00FF00FF00FF00FF0018
:1000F000FF00FF00FF00FF00FF00FF00FF00FF0008
:100F00000001010101010101010100FF0101FF00D8
:100F1000417373657274696F6E206661696C656494
:100F20003A202573202825733A2025733A2025641A
:100F3000290A006273702F5843382F67656E6572F7
:100F4000616C5F6F75747075745F6374726C5F62EF
:100F500073702E630047656E4F75744374726C42F4
:100F600073705F536574496E616374697665004799
:100F7000656E4F75744374726C4273705F53657421
:100F80004163746976650047656E4F75744374728A
:100F90006C4273705F44697361626C650047656E93
:100FA0004F75744374726C4273705F456E61626C0E
:100FB000650047656E4F75744374726C4273705F61
:100FC000546F67676C65007265745F76616C0000D2
:100FD0000001AE6FF7C0B5F0F8C0B6F00001AE5139
:100FE000D8A4F5EF07F0F7EF07F022EF0AF058EC7E
:100FF00057F00009D8B4FFEF07F001EF08F05FEFFA
:1010000008F04EEC57F00009D8B409EF08F00BEFE8
:1010100008F05FEF08F019EC58F00001606F000E67
:1010200060BFFF0E616F626F636F010E3CEC2CF0CE
:1010300060C0B1F061C0B2F062C0B3F063C0B4F0A0
:10104000000E00018B6F000E8C6FC80E8D6F420E6C
:101050008E6FB1C072F0B2C073F0B3C074F0B4C0A0
:1010600075F0FBC060F0FCC061F0626B636B000E5A
:101070003CEC2CF060C06EF061C06FF062C070F0AC
:1010800063C071F0A2EC0EF06EC087F06FC088F004
:1010900070C089F071C08AF06BEC18F087C0A0F0C6
:1010A00088C0A1F089C0A2F08AC0A3F0EFEC36F0AE
:1010B0000001A051B527A151B62366EF0CF0000E38
:1010C0000001BA6F000EB96FB95132EC58F0000947
:1010D000D8B46DEF08F06FEF08F00FEF0AF0350E9F
:1010E0000001B925D96E000EBA21DA6EDF50D8B4EE
:1010F0007CEF08F07EEF08F08CEF08F0350EB92594
:10110000D96E000EBA21DA6EDE04D8A48AEF08F098
:101110008CEF08F00FEF0AF012EC58F0040AD8A494
:1011200094EF08F096EF08F0C8EF08F00001B9510D
:101130000FEC57F00009D8B4A0EF08F0A2EF08F0C8
:101140000FEF0AF0350E0001B925D96E000EBA2155
:10115000DA6EDF50AC6FAD6B0B0EAC25F66E0F0E7A
:10116000AD21F76EF86A000EF8220800F550606FA6
:10117000616B60BF6107FBC062F0FCC063F058ECBC
:1011800055F000016051B5276151B6230FEF0AF009
:10119000790E0001B925D96E010EBA21DA6EDF5041
:1011A000D8A4D5EF08F0D7EF08F06EEF09F0B951E9
:1011B0000FEC57F00009D8B4E0EF08F0E2EF08F0C8
:1011C00006EF09F0350E0001B925D96E000EBA21DF
:1011D000DA6EDF50AC6FAD6B0B0EAC25F66E0F0EFA
:1011E000AD21F76EF86A000EF8220800F550606F26
:1011F000616B60BF6107FBC062F0FCC063F058EC3C
:1012000055F000016051B5276151B62358EC57F0F5
:101210000009D8B40EEF09F010EF09F00FEF0AF053
:101220004EEC57F00009D8A418EF09F01AEF09F0B6
:101230000FEF0AF019EC58F00001606F000E60BF6C
:10124000FF0E616F626F636F010E3CEC2CF060C0AB
:10125000B1F061C0B2F062C0B3F063C0B4F0000E90
:1012600000018B6F000E8C6FC80E8D6F420E8E6F5B
:10127000B1C072F0B2C073F0B3C074F0B4C075F016
:10128000FBC060F0FCC061F0626B636B000E3CEC75
:101290002CF060C06EF061C06FF062C070F063C08F
:1012A00071F0A2EC0EF06EC087F06FC088F070C0D5
:1012B00089F071C08AF06BEC18F087C0A0F088C08C
:1012C000A1F089C0A2F08AC0A3F0EFEC36F00001D3
:1012D000A051B527A151B6230FEF0AF0790EB92519
:1012E000D96E010EBA21DA6EDE04D8A47AEF09F0C5
:1012F0007CEF09F00FEF0AF0B95134EC40F06DC00B
:10130000AFF06EC0B0F0350E0001B925D96E000EF9
:10131000BA21DA6EDF50AC6FAD6B0B0EAC25F66EFA
:101320000F0EAD21F76EF86A000EF8220800F55096
:10133000606F616B60BF6107AFC062F0B0C063F007
:1013400058EC55F000016051B5276151B62358ECB7
:1013500057F00009D8B4AFEF09F0B1EF09F00FEF83
:101360000AF04EEC57F00009D8A4B9EF09F0BBEF32
:1013700009F00FEF0AF019EC58F00001606F000E51
:1013800060BFFF0E616F626F636F010E3CEC2CF06B
:1013900060C0B1F061C0B2F062C0B3F063C0B4F03D
:1013A000000E00018B6F000E8C6FC80E8D6F420E09
:1013B0008E6FB1C072F0B2C073F0B3C074F0B4C03D
:1013C00075F0FBC060F0FCC061F0626B636B000EF7
:1013D0003CEC2CF060C06EF061C06FF062C070F049
:1013E00063C071F0A2EC0EF06EC087F06FC088F0A1
:1013F00070C089F071C08AF06BEC18F087C0A0F063
:1014000088C0A1F089C0A2F08AC0A3F0EFEC36F04A
:101410000001A051B527A151B6230FEF0AF000013A
:10142000B94BBA2BBABF1EEF0AF0BA5109E1030E4D
:10143000B95DD8A01EEF0AF020EF0AF064EF08F0C3
:1014400066EF0CF058EC57F00009D8B42AEF0AF018
:101450002CEF0AF08AEF0AF04EEC57F00009D8B4EE
:1014600034EF0AF036EF0AF08AEF0AF016EC58F083
:101470000001606F000E60BFFF0E616F626F636FEF
:10148000010E3CEC2CF060C0B1F061C0B2F062C063
:10149000B3F063C0B4F0000E00018B6F000E8C6FD0
:1014A000C80E8D6F420E8E6FB1C072F0B2C073F075
:1014B000B3C074F0B4C075F0FBC060F0FCC061F064
:1014C000626B636B000E3CEC2CF060C06EF061C090
:1014D0006FF062C070F063C071F0A2EC0EF06EC0ED
:1014E00087F06FC088F070C089F071C08AF06BEC33
:1014F00018F087C0A0F088C0A1F089C0A2F08AC00F
:10150000A3F0EFEC36F00001A051B527A151B623AE
:101510001DEF0CF0000E0001B86F000EB76FB75151
:1015200032EC58F00009D8B498EF0AF09AEF0AF0BC
:101530000CEF0CF0350E0001B725D96E000EB82166
:10154000DA6E020EDE18D8B4A8EF0AF0AAEF0AF09D
:10155000B9EF0AF0350EB725D96E000EB821DA6E54
:10156000030EDE18D8A4B7EF0AF0B9EF0AF00CEFBB
:101570000CF012EC58F0040AD8A4C1EF0AF0C3EF43
:101580000AF0C5EF0AF00CEF0CF0790E0001B72558
:10159000D96E010EB821DA6EDF50D8A4D2EF0AF06E
:1015A000D4EF0AF06BEF0BF0B7510FEC57F00009D6
:1015B000D8B4DDEF0AF0DFEF0AF003EF0BF0350EE1
:1015C0000001B725D96E000EB821DA6EDF50AC6F7E
:1015D000AD6B0B0EAC25F66E0F0EAD21F76EF86AF3
:1015E000000EF8220800F550606F616B60BF610764
:1015F000FBC062F0FCC063F058EC55F00001605194
:10160000B5276151B62358EC57F00009D8B40BEF59
:101610000BF00DEF0BF00CEF0CF04EEC57F0000957
:10162000D8A415EF0BF017EF0BF00CEF0CF016EC45
:1016300058F00001606F000E60BFFF0E616F626FB7
:10164000636F010E3CEC2CF060C0B1F061C0B2F0F1
:1016500062C0B3F063C0B4F0000E00018B6F000EE7
:101660008C6FC80E8D6F420E8E6FB1C072F0B2C01B
:1016700073F0B3C074F0B4C075F0FBC060F0FCC090
:1016800061F0626B636B000E3CEC2CF060C06EF09E
:1016900061C06FF062C070F063C071F0A2EC0EF038
:1016A0006EC087F06FC088F070C089F071C08AF09A
:1016B0006BEC18F087C0A0F088C0A1F089C0A2F040
:1016C0008AC0A3F0EFEC36F00001A051B527A1517C
:1016D000B6230CEF0CF0790EB725D96E010EB821A8
:1016E000DA6EDE04D8A477EF0BF079EF0BF00CEF95
:1016F0000CF0B75134EC40F06DC0AFF06EC0B0F0FC
:10170000350E0001B725D96E000EB821DA6EDF5014
:10171000AC6FAD6B0B0EAC25F66E0F0EAD21F76EF8
:10172000F86A000EF8220800F550606F616B60BF28
:101730006107AFC062F0B0C063F058EC55F0000133
:101740006051B5276151B62358EC57F00009D8B461
:10175000ACEF0BF0AEEF0BF00CEF0CF04EEC57F0E3
:101760000009D8A4B6EF0BF0B8EF0BF00CEF0CF0BB
:1017700016EC58F00001606F000E60BFFF0E616F45
:10178000626F636F010E3CEC2CF060C0B1F061C081
:10179000B2F062C0B3F063C0B4F0000E00018B6F12
:1017A000000E8C6FC80E8D6F420E8E6FB1C072F03E
:1017B000B2C073F0B3C074F0B4C075F0FBC060F099
:1017C000FCC061F0626B636B000E3CEC2CF060C0FF
:1017D0006EF061C06FF062C070F063C071F0A2EC97
:1017E0000EF06EC087F06FC088F070C089F071C0D5
:1017F0008AF06BEC18F087C0A0F088C0A1F089C017
:10180000A2F08AC0A3F0EFEC36F00001A051B5279A
:10181000A151B6230CEF0CF00001B74BB82BB8BFA9
:101820001BEF0CF0B85109E1030EB75DD8A01BEF18
:101830000CF01DEF0CF08FEF0AF01D0EB3EC54F01E
:101840000001AC6FACA327EF0CF029EF0CF066EFB2
:101850000CF0F751B51907E1F851B619D8A433EFD8
:101860000CF035EF0CF058EF0CF0EBEC56F00009F3
:10187000D8B43DEF0CF03FEF0CF066EF0CF00E0E1D
:10188000F66E0F0EF76EF86A0800F5500001606FF3
:10189000616B60BF6107FBC062F0FCC063F058EC95
:1018A00055F000016051B5276151B62366EF0CF089
:1018B000EBEC56F00009D8B460EF0CF062EF0CF0DE
:1018C00066EF0CF0F7C0B5F0F8C0B6F04450000178
:1018D000B55D4550B659D8B070EF0CF072EF0CF012
:1018E00078EF0CF044C0B5F045C0B6F087EF0CF0CF
:1018F000B551425CB6514358D8B081EF0CF083EF3C
:101900000CF087EF0CF042C0B5F043C0B6F0B5C0A4
:10191000AAF0B6C0ABF012000001FD5123EC56F066
:1019200060C086F061C087F06CEF0EF0190E886F12
:10193000000E896F000E8A6F000E8B6F0A0EFA1967
:10194000D8B4A5EF0CF0A7EF0CF0ABEF0CF0A7ECC0
:1019500055F0ABEF0CF05550D8A4B1EF0CF0B3EF4D
:101960000CF0CFEF0CF053C077F0010E0001786F50
:10197000000E796F000E7A6F000E7B6F000E7C6F89
:10198000FD51A5EC50F0280E0001616F2B0E606F29
:10199000FD5113EC56F00001FD69A1EF0EF053C0AC
:1019A00077F0010E0001786F88C079F089C07AF075
:1019B0008AC07BF08BC07CF0FD51A5EC50F0280E66
:1019C0000001616F2F0E606FFD5113EC56F0CBEFED
:1019D0000CF0FA515418D8B4F0EF0CF0F2EF0CF010
:1019E00056EF0DF00A0EFA19D8A4F9EF0CF0FBEF40
:1019F0000CF01EEF0DF06BEC4FF000018E6F8E2996
:101A0000D8B405EF0DF007EF0DF054EF0DF08E5147
:101A1000A7EC57F0FDC060F000018E51A8EC56F025
:101A2000300E0001616F0B0E606FFD5113EC56F02C
:101A3000CBEF0CF0000E526E54EF0DF0FA5164EC47
:101A40004DF00009D8B427EF0DF029EF0DF054EF59
:101A50000DF05550D8B42FEF0DF031EF0DF052EFDF
:101A60000DF06BEC4FF000018F6F8F29D8B43BEF76
:101A70000DF03DEF0DF052EF0DF08F51A7EC57F048
:101A8000FDC060F000018F51A8EC56F0300E00014F
:101A9000616F180E606FFD5113EC56F0CBEF0CF038
:101AA000000E526EA7EC55F054C0FAF05550D8B461
:101AB0005CEF0DF05EEF0DF0ABEF0CF00001FA51B2
:101AC000DAEC39F060C093F061C094F0CA0E000106
:101AD000606F010E616F000E626F43EC4FF060C0EB
:101AE00091F061C092F05650040DF3CF7EF0F4CF28
:101AF0007FF000017E519325D96E7F519421DA6EDB
:101B0000DE50915DDE509259D8B089EF0DF08BEF29
:101B10000DF0A7EF0DF05650040DF3CF7EF0F4CF8B
:101B20007FF07E519325D96E7F519421DA6EDECFFE
:101B300080F0DDCF81F09151805F9251815B80C058
:101B400088F081C089F08A6B8B6BABEF0CF094EC62
:101B500057F00009D8B4AFEF0DF0B1EF0DF0B4EFCE
:101B60000DF0000EDEEC54F05650040D93C07EF0E4
:101B700094C07FF0F35000017E27F4507F23020EC3
:101B80007E25D96E000E7F21DA6EDECF80F0DDCFAC
:101B900081F05650040DF3CF82F0F4CF83F08251E0
:101BA0009325D96E83519421DA6EDECF84F0DDCF98
:101BB00085F0805184258C6F815185218D6F565021
:101BC000040D93C07EF094C07FF0F3507E27F45054
:101BD0007F23020E7E25D96E000E7F21DA6EDE5045
:101BE000DE10D8B4F6EF0DF0F8EF0DF003EF0EF0C5
:101BF0008C51915D8D519259D8A001EF0EF003EFF9
:101C00000EF05EEF0EF0562AFA515CEC42F0566090
:101C10000CEF0EF00EEF0EF03BEF0EF094EC57F0E1
:101C20000009D8A416EF0EF018EF0EF0ABEF0CF091
:101C3000CA0E0001606F010E616FB0EC57F0010E2B
:101C4000DEEC54F05650040DF3CF7EF0F4CF7FF06D
:101C500000017E519325D96E7F519421DA6EDECF3B
:101C600080F0DDCF81F080C088F081C089F08A6B80
:101C70008B6BABEF0CF06BEC4FF00001906F902989
:101C8000D8B445EF0EF047EF0EF0ABEF0CF09051EB
:101C9000A7EC57F0FDC060F000019051A8EC56F0A1
:101CA000300E0001616F4E0E606FFD5113EC56F067
:101CB000CBEF0CF0000E526EABEF0CF091518C5D3F
:101CC0007E6F92518D597F6F7EC088F07FC089F002
:101CD0008A6B8B6BABEF0CF086C07EF087C07FF019
:101CE00000017F51000AD8B480EF0EF0280AD8B462
:101CF00087EF0EF0180AD8B492EF0EF0A1EF0EF0B5
:101D00007E51000AD8B496EF0CF0A1EF0EF07E5190
:101D10002B0AD8B4E9EF0CF0040AD8B4E9EF0CF0C0
:101D2000A1EF0EF07E510B0AD8B41AEF0DF0130A92
:101D3000D8B450EF0DF0560AD8B45AEF0EF0A1EF18
:101D40000EF0120000017151800B7A6F71517125F4
:101D5000806F70AFAEEF0EF0B0EF0EF0B1EF0EF09F
:101D600080818051D8B4B7EF0EF0B9EF0EF0CCEF10
:101D70000EF08029D8A4BFEF0EF0C1EF0EF0C9EF2E
:101D80000EF0000E6E6F000E6F6F000E706F000E83
:101D9000716F708FD4EF0EF0000E6E6F000E6F6FCC
:101DA000000E706F000E716F7551800B7A1B7551AC
:101DB00075257F6F74AFDFEF0EF0E1EF0EF0E2EF0D
:101DC0000EF07F817F51D8B4E8EF0EF0EAEF0EF00D
:101DD000FDEF0EF07F29D8A4F0EF0EF0F2EF0EF039
:101DE000FAEF0EF0000E726F000E736F000E746F3C
:101DF000000E756F748F05EF0FF0000E726F000EFE
:101E0000736F000E746F000E756F7F51D8B40BEFB7
:101E10000FF00DEF0FF015EF0FF08051D8A413EF76
:101E20000FF015EF0FF01FEF0FF0000E6E6F000EAA
:101E30006F6F000E706F000E716FB7EF10F074517E
:101E40006E03F3CF85F0F4CF86F085517B6F7C6B0A
:101E50007D6B7E6B8651816F826B836B846B73515C
:101E60006F03F3CF85F0F4CF86F085517B27000E0A
:101E70007C237D237E2386518127000E82238323AA
:101E8000842372517003F3CF85F0F4CF86F085512F
:101E90007B27000E7C237D237E2386518127000E25
:101EA0008223832384237DC07EF07CC07DF07BC0B1
:101EB0007CF07B6B72516F03F3CF85F0F4CF86F02B
:101EC00085517B2786517C23000E7D23000E7E23C7
:101ED00073516E03F3CF85F0F4CF86F085517B27E5
:101EE00086517C23000E7D23000E7E237DC07EF074
:101EF0007CC07DF07BC07CF07B6B72516E03F3CFB6
:101F000085F0F4CF86F085517B2786517C23000E27
:101F10007D23000E7E2374516F03F3CF85F0F4CF41
:101F200086F08551812786518223000E8323000E7F
:101F3000842373517003F3CF85F0F4CF86F085517D
:101F4000812786518223000E8323000E842374513F
:101F50007003F3CF85F0F4CF86F08551766F86510C
:101F6000776F786B796B78C079F077C078F076C04E
:101F700077F0766B765181277751822378518323CE
:101F8000795184237BC076F07CC077F07DC078F0F7
:101F90007EC079F0190ED2EF0FF0D89079337833F4
:101FA00077337633E82ECDEF0FF0765181277751D6
:101FB000822378518323795184237DC07EF07CC0B5
:101FC0007DF07BC07CF07B6B7F5180C076F0776BBF
:101FD0007627000E7723820E7625856FFF0E7721F8
:101FE000866F08EF10F0D8908137823783378437B7
:101FF0007EAFFDEF0FF0FFEF0FF000EF10F08181EB
:10200000D8907B377C377D377E378507D8A0860709
:1020100083AF0DEF10F00FEF10F0F3EF0FF0000EA5
:102020007F6F7EAF16EF10F018EF10F03CEF10F05E
:10203000FF0E7B15766FFF0E7C15776FFF0E7D15FB
:10204000786F7F0E7E15796F76517711781179113F
:10205000D8B42DEF10F02FEF10F033EF10F0010E89
:102060007F6F3CEF10F081A138EF10F03AEF10F0E5
:102070003CEF10F02FEF10F07F51D8B442EF10F08A
:1020800044EF10F068EF10F0010E8127000E82235C
:102090008323842384A14FEF10F051EF10F068EFF9
:1020A00010F081C076F082C077F083C078F084C0F1
:1020B00079F07935793378337733763376C081F0B8
:1020C00077C082F078C083F079C084F0854B862B8E
:1020D00086BF73EF10F0865108E18529D8A073EF11
:1020E00010F075EF10F07FEF10F0000E816F000E12
:1020F000826F800E836F7F0E846FADEF10F086BF0E
:102100008CEF10F0865106E18505D8B08AEF10F00B
:102110008CEF10F098EF10F0000E816F000E826FC0
:10212000000E836F000E846F000E7A6FADEF10F01B
:1021300085C080F0FF0E8117FF0E82177F0E831778
:10214000000E841780A1A7EF10F0A9EF10F0AAEFFE
:1021500010F0838FD8908031846F7A51841381C0BE
:102160006EF082C06FF083C070F084C071F0120016
:10217000010E0001C56F36EC58F00009D8B4C3EF6A
:1021800010F0C5EF10F0E8EF11F038EC58F000094E
:10219000D8A4CDEF10F0CFEF10F0BCEF12F0C2EFEB
:1021A00011F0010EE8EC07F0AAC0BBF0ABC0BCF028
:1021B000000EFCEC3BF0000EE8EC07F0AAC0BBF010
:1021C000ABC0BCF0010EFCEC3BF0000E0001C56F93
:1021D000BCEF12F01EEC53F058EC57F00009D8B4E5
:1021E000F4EF10F0F6EF10F0B2EF11F0F7C0CAF014
:1021F000F8C0CBF016EC58F00001606F000E60BF25
:10220000FF0E616F626F636F010E3CEC2CF060C0DB
:10221000C6F061C0C7F062C0C8F063C0C9F0000E6C
:1022200000018B6F000E8C6FC80E8D6F420E8E6F8B
:10223000C6C072F0C7C073F0C8C074F0C9C075F0F2
:10224000FBC060F0FCC061F0626B636B000E3CECA5
:102250002CF060C06EF061C06FF062C070F063C0BF
:1022600071F0A2EC0EF06EC087F06FC088F070C005
:1022700089F071C08AF06BEC18F087C0A0F088C0BC
:10228000A1F089C0A2F08AC0A3F0EFEC36F0000103
:10229000A051CA27A151CB23CAC0BBF0CBC0BCF010
:1022A000000EFCEC3BF0F7C0CAF0F8C0CBF019EC24
:1022B00058F00001606F000E60BFFF0E616F626F2B
:1022C000636F010E3CEC2CF060C0C6F061C0C7F03B
:1022D00062C0C8F063C0C9F0000E00018B6F000E31
:1022E0008C6FC80E8D6F420E8E6FC6C072F0C7C065
:1022F00073F0C8C074F0C9C075F0FBC060F0FCC0DA
:1023000061F0626B636B000E3CEC2CF060C06EF011
:1023100061C06FF062C070F063C071F0A2EC0EF0AB
:102320006EC087F06FC088F070C089F071C08AF00D
:102330006BEC18F087C0A0F088C0A1F089C0A2F0B3
:102340008AC0A3F0EFEC36F00001A051CA27A151DA
:10235000CB23CAC0BBF0CBC0BCF0010EFCEC3BF001
:10236000E5EF10F0F7C0BBF0F8C0BCF0000EFCECDD
:102370003BF0F7C0BBF0F8C0BCF0010EFCEC3BF04A
:10238000E5EF10F0090E87EC54F00001C36FC46B49
:10239000C451000AD8B4CFEF11F0E6EF11F0C351E9
:1023A000000AD8B4D1EF10F0010AD8B4EAEF10F067
:1023B000030AD8B4D1EF10F0010AD8B4D1EF10F06D
:1023C000070AD8B4D1EF10F0E6EF11F0BCEF12F02D
:1023D00058EC57F00009D8B4F0EF11F0F2EF11F01B
:1023E000AEEF12F0F7C0CAF0F8C0CBF016EC58F020
:1023F0000001606F000E60BFFF0E616F626F636F60
:10240000010E3CEC2CF060C0C6F061C0C7F062C0A9
:10241000C8F063C0C9F0000E00018B6F000E8C6F16
:10242000C80E8D6F420E8E6FC6C072F0C7C073F0BB
:10243000C8C074F0C9C075F0FBC060F0FCC061F0AA
:10244000626B636B000E3CEC2CF060C06EF061C000
:102450006FF062C070F063C071F0A2EC0EF06EC05D
:1024600087F06FC088F070C089F071C08AF06BECA3
:1024700018F087C0A0F088C0A1F089C0A2F08AC07F
:10248000A3F0EFEC36F00001A051CA27A151CB23F5
:10249000CAC0BBF0CBC0BCF0000EFCEC3BF0F7C0F8
:1024A000CAF0F8C0CBF019EC58F00001606F000ED4
:1024B00060BFFF0E616F626F636F010E3CEC2CF02A
:1024C00060C0C6F061C0C7F062C0C8F063C0C9F0A8
:1024D000000E00018B6F000E8C6FC80E8D6F420EC8
:1024E0008E6FC6C072F0C7C073F0C8C074F0C9C0A8
:1024F00075F0FBC060F0FCC061F0626B636B000EB6
:102500003CEC2CF060C06EF061C06FF062C070F007
:1025100063C071F0A2EC0EF06EC087F06FC088F05F
:1025200070C089F071C08AF06BEC18F087C0A0F021
:1025300088C0A1F089C0A2F08AC0A3F0EFEC36F009
:102540000001A051CA27A151CB23CAC0BBF0CBC008
:10255000BCF0010EFCEC3BF0BCEF12F0F7C0BBF09E
:10256000F8C0BCF0000EFCEC3BF0F7C0BBF0F8C0CC
:10257000BCF0010EFCEC3BF00001C5511200000E56
:102580000001C76F090E87EC54F00001CA6FCA51F1
:102590004F18D8B4CEEF12F0D0EF12F0F2EF12F0E5
:1025A000CAC04FF04F04D8A4D8EF12F0DAEF12F0FF
:1025B000EAEF12F0F7C0BBF0F8C0BCF0000EFCEC84
:1025C0003BF0F7C0BBF0F8C0BCF0010EFCEC3BF0F8
:1025D000ECEF12F0BAEC55F09DEC54F00001C76F2F
:1025E000010E4E6E010E87EC54F00101796F020E60
:1025F00087EC54F001017A6F030E87EC54F001016F
:102600007B6F040E87EC54F0356E050E87EC54F0AA
:10261000366E060E87EC54F0376E0A0E41EC54F01D
:1026200060C05AF161C05BF10E0E41EC54F060C025
:102630005CF161C05DF1120E41EC54F060C05EF1DE
:1026400061C05FF10B0E41EC54F060C054F161C009
:1026500055F10F0E41EC54F060C056F161C057F1D6
:10266000130E41EC54F060C058F161C059F10C0EEA
:1026700041EC54F060C04EF161C04FF1100E41ECDE
:1026800054F060C050F161C051F1140E41EC54F0AF
:1026900060C052F161C053F10D0E41EC54F060C0C6
:1026A00048F161C049F1110E41EC54F060C04AF1AB
:1026B00061C04BF1150E41EC54F060C04CF161C0AB
:1026C0004DF11A0EB3EC54F00001C36FC351010178
:1026D000466F476B1B0EB3EC54F00001C36FC35140
:1026E0000101426F436B1C0EB3EC54F00001C36F49
:1026F000C3510101446F456B160E41EC54F060C0AC
:10270000A0F161C0A1F1170E41EC54F060C0F7F0E8
:1027100061C0F8F0180E41EC54F060C0FBF061C0ED
:10272000FCF0000E0001CC6F000ECB6FD890CB35C3
:10273000D96ECC35DA6E5A0ED926010EDA22DECFEA
:10274000C3F0DDCFC4F0D890CB35D96ECC35DA6E7E
:10275000540ED926010EDA22DECFC5F0DDCFC6F049
:10276000C351C55DC86FC451C659C96FD890CB3528
:10277000D96ECC35DA6E5A0ED926010EDA22DECFAA
:10278000C3F0DDCFC4F0C8C060F0C9C061F0626BB7
:10279000636BD890CB35D96ECC35DA6E4E0ED92618
:1027A000010EDA22DECFC5F0DDCFC6F0C5C064F081
:1027B000C6C065F0666B676B64EC4BF060C06CF094
:1027C00061C06DF062C06EF063C06FF0640E000116
:1027D000706F000E716F000E726F000E736F5FEC02
:1027E00043F00001C3516C27C4516D23D890CB3501
:1027F000D96ECC35DA6E660ED926010EDA226CC09F
:10280000DEFF6DC0DDFFD890CB35D96ECC35DA6EEA
:102810005A0ED926010EDA22DECFC3F0DDCFC4F086
:10282000C8C060F0C9C061F0626B636BD890CB35F3
:10283000D96ECC35DA6E480ED926010EDA22DECFFB
:10284000C5F0DDCFC6F0C5C064F0C6C065F0666BEC
:10285000676B64EC4BF060C06CF061C06DF062C0FF
:102860006EF063C06FF0640E0001706F000E716F48
:10287000000E726F000E736F5FEC43F00001C351E6
:102880006C27C4516D23D890CB35D96ECC35DA6E18
:10289000600ED926010EDA226CC0DEFF6DC0DDFFAE
:1028A000D890CB35D96ECC35DA6E420ED926010ED2
:1028B000DA22DECFC3F0DDCFC4F0C3516408606F0D
:1028C000C451D8A0E82A0008616FFBC062F0FCC0C8
:1028D00063F058EC55F060C066F061C067F0000E20
:1028E0000001696F640E686FDDEC49F0D89000015B
:1028F000CB35D96ECC35DA6E3C0ED926010EDA22F4
:1029000066C0DEFF67C0DDFFD890CB35D96ECC3511
:10291000DA6E420ED926010EDA22DECF60F0DDCF6C
:1029200061F0FBC062F0FCC063F058EC55F060C091
:1029300066F061C067F0000E0001696F640E686F99
:10294000DDEC49F0D8900001CB35D96ECC35DA6E8C
:10295000360ED926010EDA2266C0DEFF67C0DDFF23
:10296000CB4BCC2BCCBFBEEF14F0CC5109E1030E06
:10297000CB5DD8A0BEEF14F0C0EF14F096EF13F0CB
:102980007AEC53F00001C7511200C9C060F0CAC010
:1029900061F0C9C0D9FFCAC0DAFFDF500001CD6FB6
:1029A000CD05626FCBEC51F00001CE6FC9C0D9FFED
:1029B000CAC0DAFFDF50CF6FCF51C925D06F000EEC
:1029C000CA21D16FFF0ED025D96EFF0ED121DA6E4C
:1029D000DE50CE19D8A4EFEF14F0F1EF14F004EFAD
:1029E00016F00CEF16F0C9C063F0CAC064F0CBC09B
:1029F00065F0CCC066F0E9EC38F073EF16F0C9C0B2
:102A00006AF0CAC06BF0CBC06CF0CCC06DF06EEC5D
:102A100038F0CBC060F0CCC061F003EC56F073EF3F
:102A200016F0C9C065F0CAC066F0CBC067F0CCC074
:102A300068F0CFEC22F073EF16F0C9C069F0CAC09D
:102A40006AF0CBC06BF0CCC06CF0DDEC33F009EF7A
:102A500015F0010E03EC58F009EF15F0000E03EC31
:102A600058F009EF15F0C9C0BBF0CAC0BCF0CBC02C
:102A7000BDF0CCC0BEF07EEC21F073EF16F0CBC001
:102A800060F0CCC061F01BEC4FF073EF16F0CBC0E0
:102A90006DF0CCC06EF089EC4AF073EF16F0C9C04F
:102AA00069F0CAC06AF0CBC06BF0CCC06CF0E0EC4F
:102AB00035F009EF15F0C9C06AF0CAC06BF0CBC0A1
:102AC0006CF0CCC06DF0ECEC48F073EF16F0C9C0C0
:102AD00063F0CAC064F0CBC065F0CCC066F037ECE0
:102AE00026F073EF16F0C9C065F0CAC066F0CBC01F
:102AF00067F0CCC068F002EC44F073EF16F0C9C088
:102B000069F0CAC06AF0CBC06BF0CCC06CF04FEC7F
:102B10003AF073EF16F0010E05EC31F009EF15F005
:102B20008DEC3DF0010E05EC31F009EF15F0CBC056
:102B300063F0CCC064F0C1EC4DF073EF16F0C9C087
:102B400067F0CAC068F0CBC069F0CCC06AF094EC02
:102B50003BF073EF16F0CBC063F0CCC064F0BCEC7C
:102B600052F073EF16F0C9C067F0CAC068F0CBC06E
:102B700069F0CCC06AF0F3EC4EF073EF16F020EE83
:102B800002F0C951D926CA51DA22DF50576E20EE21
:102B900003F0C951D926CA51DA22DF500101B26FC0
:102BA000000120EE04F0C951D926CA51DA22DF50C3
:102BB0000101B16F000EB06F73EF16F0C9C0D9FFFD
:102BC000CAC0DAFFDF50D36F20EE01F0C951D92619
:102BD000CA51DA22DF50D46F20EE02F0C951D92653
:102BE000CA51DA22DF50D56F20EE03F0C951D92641
:102BF000CA51DA22DF50D66F20EE04F0C951D9262F
:102C0000CA51DA22DF50D76FCBC060F0CCC061F080
:102C1000F3EC55F073EF16F020EE01F0C951D92610
:102C2000CA51DA22DF50CD6FCE6BCE51000AD8B434
:102C30001CEF16F0DEEF15F0CD51300AD8B4F3EFEB
:102C400014F0010AD8B4FFEF14F0030AD8B411EF5E
:102C500015F0010AD8B41DEF15F0070AD8B429EF12
:102C600015F0010AD8B42EEF15F0030AD8B433EFEB
:102C700015F0010AD8B43FEF15F00F0AD8B447EFAA
:102C800015F0010AD8B44FEF15F0030AD8B45BEF82
:102C900015F0010AD8B467EF15F0070AD8B473EF3E
:102CA00015F0010AD8B47FEF15F0030AD8B48BEF02
:102CB00015F0010AD8B490EF15F07F0AD8B497EF59
:102CC00015F0010AD8B49FEF15F0030AD8B4ABEFA2
:102CD00015F0010AD8B4B3EF15F0070AD8B4BFEF66
:102CE00015F0DEEF15F0CBC060F0CCC061F0CBC0CA
:102CF000D9FFCCC0DAFFDF500001CD6FCD05626F88
:102D0000CBEC51F00001CE6FCBC0D9FFCCC0DAFFC5
:102D1000DF50CF6FCF51CB25D06F000ECC21D16FBC
:102D2000FF0ED025D96EFF0ED121DA6ECEC0DFFFA7
:102D300012000001FD5123EC56F060C079F061C033
:102D40007AF039EF18F01D0EB3EC54F000017B6FF0
:102D5000070E41EC54F060C034F161C035F15CEC19
:102D600053F000017D6F4C50D8A4B9EF16F0BBEFC3
:102D700016F0C5EF16F05C0E606F000E616F8AEC06
:102D800057F0010E4C6E21EF18F04C04D8A4CBEF95
:102D900016F0CDEF16F0E3EF16F07D51D8B4D3EF77
:102DA00016F0D5EF16F021EF18F07DC0A9F15C0EFA
:102DB000626F000E636F33EC56F0020E4C6E21EF23
:102DC00018F021EF18F0020E4C18D8A4EAEF16F014
:102DD000ECEF16F05BEF17F00101A95100017D192E
:102DE000D8A4F5EF16F0F7EF16F057EF17F05C0EDA
:102DF000606F000E616F000E626F43EC4FF00101D7
:102E000032510001605D0101335100016159D8A0C8
:102E10000CEF17F00EEF17F021EF18F05C0E606F5B
:102E2000000E616FB0EC57F000017DA11AEF17F0B2
:102E30001CEF17F042EF17F0060E08EC55F00001FA
:102E40007C6F7C29D8B427EF17F029EF17F03EEFFD
:102E500017F07C51A7EC57F0FDC060F000017C51E9
:102E6000A8EC56F02F0E0001616FB40E606FFD519B
:102E700013EC56F00001FD696AEF18F0030E4C6E7A
:102E800021EF18F07DA347EF17F049EF17F0E1EFBE
:102E900016F07BB34EEF17F050EF17F053EF17F02B
:102EA000070E74EC3FF0040E4C6E21EF18F0060E86
:102EB0004C6E21EF18F0030E4C18D8A462EF17F0F7
:102EC00064EF17F0CDEF17F07DA169EF17F06BEF0E
:102ED00017F0B7EF17F05C0E606F000E616F000E19
:102EE000626F43EC4FF0010134510001605D01015C
:102EF000355100016159D8A080EF17F082EF17F02B
:102F0000E1EF16F036EC58F00009D8B48AEF17F06C
:102F10008CEF17F057EF17F070EC56F012EC58F0FA
:102F20000001756F7551776F786B775108EC55F02C
:102F300000017C6F7C29D8B4A0EF17F0A2EF17F046
:102F400057EF17F07C51A7EC57F0FDC060F000017F
:102F50007C51A8EC56F02F0E0001616FDE0E606F01
:102F6000FD5113EC56F03AEF17F057EF17F08EECD7
:102F700034F030EC58F0A7EC57F0FDC060F030ECC6
:102F800058F0A8EC56F02F0E0001616FE90E606F4B
:102F9000FD5113EC56F03AEF17F0040E4C18D8A47C
:102FA000D4EF17F0D6EF17F0E9EF17F07DB3DBEFB2
:102FB00017F0DDEF17F021EF18F07BB3E2EF17F019
:102FC000E4EF17F057EF17F0080E74EC3FF057EFEF
:102FD00017F0060E4C18D8A4F0EF17F0F2EF17F028
:102FE000E1EF16F07D51D8B4F8EF17F0FAEF17F0D3
:102FF00002EF18F05C0E606F000E616FB0EC57F0DE
:1030000021EF18F05C0E606F000E616F000E626FB2
:1030100043EC4FF0010130510001605D010131517D
:1030200000016159D8A017EF18F019EF18F0E1EF7F
:1030300016F0000E4C6E5C0E606F000E616F8AEC35
:1030400057F0000E0001626F0A0E636F000E646F8E
:10305000000E656F000E666FFD51A8EC47F0010E83
:103060000001616F310E606FFD5113EC56F03AEFC5
:1030700017F079C075F07AC076F000017651000A39
:10308000D8B44DEF18F0010AD8B454EF18F02E0A56
:10309000D8B45BEF18F06AEF18F07551000AD8B495
:1030A000A3EF16F06AEF18F07551310AD8B4A3EF08
:1030B00016F06AEF18F07551B40AD8B43EEF17F065
:1030C0006A0AD8B4B5EF17F0370AD8B457EF17F03B
:1030D0006AEF18F0120000018A51800B976F8A5135
:1030E0008A259E6F89AF77EF18F079EF18F07AEFA5
:1030F00018F09E819E51D8B480EF18F082EF18F03E
:1031000097EF18F09E29D8A488EF18F08AEF18F0EE
:1031100092EF18F0000E876F000E886F000E896F17
:10312000000E8A6F898F000E8A6F9FEF18F0000ED5
:10313000876F000E886F000E896F000E8A6F8E51A8
:10314000800B971B8E518E259F6F8DAFAAEF18F0C5
:10315000ACEF18F0ADEF18F09F819F51D8B4B3EFEA
:1031600018F0B5EF18F0CAEF18F09F29D8A4BBEFFC
:1031700018F0BDEF18F0C5EF18F0000E8B6F000EC1
:103180008C6F000E8D6F000E8E6F8D8F000E8E6F08
:10319000D2EF18F0000E8B6F000E8C6F000E8D6F4B
:1031A000000E8E6F8B518C118D118E11D8A4DBEF18
:1031B00018F0DDEF18F0F5EF18F0000E876F000E35
:1031C000886F000E896F000E8A6F800E89137F0E44
:1031D0008A1397518A1387C087F088C088F089C006
:1031E00089F08AC08AF038EF1AF09E51D8A4FBEF1C
:1031F00018F0FDEF18F007EF19F0000E876F000EC2
:10320000886F000E896F000E8A6F38EF1AF09F5199
:103210009EC08FF0906B8F5F000E905B7F0E8F25AE
:10322000986F000E9021996F87C093F088C094F03A
:1032300089C095F08AC096F0000E876F000E886FE7
:10324000000E896F000E8A6F000E9A6F000E9B6F42
:10325000000E9C6F000E9D6F000E9F6F68EF19F0BF
:103260009F51D8B436EF19F038EF19F04FEF19F03D
:10327000D8909337943795379637D89087378837D3
:1032800089378A379DAF47EF19F049EF19F04AEFB8
:1032900019F08781D8909A379B379C379D378B518F
:1032A000935D8C5194598D5195598E519659D8A052
:1032B0005CEF19F05EEF19F067EF19F09D8D8B51FF
:1032C000935F8C51945B8D51955B8E51965B9F2BD8
:1032D000190E9F656EEF19F070EF19F030EF19F0CD
:1032E0009351941195119611D8B479EF19F07BEFA1
:1032F00019F093EF19F09A8193EF19F0D89087376E
:10330000883789378A379DAF88EF19F08AEF19F02F
:103310008BEF19F08781D8909A379B379C379D3770
:103320009807D8A0990789AF98EF19F09AEF19F08C
:103330007EEF19F0000E9F6F9DAFA1EF19F0A3EF84
:1033400019F0C7EF19F0FF0E9A158F6FFF0E9B153E
:10335000906FFF0E9C15916F7F0E9D15926F8F5190
:10336000901191119211D8B4B8EF19F0BAEF19F089
:10337000BEEF19F0010E9F6FC7EF19F087A1C3EFE1
:1033800019F0C5EF19F0C7EF19F0BAEF19F09F5116
:10339000D8B4CDEF19F0CFEF19F0F3EF19F0010E1B
:1033A0008727000E882389238A238AA1DAEF19F060
:1033B000DCEF19F0F3EF19F087C08FF088C090F0C0
:1033C00089C091F08AC092F0923592339133903354
:1033D0008F338FC087F090C088F091C089F092C081
:1033E0008AF0984B992B99BFFEEF19F0995108E19B
:1033F0009829D8A0FEEF19F000EF1AF00BEF1AF0A1
:10340000000E996F9869000E876F000E886F000E8E
:10341000896F000E8A6F99BF18EF1AF0995106E173
:103420009805D8B016EF1AF018EF1AF026EF1AF038
:10343000000E996F000E986F000E876F000E886F58
:10344000000E896F000E8A6F000E976F98C09EF075
:103450009EA12DEF1AF02FEF1AF032EF1AF0898F9C
:1034600033EF1AF0899FD8909E318A6FE9EF18F0F8
:103470001200000120EE0AF0D351D926D451DA22ED
:10348000DF50D8B446EF1AF048EF1AF022EF1BF0E5
:1034900020EE06F0D351D926D451DA22DECF60F0E7
:1034A000DDCF61F0000E636F050E626F58EC55F0D2
:1034B000000120EE04F0D351D926D451DA2210EEC7
:1034C00003F0DE50E126DD50E222E6CFD5F0E5CF75
:1034D000D6F06051D5276151D623020ED525D96E7D
:1034E000000ED621DA6EDE50DE10D8B47AEF1AF074
:1034F0007CEF1AF08DEF1AF020EE0AF0D351D926A6
:10350000D451DA22000EDF6ED3C0D9FFD4C0DAFF67
:10351000DF503AEC4CF0C4EF1BF020EE06F0D35134
:10352000D926D451DA22DE2A000EDD22D3C066F07D
:10353000D4C067F0BEEC3AF00009D8B4A2EF1AF09C
:10354000A4EF1AF0AFEF1AF0000120EE06F0D3510D
:10355000D926D451DA22000EDE6E000EDD6E000197
:1035600020EE04F0D351D926D451DA2210EE01F026
:10357000DE50E126DD50E222E750D8B4C2EF1AF067
:10358000C4EF1AF0CEEF1AF020EE0DF0D351D92689
:10359000D451DA22010EDF6EC4EF1BF020EE06F0EC
:1035A000D351D926D451DA22DECF60F0DDCF61F0DD
:1035B000000E636F050E626F58EC55F0000120EEAF
:1035C00004F0D351D926D451DA2210EE03F0DE50A4
:1035D000E126DD50E222E6CFD5F0E5CFD6F060510E
:1035E000D525D96E6151D621DA6EDE50DE10D8B401
:1035F000FCEF1AF0FEEF1AF010EF1BF0D3C0D9FF6A
:10360000D4C0DAFFDF50D0EC4BF0000120EE0AF01E
:10361000D351D926D451DA22010EDF6EC4EF1BF04C
:10362000D3C0D9FFD4C0DAFFDF503AEC4CF0000130
:1036300020EE0AF0D351D926D451DA22000EDF6EE3
:10364000C4EF1BF0D3C066F0D4C067F0BEEC3AF014
:103650000009D8B42EEF1BF030EF1BF057EF1BF032
:10366000000120EE04F0D351D926D451DA2210EE15
:1036700001F0DE50E126DD50E222E750D8B443EFFE
:103680001BF045EF1BF04DEF1BF020EE0DF0D3517A
:10369000D926D451DA22010EDF6E20EE06F0D35186
:1036A000D926D451DA22000EDE6E000EDD6E000146
:1036B00020EE0BF0D351D926D451DA22DF50D8B402
:1036C00064EF1BF066EF1BF0C4EF1BF020EE0DF073
:1036D000D351D926D451DA22DF50D8A472EF1BF08F
:1036E00074EF1BF0C4EF1BF020EE06F0D351D92687
:1036F000D451DA22DECF60F0DDCF61F0000E636FCF
:10370000050E626F58EC55F0000120EE04F0D35125
:10371000D926D451DA2210EE03F0DE50E126DD5036
:10372000E222E6CFD5F0E5CFD6F06051D525D96EAF
:103730006151D621DA6EDE50DE10D8B4A2EF1BF054
:10374000A4EF1BF0B5EF1BF020EE0AF0D351D92601
:10375000D451DA22010EDF6ED3C0D9FFD4C0DAFF14
:10376000DF50D0EC4BF0C4EF1BF020EE0AF0D35149
:10377000D926D451DA22000EDF6ED3C0D9FFD4C0CF
:10378000DAFFDF503AEC4CF012000001DB51500D33
:103790008D0EF324D96E050EF420DA6EDF50D8B406
:1037A000D4EF1BF0D6EF1BF040EF1DF0DB51500DB6
:1037B0008F0EF324D96E050EF420DA6EDF50D8A4F4
:1037C000E4EF1BF0E6EF1BF040EF1DF0000EE06FA2
:1037D000000EE56FDB51500D880EF324D96E050EF7
:1037E000F420DA6EDECF60F0DDCF61F0000E636FA3
:1037F000050E626F58EC55F00001DB51500D860E3E
:10380000F324D96E050EF420DA6E10EE03F0DE50CC
:10381000E126DD50E222E6CFDCF0E5CFDDF06051BD
:10382000DC25D96E6151DD21DA6EDECFE1F0DDCF2E
:10383000E2F0DB51500D880EF324D96E050EF42012
:10384000DA6EDECF60F0DDCF61F0000E636F050E43
:10385000626F58EC55F00001DB51500D860EF324D9
:10386000D96E050EF420DA6E10EE03F0DE50E1267C
:10387000DD50E222E6CFDCF0E5CFDDF06051DC2761
:103880006151DD23020EDC25D96E000EDD21DA6EDA
:10389000DECFE3F0DDCFE4F0DB51500D8A0EF324F0
:1038A000D96E050EF420DA6ED951DE26DA51DD220A
:1038B000DB51500D8C0EF324D96E050EF420DA6E18
:1038C000DF50D8B466EF1CF068EF1CF095EF1CF0E9
:1038D000DB51500D8A0EF324D96E050EF420DA6EFA
:1038E000E151DE5CE251DE58D8A079EF1CF07BEFAD
:1038F0001CF0C0EF1CF0E12908E1E229D8B483EF05
:103900001CF085EF1CF0C0EF1CF0DB51500D8A0E4F
:10391000F324D96E050EF420DA6E000EDE6E000E72
:10392000DD6E010EE06FC0EF1CF0DB51500D8A0E12
:10393000F324D96E050EF420DA6EE351DE5CE45117
:10394000DE58D8A0A6EF1CF0A8EF1CF0C0EF1CF0CA
:10395000E32908E1E429D8B4B0EF1CF0B2EF1CF081
:10396000C0EF1CF0DB51500D8A0EF324D96E050E0A
:10397000F420DA6E000EDE6E000EDD6E010EE56FD5
:10398000E551D8B4C6EF1CF0C8EF1CF026EF1DF0CF
:10399000DB51500D900EF324D96E050EF420DA6E33
:1039A000DF2ADB51500D880EF324D96E050EF4206A
:1039B000DA6EDECF60F0DDCF61F0000E636F050ED2
:1039C000626F58EC55F00001DB51500D860EF32468
:1039D000D96E050EF420DA6E10EE03F0DE50E1260B
:1039E000DD50E222E6CFDCF0E5CFDDF06051DC27F0
:1039F0006151DD23040EDC25D96E000EDD21DA6E67
:103A0000DB51500D900EF324E16E050EF420E26EB2
:103A1000DE50E65CD8A00FEF1DF011EF1DF026EF91
:103A20001DF0DB51500D880EF324D96E050EF420E5
:103A3000DA6EDE2A000EDD22DB51500D900EF324EB
:103A4000D96E050EF420DA6E000EDF6EE051D8A4B8
:103A50002CEF1DF02EEF1DF036EF1DF0E551D8B420
:103A600034EF1DF036EF1DF040EF1DF0DB51500D2F
:103A7000820EF324D36F050EF420D46F39EC1AF0C4
:103A8000010E12007DC095F07EC096F07FC097F0C9
:103A900080C098F081C099F082C09AF083C09BF0FA
:103AA00084C09CF000019CBF58EF1DF05BEF1DF03F
:103AB000010E5CEF1DF0000E936F946B9351941107
:103AC000D8B465EF1DF067EF1DF077EF1DF09C1F78
:103AD0009B1F9A1F991F981F971F961F956D000E89
:103AE00096239723982399239A239B239C230101B0
:103AF00085BF7DEF1DF07FEF1DF080EF1DF0389248
:103B000085BF8DEF1DF0855106E18405D8B08BEFA0
:103B10001DF08DEF1DF094EF1DF0000E0001906F71
:103B2000010E8F6F98EF1DF084C18FF085C190F06A
:103B300082C191F083C192F0000193519411D8A4F5
:103B4000A4EF1DF0A6EF1DF0ADEF1DF038A4ABEF14
:103B50001DF0ADEF1DF0B0EF1DF09107D8A092075A
:103B6000000E9E6F1F0E9D6F000E0301D36F36EF88
:103B70001EF09D07D8A09E07B40E9D25D96E030E9A
:103B80009E21DA6E95C060F096C061F097C062F039
:103B900098C063F099C064F09AC065F09BC066F06D
:103BA0009CC067F00A0E686F000E696F000E6A6FA6
:103BB000000E6B6F000E6C6F000E6D6F000E6E6F5F
:103BC000000E6F6F2AEC33F060C085F061C086F0A4
:103BD00062C087F063C088F064C089F065C08AF075
:103BE00066C08BF067C08CF085C072F087C073F040
:103BF000DDEC52F000017251300FDF6E8F07D8A05C
:103C000090079107D8A0920795C060F096C061F028
:103C100097C062F098C063F099C064F09AC065F0F4
:103C20009BC066F09CC067F00A0E686F000E696F5B
:103C3000000E6A6F000E6B6F000E6C6F000E6D6FE2
:103C4000000E6E6F000E6F6F7CEC2FF060C095F071
:103C500061C096F062C097F063C098F064C099F0BC
:103C600065C09AF066C09BF067C09CF000019EBFE3
:103C700042EF1EF09E5108E19D05D8A042EF1EF0D4
:103C800044EF1EF074EF1EF09551961197119811A4
:103C900099119A119B119C11D8A451EF1EF053EF6A
:103CA0001EF0B9EF1DF090BF60EF1EF0905106E1DD
:103CB0008F05D8B05EEF1EF060EF1EF0B9EF1DF07B
:103CC00092BF6BEF1EF0925108E19105D8A06BEF07
:103CD0001EF06DEF1EF074EF1EF038B272EF1EF0A2
:103CE00074EF1EF0B9EF1DF093519411D8A47BEF3F
:103CF0001EF07DEF1EF084EF1EF038A482EF1EF060
:103D000084EF1EF0A2EF1EF09D07D8A09E079351EE
:103D10009411D8A48EEF1EF090EF1EF096EF1EF0D7
:103D2000000E8E6F2B0E8D6F9AEF1EF0000E8E6FB1
:103D30002D0E8D6FB40E9D25D96E030E9E21DA6E69
:103D40008DC0DFFF7BC070F07CC071F0B40E9D258C
:103D5000726F030E9E21736F91C074F092C075F064
:103D600063EC3CF070C07BF071C07CF0120000018D
:103D7000FD5123EC56F060C0CFF061C0D0F0F9EFF8
:103D80001FF0000ED16F9DEC54F00009D8B4CBEFBA
:103D90001EF0CDEF1EF0E3EF1EF030EC58F0A7EC74
:103DA00057F0FDC060F030EC58F0A8EC56F0300E43
:103DB0000001616FAE0E606FFD5113EC56F0000113
:103DC000FD6926EF20F0F7C0BBF0F8C0BCF0000E94
:103DD000FCEC3BF0F7C0BBF0F8C0BCF0010EFCEC13
:103DE0003BF052EC56F00009D8A4F9EF1EF0FBEFBF
:103DF0001EF0FDEF1EF0010E4E6EF9EC57F058EC80
:103E000057F00009D8B407EF1FF009EF1FF02FEFAC
:103E10001FF058505918D8A410EF1FF012EF1FF0E0
:103E200028EF1FF00101964B972B975109E1330EB4
:103E3000965DD8A01EEF1FF020EF1FF02FEF1FF0B0
:103E4000000E976F310E966F000E576E2FEF1FF01A
:103E5000000E0101976F000E966F58C059F04E503A
:103E6000D8B435EF1FF037EF1FF093EF1FF0D20EED
:103E70000001606F000E616F9EEC57F00009D8A43E
:103E800044EF1FF046EF1FF05DEF1FF0D20E000170
:103E9000626F000E636F33EC56F0F7C0BBF0F8C0F2
:103EA000BCF0000EFCEC3BF0F7C0BBF0F8C0BCF07F
:103EB000010EFCEC3BF0BAEC55F0F1EC50F00009CF
:103EC000D8B465EF1FF067EF1FF088EF1FF0D20E38
:103ED0000001606F000E616F000E626F43EC4FF0E7
:103EE000EE0E0001605D020E6159D8A07AEF1FF05E
:103EF0007CEF1FF0E1EF1FF0D20E606F000E616FDC
:103F00008AEC57F0000E4D6E000E4E6EE1EF1FF082
:103F1000D20E0001606F000E616FB0EC57F0010E21
:103F20004D6EE1EF1FF0BFEC12F00009D8B49BEF2B
:103F30001FF09DEF1FF0B1EF1FF030EC58F0A7EC31
:103F400057F0FDC060F030EC58F0A8EC56F0300EA1
:103F50000001616FF20E606FFD5113EC56F0DFEF60
:103F60001EF0B8EC10F00009D8B4B9EF1FF0BBEFA9
:103F70001FF0D6EF1FF00001D151D8A4C2EF1FF0FF
:103F8000C4EF1FF0D6EF1FF0F7C0BBF0F8C0BCF0D5
:103F9000000EFCEC3BF0F7C0BBF0F8C0BCF0010E2B
:103FA000FCEC3BF0BAEC55F0E1EF1FF00001D15111
:103FB000D8B4DDEF1FF0DFEF1FF0E1EF1FF0E1EF0E
:103FC0001FF0000E0001626F140E636F000E646F2D
:103FD000000E656F000E666FFD51A8EC47F0020EF3
:103FE0000001616F250E606FFD5113EC56F0DFEF9D
:103FF0001EF0CFC0CDF0D0C0CEF00001CE51000AEF
:10400000D8B40DEF20F0020AD8B414EF20F0320A31
:10401000D8B41BEF20F026EF20F0CD51000AD8B421
:10402000C1EF1EF026EF20F0CD51250AD8B4FDEFE8
:104030001EF026EF20F0CD51AE0AD8B4E3EF1EF00B
:104040005C0AD8B4B1EF1FF026EF20F01200010E89
:104050000001686F000E696F000E6A6FEC0E6B6FE7
:10406000010E6C6F000E51EC27F00009D8B43BEF45
:1040700020F03DEF20F077EF20F0020E0001686F96
:10408000000E696F000E6A6FBB0E6B6F020E6C6FD5
:10409000000E51EC27F00009D8B451EF20F053EF97
:1040A00020F077EF20F0030E0001686F000E696FBB
:1040B000000E6A6FB10E6B6F020E6C6F000E51EC4A
:1040C00027F00009D8B467EF20F069EF20F077EF10
:1040D00020F00A0E0001686F000E696F000E6A6F13
:1040E000EC0E6B6F010E6C6F000E51EC27F0010EA1
:1040F0000001686F000E696F000E6A6FA70E6B6F8C
:10410000020E6C6F010E51EC27F00009D8B48BEF52
:1041100020F08DEF20F0C7EF20F0020E0001686F55
:10412000000E696F000E6A6FEC0E6B6F010E6C6F04
:10413000010E51EC27F00009D8B4A1EF20F0A3EF55
:1041400020F0C7EF20F0030E0001686F000E696FCA
:10415000000E6A6FEC0E6B6F010E6C6F010E51EC6E
:1041600027F00009D8B4B7EF20F0B9EF20F0C7EF7F
:1041700020F00A0E0001686F000E696F000E6A6F72
:10418000EC0E6B6F010E6C6F010E51EC27F0040EFC
:104190000001686F010E696F000E6A6F9D0E6B6FF4
:1041A000020E6C6F020E51EC27F00009D8B4DBEF61
:1041B00020F0DDEF20F059EF21F0050E0001686FCF
:1041C000010E696F000E6A6F930E6B6F020E6C6FBB
:1041D000020E51EC27F00009D8B4F1EF20F0F3EF14
:1041E00020F059EF21F0060E0001686F010E696F93
:1041F000000E6A6F890E6B6F020E6C6F020E51EC2F
:1042000027F00009D8B407EF21F009EF21F059EFAA
:1042100021F00A0E0001686F000E696F000E6A6FD0
:10422000EC0E6B6F010E6C6F020E51EC27F0000963
:10423000D8B41DEF21F01FEF21F059EF21F0070E48
:104240000001686F010E696F000E6A6F750E6B6F6B
:10425000020E6C6F020E51EC27F00009D8B433EF58
:1042600021F035EF21F059EF21F0080E0001686FC1
:10427000010E696F000E6A6F6B0E6B6F020E6C6F32
:10428000020E51EC27F00009D8B449EF21F04BEFB2
:1042900021F059EF21F0090E0001686F010E696FDE
:1042A000000E6A6F7F0E6B6F020E6C6F020E51EC88
:1042B00027F00B0E0001686F010E696F000E6A6F28
:1042C000610E6B6F020E6C6F030E51EC27F000094C
:1042D000D8B46DEF21F06FEF21F07DEF21F00C0EDF
:1042E0000001686F010E696F000E6A6F570E6B6FE9
:1042F000020E6C6F030E51EC27F01200170E41EC0A
:1043000054F060C0C5F061C0C6F0180E41EC54F026
:1043100060C0C2F061C0C3F0B1EF21F0010E87ECC4
:1043200054F00001C16F000EC46FD1EF21F0020EF6
:1043300087EC54F00001C16F010EC46FD1EF21F082
:10434000030E87EC54F00001C16F020EC46FD1EF71
:1043500021F0BDC060F0BEC061F0F3EC55F0CEEFCF
:1043600022F0000120EE02F0BB51D926BC51DA2226
:10437000DF50BF6FC06BC051000AD8B4C2EF21F04C
:10438000A9EF21F0BF51430AD8B4A0EF21F00F0AE2
:10439000D8B48EEF21F01E0AD8B497EF21F0A9EF20
:1043A00021F0BDC0D9FFBEC0DAFF060EDF6EC151DD
:1043B000D8A4DDEF21F0DFEF21F00BEF22F020EEAB
:1043C00001F0BD51D926BE51DA22000EDF6EC45174
:1043D0000FEC57F00001BF6F20EE02F0BD51D9265F
:1043E000BE51DA22BFC0DFFF20EE03F0BD51D92657
:1043F000BE51DA22000EDF6EC4510FEC57F00001FF
:10440000BF6F20EE04F0BD51D926BE51DA22BFC0E5
:10441000DFFFCEEF22F0C4511CEC55F060C0C7F0B6
:1044200061C0C8F0000120EE01F0BD51D926BE5197
:10443000DA22C8C0DFFF20EE02F0BD51D926BE51FE
:10444000DA22C7C0DFFFA0EF22F0000EE8EC07F091
:10445000AAC0C7F0ABC0C8F00001C751C55DC851C4
:10446000C659D8B036EF22F038EF22F03EEF22F0F6
:10447000000EC86F000EC76FBDEF22F0C751C55DBB
:10448000606FC851C659616F000E636F640E626F32
:1044900058EC55F060C066F061C067F0C2C068F0CB
:1044A000C3C069F0DDEC49F066C0C7F067C0C8F072
:1044B000BDEF22F0000EE8EC07F0AAC0C7F0ABC0D9
:1044C000C8F00001C551C75DC651C859D8B06BEFDF
:1044D00022F06DEF22F06FEF22F038EF22F0C5519D
:1044E000C75D606FC651C859616F000E636F640E7F
:1044F000626F58EC55F060C066F061C067F0C2C0F2
:1045000068F0C3C069F0DDEC49F066C0C7F067C071
:10451000C8F0BDEF22F0010EE8EC07F0AAC0C7F02A
:10452000ABC0C8F00001C551C75DC651C859D8B06D
:104530009CEF22F09EEF22F06FEF22F038EF22F096
:10454000C451BF6FC06BC051000AD8B4AAEF22F0AB
:10455000BDEF22F0BF51000AD8B425EF22F0010AC6
:10456000D8B45AEF22F0030AD8B48BEF22F0010A34
:10457000D8B4BDEF22F0BDEF22F0000120EE03F031
:10458000BD51D926BE51DA22C8C0DFFF20EE04F0AB
:10459000BD51D926BE51DA22C7C0DFFF120067C065
:1045A000D9FF68C0DAFF0A0EDF6E000120EE02F0CC
:1045B0006551D9266651DA224C0EDE18D8A4E3EFF5
:1045C00022F0E5EF22F047EF23F00A0E41EC54F021
:1045D00060C06AF061C06BF0000120EE01F067512D
:1045E000D9266851DA226BC0DFFF20EE02F0675156
:1045F000D9266851DA226AC0DFFF0B0E41EC54F075
:1046000060C06AF061C06BF0000120EE03F06751FA
:10461000D9266851DA226BC0DFFF20EE04F0675123
:10462000D9266851DA226AC0DFFF0C0E41EC54F043
:1046300060C06AF061C06BF0000120EE05F06751C8
:10464000D9266851DA226BC0DFFF20EE06F06751F1
:10465000D9266851DA226AC0DFFF0D0E41EC54F012
:1046600060C06AF061C06BF0000120EE07F0675196
:10467000D9266851DA226BC0DFFF20EE08F06751BF
:10468000D9266851DA226AC0DFFFF8EF23F020EE66
:1046900002F06551D9266651DA22520EDE18D8A4EE
:1046A00054EF23F056EF23F0A7EF23F00E0E41EC6A
:1046B00054F060C06AF061C06BF0000120EE01F0C0
:1046C0006751D9266851DA226BC0DFFF20EE02F075
:1046D0006751D9266851DA226AC0DFFF0F0E41EC1C
:1046E00054F060C06AF061C06BF0000120EE03F08E
:1046F0006751D9266851DA226BC0DFFF20EE04F043
:104700006751D9266851DA226AC0DFFF100E41ECEA
:1047100054F060C06AF061C06BF0000120EE05F05B
:104720006751D9266851DA226BC0DFFF20EE06F010
:104730006751D9266851DA226AC0DFFF110E41ECB9
:1047400054F060C06AF061C06BF034EF23F0120ED9
:1047500041EC54F060C06AF061C06BF0000120EEE3
:1047600001F06751D9266851DA226BC0DFFF20EED5
:1047700002F06751D9266851DA226AC0DFFF130EB2
:1047800041EC54F060C06AF061C06BF0000120EEB3
:1047900003F06751D9266851DA226BC0DFFF20EEA3
:1047A00004F06751D9266851DA226AC0DFFF140E7F
:1047B00041EC54F060C06AF061C06BF0000120EE83
:1047C00005F06751D9266851DA226BC0DFFF20EE71
:1047D00006F06751D9266851DA226AC0DFFF150E4C
:1047E00041EC54F060C06AF061C06BF034EF23F02C
:1047F0001200A1C0D9FFA2C0DAFFDECFF6FFDDCFE5
:10480000F7FFF86A0800F550250AD8A40AEF24F04B
:104810000CEF24F0FDEF24F0A1C0D9FFA2C0DAFF15
:10482000DE2A000EDD22000E0101836F000E826F72
:1048300082C138F083C139F084698569A1C0D9FF8C
:10484000A2C0DAFFDECFF6FFDDCFF7FFF86A08007F
:10485000F550640AD8B42FEF24F031EF24F044EF80
:1048600024F0A1C0D9FFA2C0DAFFDECFF6FFDDCF72
:10487000F7FFF86A0800F550690AD8A442EF24F05F
:1048800044EF24F085EF24F0A1C0D9FFA2C0DAFFE5
:10489000DE2A000EDD22A3C0D9FFA4C0DAFFDFCFDD
:1048A000A5F0020EDE26DFCFA6F0000EDD22A5C0A9
:1048B000D9FFA6C0DAFFDECFA7F0DDCFA8F0000158
:1048C000000EA8BFFF0EA96FAA6FAB6FAC6FAD6FE4
:1048D000AE6F9FC07BF0A0C07CF0A7C07DF0A8C0E9
:1048E0007EF0A9C07FF0AAC080F0ABC081F0ACC060
:1048F00082F0ADC083F0AEC084F042EC1DF07BC00E
:104900009FF07CC0A0F01AEF25F0A1C0D9FFA2C093
:10491000DAFFDECFF6FFDDCFF7FFF86A0800F550CB
:10492000730AD8A496EF24F098EF24F0C3EF24F094
:10493000A1C0D9FFA2C0DAFFDE2A000EDD22A3C08B
:10494000D9FFA4C0DAFFDFCFA5F0020EDE26DFCF4D
:10495000A6F0000EDD22A5C0D9FFA6C0DAFFDECF8B
:10496000AFF0DDCFB0F09FC069F0A0C06AF0AFC07B
:104970006BF0B0C06CF018EC2DF069C09FF06AC00D
:10498000A0F01AEF25F0A1C0D9FFA2C0DAFFDECF58
:10499000F6FFDDCFF7FFF86A0800F550250AD8A426
:1049A000D4EF24F0D6EF24F0EFEF24F0A1C0D9FF2C
:1049B000A2C0DAFFDE2A000EDD22000E0001616FC8
:1049C000250E606F9FC062F0A0C063F0ECEC44F075
:1049D000000E0001A06F010E9F6F1AEF25F0A1C01D
:1049E000D9FFA2C0DAFFDE2A000EDD22000E000190
:1049F000A06F000E9F6F1AEF25F0A1C0D9FFA2C0D3
:104A0000DAFFDECFF6FFDDCFF7FFF86A0800F550DA
:104A10000001606F616B9FC062F0A0C063F0ECECBE
:104A200044F0A1C0D9FFA2C0DAFFDE2A000EDD22C9
:104A3000E8EF24F012000001FD5123EC56F060C0B5
:104A4000EDF061C0EEF00DEF26F040C060F041C027
:104A500061F0000E0001636F030E626F58EC55F0B9
:104A6000B30E00016025EF6F010E6121F06FEFC002
:104A7000E6F0F0C0E7F0C1EC4AF03C06D8A03D06F5
:104A8000020E40184110D8B448EF25F04AEF25F047
:104A900052EF25F0010E4024406E000E4120416E81
:104AA00056EF25F0000E416E000E406E3C503D105A
:104AB000D8A45DEF25F05FEF25F025EF25F0F10E8E
:104AC0000001626F000E636F33EC56F0030E57EC7B
:104AD00052F011EC52F00009D8A471EF25F073EFF9
:104AE00025F0C8EF25F04BC077F0010E0001786F7C
:104AF000000E796F000E7A6F000E7B6F000E7C6FD8
:104B0000FD51A5EC50F0280E0001616F990E606F09
:104B1000FD5113EC56F00001FD6936EF26F0F10E61
:104B2000606F000E616FB0EC57F0C8EF25F040C029
:104B300060F041C061F0000E0001636F030E626F10
:104B400058EC55F0B30E00016025EF6F010E6121A6
:104B5000F06FEFC0E6F0F0C0E7F0C1EC4AF03C06C1
:104B6000D8A03D06020E40184110D8B4BAEF25F087
:104B7000BCEF25F0C4EF25F0010E4024406E000E7E
:104B80004120416EC8EF25F0000E416E000E406ED0
:104B90003C503D10D8A4CFEF25F0D1EF25F097EF92
:104BA00025F0080EB3EC54F00001EB6FEBA3DBEF44
:104BB00025F0DDEF25F0E2EF25F0030ED3EC53F006
:104BC000E5EF25F0030E0BEC54F0000E0001626FD0
:104BD0000A0E636F000E646F000E656F000E666F45
:104BE000FD51A8EC47F0010E0001616FA40E606F4B
:104BF000FD5113EC56F08BEF25F0F10E606F000EB7
:104C0000616F010E626F43EC4FF060C0E6F061C06F
:104C1000E7F083EC51F069EF25F0EDC0EBF0EEC06A
:104C2000ECF00001EC51000AD8B421EF26F0010AA3
:104C3000D8B428EF26F0290AD8B42FEF26F036EFA3
:104C400026F0EB51000AD8B456EF25F036EF26F0E7
:104C5000EB51A40AD8B4FDEF25F036EF26F0EB5166
:104C6000990AD8B48FEF25F036EF26F0120065C010
:104C7000D9FF66C0DAFF050EDF6E000120EE02F0FC
:104C80006351D9266451DA2210EE01F06551E12614
:104C90006651E222DFCFE7FF20EE02F06351D92612
:104CA0006451DA22DF50586E090E87EC54F000018F
:104CB000766F762B20EE02F06551D9266651DA2206
:104CC00076C0DFFF20EE03F06551D9266651DA2267
:104CD000000EDF6E36EC58F00009D8A472EF26F013
:104CE00077EF26F00001676B672B79EF26F0000164
:104CF000676B20EE03F06551D9266651DA226751C1
:104D0000DF1238EC58F00009D8A489EF26F08BEFB9
:104D100026F092EF26F0000E0001696F000E686F1A
:104D200097EF26F0000E0001696F020E686F20EE0B
:104D300003F06551D9266651DA226851DF12000E60
:104D400032EC58F00009D8A4A8EF26F0AAEF26F01C
:104D5000B1EF26F0000E00016B6F000E6A6FB6EF28
:104D600026F0000E00016B6F040E6A6F20EE03F058
:104D70006551D9266651DA226A51DF12010E32ECF2
:104D800058F00009D8A4C7EF26F0C9EF26F0D0EFFD
:104D900026F0000E00016D6F000E6C6FD5EF26F04F
:104DA000000E00016D6F080E6C6F20EE03F0655170
:104DB000D9266651DA226C51DF12020E32EC58F01D
:104DC0000009D8A4E6EF26F0E8EF26F0EFEF26F092
:104DD000000E00016F6F000E6E6FF4EF26F0000EF4
:104DE00000016F6F100E6E6F20EE03F06551D92633
:104DF0006651DA226E51DF1234EC58F00009D8A463
:104E000004EF27F006EF27F00DEF27F0000E00016A
:104E1000716F000E706F12EF27F0000E0001716FBE
:104E2000200E706F20EE03F06551D9266651DA220C
:104E30007051DF125CEC53F00001776F77B123EF14
:104E400027F025EF27F02BEF27F0000E736F000EF1
:104E5000726F2FEF27F0000E736F400E726F20EE0F
:104E600003F06551D9266651DA227251DF1277B309
:104E70003CEF27F03EEF27F044EF27F0000E756F70
:104E8000000E746F48EF27F0000E756F800E746F80
:104E900020EE03F06551D9266651DA227451DF12F3
:104EA00012000001726F68C060F000017251EBECFB
:104EB00047F00009D8A45FEF27F061EF27F072EF09
:104EC00027F000017251500D8E0EF324D96E050E9D
:104ED000F420DA6E0C0EDF6470EF27F072EF27F02B
:104EE00075EF27F0000E68EF28F07251500D8E0E0E
:104EF000F324D96E050EF420DA6EDF506D6F6D511C
:104F0000050DF3CF6EF0F4CF6FF07251500D820E9D
:104F1000706F050E716F120E7027000E7123F35023
:104F20007027F45071236E517025D96E6F51712125
:104F3000DA6E6BC0DEFF6CC0DDFF7251500D8E0E5D
:104F4000F324D96E050EF420DA6EDF506D6F6D51CB
:104F5000050DF3CF6EF0F4CF6FF07251500D820E4D
:104F6000706F050E716F100E7027000E7123F350D5
:104F70007027F45071236E517025D96E6F517121D5
:104F8000DA6E69C0DFFF7251500D8E0EF324D96EB8
:104F9000050EF420DA6EDF506D6F6D51050DF3CF05
:104FA0006EF0F4CF6FF07251500D820E706F050EDF
:104FB000716F0F0E7027000E7123F3507027F4509D
:104FC00071236E517025D96E6F517121DA6E68C0F0
:104FD000DFFF7251500D8E0EF324D96E050EF420B2
:104FE000DA6EDF506D6F6D51050DF3CF6EF0F4CFBB
:104FF0006FF07251500D820E706F050E716F110EB1
:105000007027000E7123F3507027F45071236E51F6
:105010007025D96E6F517121DA6E6AC0DFFF72514F
:10502000500D860EF324D96E050EF420DA6EDE5094
:10503000DE10D8A41EEF28F020EF28F05EEF28F055
:105040007251500D820E6D6F050E6E6F0F0E6D2733
:10505000000E6E23F3506D27F4506E237251500DE5
:105060008E0EF324D96E050EF420DA6EDF506F6FCA
:105070006F51050DF3506D27F4506E237251500D92
:10508000860EF324D96E050EF420DA6E6DC0DEFFB5
:105090006EC0DDFF7251500D860EF324D96E050EE1
:1050A000F420DA6E7251500D840EF324E16E050E79
:1050B000F420E26EDECFE6FFDDCFE5FF7251500D4A
:1050C0008E0EF324D96E050EF420DA6EDF2A010E5F
:1050D0001200000E0001806F000E7F6F7F5151ECB7
:1050E00044F0D89000017F35D96E8035DA6EC40E59
:1050F000D926010EDA2269C0DEFF6AC0DDFFD89032
:105100007F35D96E8035DA6E660ED926010EDA2229
:10511000D8907F35E16E8035E26EC40EE126010E37
:10512000E222DE50E65CDE50E658D8A09AEF28F086
:105130009CEF28F0B9EF28F0D8907F35D96E8035F4
:10514000DA6E600ED926010EDA22D8907F35E16E34
:105150008035E26E660EE126010EE222DE50E65C4C
:10516000DE50E658D8A0B7EF28F0B9EF28F0C8EF26
:1051700028F0D8907F35D96E8035DA6E6C0ED9263E
:10518000010EDA22000EDE6E000EDD6E61EF29F0F8
:10519000D8907F35D96E8035DA6EC40ED926010ECF
:1051A000DA22D8907F35E16E8035E26E600EE1261E
:1051B000010EE222DE50E65CDE50E658D8B0E3EFA6
:1051C00028F0E5EF28F0F4EF28F0D8907F35D96E7D
:1051D0008035DA6E6C0ED926010EDA22640EDE6E90
:1051E000000EDD6E61EF29F0D8907F35D96E8035E5
:1051F000DA6E660ED926010EDA22DECF79F0DDCF27
:105200007AF0D8907F35D96E8035DA6E600ED92667
:10521000010EDA22DECF7BF0DDCF7CF079517B5DB1
:105220007D6F7A517C597E6FD8907F35D96E8035ED
:10523000DA6E660ED926010EDA22DECF79F0DDCFE6
:105240007AF0D8907F35D96E8035DA6EC40ED926C3
:10525000010EDA22DECF7BF0DDCF7CF079517B5F6F
:105260007A517C5B7BC060F07CC061F0626B636BE9
:10527000640E646F000E656F000E666F000E676F40
:1052800064EC4BF060C06CF061C06DF062C06EF019
:1052900063C06FF07DC070F07EC071F00001726B72
:1052A000736B5FEC43F0D89000017F35D96E803589
:1052B000DA6E6C0ED926010EDA226CC0DEFF6DC0EC
:1052C000DDFF7F4B802B80BF6FEF29F0805109E11C
:1052D000030E7F5DD8A06FEF29F071EF29F06EEF1C
:1052E00028F012000001D86F010E0001D96F0101F2
:1052F00090519111D8A47FEF29F081EF29F091EF1F
:1053000029F0740E906FB00E916F740E8E6FB00E08
:105310008F6F740E8C6FB00E8D6F740E8A6FB00E1F
:105320008B6F0001D8514718D8A499EF29F09BEF53
:1053300029F0A3EF29F04650D8A4A1EF29F0A3EF5C
:1053400029F061EF2AF0D851D8B4A9EF29F0ABEFDA
:1053500029F009EF2AF04650D8B4B1EF29F0B3EFA5
:1053600029F0D4EF29F001018A518B11D8B4BBEF99
:1053700029F0BDEF29F0D4EF29F002D8C9EF29F0C8
:105380000500FA6E8A51FD6E8B51FE6EFF6AFA506F
:1053900012000009D8A4CFEF29F0D1EF29F0D4EF03
:1053A00029F0000E0001D96F010E476E13EC3FF09B
:1053B000010190519111D8B4E0EF29F0E2EF29F00A
:1053C000F9EF29F002D8EEEF29F00500FA6E9051BE
:1053D000FD6E9151FE6EFF6AFA5012000009D8A4CA
:1053E000F4EF29F0F6EF29F0F9EF29F0000E0001B3
:1053F000D96F4650D8A4FFEF29F001EF2AF061EFF2
:105400002AF0010E466E16EC51F00001D96F61EFE3
:105410002AF04650D8B40FEF2AF011EF2AF032EFFD
:105420002AF001018E518F11D8B419EF2AF01BEF29
:105430002AF032EF2AF002D827EF2AF00500FA6EA0
:105440008E51FD6E8F51FE6EFF6AFA5012000009F8
:10545000D8A42DEF2AF02FEF2AF032EF2AF0000E19
:105460000001D96F000E476E13EC3FF001018C5123
:105470008D11D8B43EEF2AF040EF2AF057EF2AF012
:1054800002D84CEF2AF00500FA6E8C51FD6E8D515A
:10549000FE6EFF6AFA5012000009D8A452EF2AF0FB
:1054A00054EF2AF057EF2AF0000E0001D96F465052
:1054B000D8A45DEF2AF05FEF2AF061EF2AF001EF48
:1054C0002AF00001D951120028EC58F00009D8B494
:1054D0006CEF2AF06EEF2AF075EF2AF0000E000153
:1054E000616F940E606FCBEC57F0090E0001F96507
:1054F0007CEF2AF07EEF2AF084EF2AF0000E616F35
:10550000950E606FCBEC57F0000169516A11D8A479
:105510008CEF2AF08EEF2AF094EF2AF0000E616FE4
:10552000960E606FCBEC57F0F9C074F0B0EF2AF034
:1055300074077451170D0C0EF324D96E040EF42069
:10554000DA6E6D51DE18D8A4A8EF2AF0AAEF2AF07F
:10555000B0EF2AF0000E616F9E0E606FCBEC57F03B
:1055600000017451D8A4B7EF2AF0B9EF2AF098EFF0
:105570002AF0F951170D000EF324756F040EF42074
:10558000766F20EE0BF07551D9267651DA22F9C0EC
:10559000DFFF20EE0CF07551D9267651DA226DC06E
:1055A000DFFF20EE02F07551D9267651DA22050E82
:1055B000DF6E20EE04F07551D9267651DA22050E01
:1055C000DF6E20EE0DF07551D9267651DA22000EED
:1055D000DF6E20EE05F07551D9267651DA22000EE5
:1055E000DE6E000EDD6E75C0D9FF76C0DAFF69C0D1
:1055F000DEFF6AC0DDFF20EE12F07551D92676512C
:10560000DA22000EDF6E20EE07F07551D9267651B2
:10561000DA22DE6ADE6ADE6ADD6A7051D8B413EF20
:105620002BF015EF2BF035EF2BF06EC062F06FC052
:1056300063F070C064F071C065F072C066F020EE77
:105640000BF07551D9267651DA22DF50676FD4EC12
:105650003FF00001736F20EE0EF07551D9267651A0
:10566000DA2273C0DFFF3DEF2BF020EE0EF0755114
:10567000D9267651DA22FF0EDF6E20EE15F0755135
:10568000D9267651DA226BC0DEFF6CC0DDFFF951FE
:105690001DEC4EF00001F92B20EE0BF07551D926D0
:1056A0007651DA22DF5012000001E16FD9C060F0BC
:1056B0000001E151EBEC47F00009D8B462EF2BF0A8
:1056C00064EF2BF03AEF2CF0D9C060F00001E1510B
:1056D000F1EC40F060C0DFF061C0E0F00001E151AA
:1056E000500D860EF324D96E050EF420DA6E10EEFE
:1056F00002F0DE50E126DD50E22220EE02F0DF5122
:10570000D926E051DA22E650DE5CD8A08AEF2BF0F1
:105710008CEF2BF03AEF2CF0E151500D860EF32474
:10572000D96E050EF420DA6EDECFDAF0DDCFDBF0D5
:10573000DAC0D9FFDBC0DAFFD951DE18D8A4A3EF55
:105740002BF0A5EF2BF0B5EF2BF0E151500D8F0EA4
:10575000F324D96E050EF420DA6EDF50D8B4B3EF1F
:105760002BF0B5EF2BF03AEF2CF0E151500D830EFA
:10577000F324D96E050EF420DA6EDF50D8B4C3EFEF
:105780002BF0C5EF2BF0D9EF2BF0D9C060F0E15131
:10579000F1EC40F00001E151500D840EF324D96E7C
:1057A000050EF420DA6E60C0DEFF61C0DDFF3AEF67
:1057B0002CF0E151500D8D0EF324D96E050EF4201E
:1057C000DA6EDF50DE6FE151500D8D0EF324D96E8D
:1057D000050EF420DA6E000EDF6EE1519FEC44F00E
:1057E0000001E151500D860EF324D96E050EF42010
:1057F000DA6EDFC0DEFFE0C0DDFFDE51D8B403EFBC
:105800002CF005EF2CF03AEF2CF0E151500D820E08
:10581000F324666F050EF420676FBEEC3AF00009C2
:10582000D8B415EF2CF017EF2CF025EF2CF0000179
:10583000E151500D820EF324D96E050EF420DA6E7C
:10584000DF503AEC4CF03AEF2CF00001E151500DF2
:105850008D0EF324D96E050EF420DA6E010EDF6E84
:10586000E151500D820EF324D36F050EF420D46F56
:1058700039EC1AF0010E12000001686F0001685146
:10588000D8B445EF2CF047EF2CF069EF2CF063BF54
:105890004EEF2CF04CEF2CF069EF2CF060C064F070
:1058A00061C065F062C066F063C067F0641F651F89
:1058B000661F671F642B000E65236623672364C081
:1058C0006AF065C06BF066C06CF067C06DF071EF98
:1058D0002CF060C06AF061C06BF062C06CF063C015
:1058E0006DF06051611162116311D8A47AEF2CF050
:1058F0007CEF2CF086EF2CF0000E606F000E616FD5
:10590000000E626F000E636F17EF2DF0960E696F39
:1059100090EF2CF0692BD8906D336C336B336A3376
:10592000000E6A15646F000E6B15656F000E6C1526
:10593000666FFE0E6D15676F645165116611671114
:10594000D8A4A5EF2CF0A7EF2CF08AEF2CF0B5EF40
:105950002CF0692B010E6A27000E6B236C236D233C
:10596000D8906D336C336B336A33000E6A15646FF5
:10597000000E6B15656F000E6C15666FFF0E6D15D2
:10598000676F6451651166116711D8A4CAEF2CF0D6
:10599000CCEF2CF0A9EF2CF0D4EF2CF06907D890C5
:1059A0006A376B376C376D376CBFD9EF2CF0DBEF94
:1059B0002CF0E3EF2CF0020E6961E1EF2CF0E3EF45
:1059C0002CF0CEEF2CF069B1E8EF2CF0EAEF2CF0E0
:1059D000EBEF2CF06C9FD890693369C064F0656B75
:1059E000666B676B64C067F0666B656B646B645174
:1059F0006A1365516B1366516C1367516D136851CF
:105A0000D8B405EF2DF007EF2DF00FEF2DF063BFA9
:105A10000EEF2DF00CEF2DF00FEF2DF06D8F6AC013
:105A200060F06BC061F06CC062F06DC063F012009A
:105A300022EE28F010EE6EF0060EDBCFE3FFE80654
:105A4000FCE26BC079F06CC07AF0000179517A11F8
:105A5000D8A42DEF2DF02FEF2DF033EF2DF06E0E9B
:105A6000796F000E7A6F79C060F07AC061F0C9EC8E
:105A70004EF060C07DF061C07EF084C17BF085C1D6
:105A80007CF000017CBF47EF2DF049EF2DF05EEF79
:105A90002DF07D517B5D7C51800A6D6F7E51800AB7
:105AA0006D59D8A056EF2DF058EF2DF05AEF2DF08C
:105AB0005EEF2DF07BC07DF07CC07EF07DC07BF082
:105AC0007EC07CF082C177F083C178F038B06BEF94
:105AD0002DF06DEF2DF08BEF2DF07CEF2DF0000E03
:105AE000616F200E606F69C062F06AC063F0ECEC19
:105AF00044F000017D4B7E2B77517D5D7E51800A05
:105B00006D6F7851800A6D59D8A089EF2DF08BEF19
:105B10002DF06FEF2DF0000E766F000E756FB2EF67
:105B20002DF079C0F6FF7AC0F7FF000EF86E0E0E6A
:105B3000F76403D00800F55005D0F6CFE9FFF7CFA2
:105B4000EAFFEF5000016D6F6D51606F616B69C0CE
:105B500062F06AC063F0ECEC44F00001794B7A2B00
:105B6000754B762B7B51755D7651800A6D6F7C513C
:105B7000800A6D59D8A0BFEF2DF0C1EF2DF091EF45
:105B80002DF038A0C6EF2DF0C8EF2DF0E6EF2DF088
:105B9000D7EF2DF0000E616F200E606F69C062F0CC
:105BA0006AC063F0ECEC44F000017D4B7E2B775132
:105BB0007D5D7E51800A6D6F7851800A6D59D8A045
:105BC000E4EF2DF0E6EF2DF0CAEF2DF07DC069F087
:105BD0007EC06AF0120000016F6F6FC060F00001BC
:105BE000616B000E636F080E626FC7EC3CF0000142
:105BF0006051706F6F51070B716F000E736FACEFD8
:105C00002EF07351170D020EF324D96E040EF420FA
:105C1000DA6EDF50726F000E6E6F030E7219D8B419
:105C200014EF2EF016EF2EF01FEF2EF0040E721967
:105C3000D8A41DEF2EF01FEF2EF021EF2EF0010E55
:105C40006E6F7351170D000E686F040E696F140E9E
:105C50006827000E6923F3506827F45069237051B8
:105C60006825D96E000E6921DA6EDF506A6F71C047
:105C70006BF0010E6C6F6B2B40EF2EF0D8906C37F1
:105C80006B2F3EEF2EF000016C516A156D6F6D5158
:105C9000D8B44DEF2EF04FEF2EF0AAEF2EF06E514C
:105CA000D8B455EF2EF057EF2EF0AAEF2EF071C0BA
:105CB00068F0010E696F682B60EF2EF0D89069379D
:105CC000682F5EEF2EF000016951FF0A6A6F735171
:105CD000170D000E6B6F040E6C6F140E6B27000E09
:105CE0006C23F3506B27F4506C2370516B25D96EE5
:105CF000000E6C21DA6E6A51DF167351170D120E09
:105D0000F324D96E040EF420DA6EDF50D8A48BEFA2
:105D10002EF08DEF2EF098EF2EF0735104EC4DF035
:105D20000009D8B496EF2EF098EF2EF0AAEF2EF0DF
:105D300000017351170D030EF324D96E040EF420E5
:105D4000DA6E010EDF6E73511DEC4EF000017351DF
:105D50009AEC56F00001732BF9517319D8A4B3EFE4
:105D60002EF0B5EF2EF001EF2EF012002B6E000E8C
:105D70002D6E71EF2FF02D50170D020EF324D96EFA
:105D8000040EF420DA6EDF502C6E020E2C18D8B4FC
:105D9000CCEF2EF0CEEF2EF0D7EF2EF0040E2C1815
:105DA000D8A4D5EF2EF0D7EF2EF038EF2FF02D50EE
:105DB000170D130EF324D96E040EF420DA6E2B5057
:105DC000DE18D8A4E6EF2EF0E8EF2EF04DEF2FF01E
:105DD0002D50170D070EF324D96E040EF420DA6E41
:105DE000DE50235CDE502458DE502558DE50265805
:105DF000D8A0FDEF2EF0FFEF2EF026EF2FF02D5064
:105E0000170D070EF324D96E040EF420DA6EDE6A45
:105E1000DE6ADE6ADD6A040E2C18D8A412EF2FF0B9
:105E200014EF2FF021EF2FF02D504AEC4EF02D50B3
:105E3000170D030EF324D96E040EF420DA6E020E51
:105E4000DF6E2D50F7EC56F04DEF2FF02D50170D63
:105E5000070EF324D96E040EF420DA6E2350DE5EB2
:105E60002450DE5A2550DE5A2650DE5A4DEF2FF0D0
:105E70002C04D8A43EEF2FF040EF2FF04DEF2FF081
:105E80002D50170D070EF324D96E040EF420DA6E90
:105E9000DE2A000EDE22DE22DE222B50D8A453EFB3
:105EA0002FF055EF2FF070EF2FF02D50170D0E0E35
:105EB000F324D96E040EF420DA6EDE28D8B463EF32
:105EC0002FF065EF2FF070EF2FF02D50170D0E0E05
:105ED000F324D96E040EF420DA6EDF5076EC32F043
:105EE0002D2A0001F9512D18D8A479EF2FF07BEF5E
:105EF0002FF0BBEF2EF01200000E0001716F6FBF8C
:105F000086EF2FF084EF2FF098EF2FF06F1F6E1FAA
:105F10006D1F6C1F6B1F6A1F691F686D000E692360
:105F20006A236B236C236D236E236F23010E716F25
:105F300067BF9FEF2FF09DEF2FF0B1EF2FF0671F9E
:105F4000661F651F641F631F621F611F606D000E67
:105F50006123622363236423652366236723010E81
:105F6000711B20EE72F0070EDE6AE806FDE2685152
:105F700069116A116B116C116D116E116F11D8B42A
:105F8000C4EF2FF0C6EF2FF018EF30F0010E706F56
:105F9000D4EF2FF0D890683769376A376B376C3792
:105FA0006D376E376F37702B6FAFD9EF2FF0DBEF98
:105FB0002FF0CAEF2FF0D8907237733774377537D8
:105FC00076377737783779376851605D695161592D
:105FD0006A5162596B5163596C5164596D516559DD
:105FE0006E5166596F516759D8A0F9EF2FF0FBEF4A
:105FF0002FF00CEF30F06851605F6951615B6A51BE
:10600000625B6B51635B6C51645B6D51655B6E51A0
:10601000665B6F51675B7281D8906F336E336D33FF
:106020006C336B336A3369336833702FDBEF2FF0D7
:106030007151D8B41EEF30F020EF30F030EF30F077
:10604000791F781F771F761F751F741F731F726D5E
:10605000000E732374237523762377237823792303
:1060600072C060F073C061F074C062F075C063F01C
:1060700076C064F077C065F078C066F079C067F0EC
:106080001200106E10C001F0026A000E046E080EBD
:10609000036EEFEC3DF00150116E1050070B126EC5
:1060A000000E146EFAEF30F01450170D020EF324A8
:1060B000D96E040EF420DA6EDF50136E000E0F6EF0
:1060C000030E1318D8B467EF30F069EF30F072EFB9
:1060D00030F0040E1318D8A470EF30F072EF30F0E7
:1060E00074EF30F0010E0F6E1450170D000E096E94
:1060F000040E0A6E140E0926000E0A22F350092619
:10610000F4500A2211500924D96E000E0A20DA6ECA
:10611000DF500B6E12C00CF0010E0D6E0C2A93EFC7
:1061200030F0D8900D360C2E91EF30F00D500B144E
:106130000E6E0E50D8B49FEF30F0A1EF30F0F9EFB3
:1061400030F00F50D8B4A7EF30F0A9EF30F0F9EFEE
:1061500030F012C009F0010E0A6E092AB2EF30F0D9
:10616000D8900A36092EB0EF30F00A50FF0A0B6EB5
:106170001450170D000E0C6E040E0D6E140E0C262E
:10618000000E0D22F3500C26F4500D2211500C2459
:10619000D96E000E0D20DA6E0B50DF161450170D5D
:1061A000120EF324D96E040EF420DA6EDF50D8A458
:1061B000DCEF30F0DEEF30F0E9EF30F01450EFECD0
:1061C0004DF00009D8B4E7EF30F0E9EF30F0F9EF27
:1061D00030F01450170D030EF324D96E040EF42082
:1061E000DA6E010EDF6E14504AEC4EF01450F7ECEC
:1061F00056F0142A0001F9511418D8A402EF31F016
:1062000004EF31F054EF30F0120000017E6F000116
:106210007E51D8A40EEF31F010EF31F018EF31F0CD
:106220005050D8B416EF31F018EF31F0BFEF31F025
:10623000000E806F000E7F6F7FC060F080C061F045
:10624000000E636F030E626F58EC55F0000E0001F4
:106250006025816F030E6121826F20EE02F0815173
:10626000D9268251DA22DF50D8A439EF31F03BEF42
:1062700031F043EF31F07E51D8B441EF31F043EFCC
:1062800031F0ACEF31F020EE02F08151D92682518D
:10629000DA22000EDF6E87EF31F020EE01F081513F
:1062A000D9268251DA22DF507C6F7D6B000E7C256F
:1062B000D96E010E7D21DA6EDF50746F20EE01F091
:1062C0008151D9268251DA22DF50DEEC56F0ACEF54
:1062D00031F020EE01F08151D9268251DA22DF50CF
:1062E0007C6F7D6B000E7C25D96E010E7D21DA6EF0
:1062F000DECF76F0DDCF77F020EE01F08151D926A8
:106300008251DA22DF50F3EC54F0ACEF31F081C06F
:10631000D9FF82C0DAFFDF507C6F7D6B7D51000AB0
:10632000D8B495EF31F0ACEF31F07C51000AD8B41D
:106330004DEF31F0010AD8B44DEF31F0030AD8B473
:106340004DEF31F0010AD8B469EF31F0070AD8B443
:10635000ACEF31F0ACEF31F000017F4B802B80BF10
:10636000BBEF31F0805109E1200E7F5DD8A0BBEF7B
:1063700031F0BDEF31F01CEF31F0000E506E120025
:10638000000E0001F96F000E626F6251170D000ED2
:10639000F324646F040EF420656F20EE13F0645153
:1063A000D9266551DA22FF0EDF6E20EE05F064512A
:1063B000D9266551DA22FF0EDE6E000EDD6E20EE6C
:1063C0000EF06451D9266551DA22000EDF6E20EE00
:1063D0000FF06451D9266551DA22000EDF6E20EEEF
:1063E00010F06451D9266551DA22000EDF6E20EEDE
:1063F00011F06451D9266551DA22000EDF6E20EECD
:106400000CF06451D9266551DA22000EDF6E20EEC1
:1064100004F06451D9266551DA22000EDF6E20EEB9
:106420000DF06451D9266551DA22FF0EDF6E20EEA1
:1064300002F06451D9266551DA22000EDF6E20EE9B
:1064400003F06451D9266551DA22000EDF6E64C074
:10645000D9FF65C0DAFF000EDE6E000EDD6E20EEA5
:106460000BF06451D9266551DA22FF0EDF6E20EE63
:1064700007F06451D9266551DA22DE6ADE6ADE6AE7
:10648000DD6A20EE12F06451D9266551DA22000E41
:10649000DF6E000E636F63516425606F000E65212F
:1064A000616F140E6025D96E000E6121DA6EFF0E49
:1064B000DF6E632B6351D8B460EF32F062EF32F0DD
:1064C0004BEF32F020EE15F06451D9266551DA22F7
:1064D000000EDE6E000EDD6E622B090E626573EF3C
:1064E00032F075EF32F0C5EF31F012001F6E1F5021
:1064F0000C0D780EF324216E030EF420226E20EE94
:1065000005F02150D9262250DA22DF50166E010EF6
:106510001624016E026A000E022220EE06F02150BF
:10652000D9262250DA22DF50176E1750036E046A04
:10653000B4EC42F00150206E20EE04F02150D92638
:106540002250DA22DF501C6E20EE02F02150D926B4
:106550002250DA22DECF1AF0DDCF1BF020EF33F02D
:1065600020C001F0026A1AC003F01BC004F0E0EC86
:1065700055F021C0D9FF22C0DAFFDF50166E176A2E
:10658000015016241D6E025017201E6E20EE04F0DE
:106590001D50D9261E50DA22DE50DE10DE10DE102D
:1065A000D8B4D5EF32F0D7EF32F00BEF33F020EE66
:1065B00004F01D50D9261E50DA22DE06000EDE5AE7
:1065C000DE5ADE5A20EE04F01D50D9261E50DA2283
:1065D000DE50DE10DE10DE10D8A4F1EF32F0F3EF63
:1065E00032F00BEF33F01F500C0D830EF324D96EF5
:1065F000030EF420DA6EDF50DBEC57F0FE0E016E76
:106600001F500C0D830EF324D96E030EF420DA6EA6
:10661000DF5003EC57F0010E2024016E026A000ED9
:10662000022220EE06F02150D9262250DA22DF5035
:10663000166E1650036E046AB4EC42F00150206EE0
:106640001C502018D8A427EF33F029EF33F0B0EF17
:1066500032F01200000E0001716F67BF34EF33F0AB
:1066600032EF33F046EF33F0671F661F651F641F7C
:10667000631F621F611F606D000E6123622363232D
:106680006423652366236723010E716F6FBF4DEF8F
:1066900033F04BEF33F05DEF33F06F1F6E1F6D1F64
:1066A0006C1F6B1F6A1F691F686D000E69236A23C8
:1066B0006B236C236D236E236F23685169116A115C
:1066C0006B116C116D116E116F11D8B46AEF33F04C
:1066D0006CEF33F0B4EF33F0010E706F7AEF33F0FC
:1066E000D890683769376A376B376C376D376E37D4
:1066F0006F37702B6FAF7FEF33F081EF33F070EFB8
:1067000033F06851605D695161596A5162596B514A
:1067100063596C5164596D5165596E5166596F5189
:106720006759D8A096EF33F098EF33F0A8EF33F025
:106730006851605F6951615B6A51625B6B51635B79
:106740006C51645B6D51655B6E51665B6F51675B4D
:10675000D8906F336E336D336C336B336A33693378
:106760006833702F81EF33F07151D8B4BAEF33F042
:10677000BCEF33F0CCEF33F0671F661F651F641F5B
:10678000631F621F611F606D000E6123622363231C
:10679000642365236623672360C060F061C061F0F5
:1067A00062C062F063C063F064C064F065C065F00D
:1067B00066C066F067C067F01200000120EE02F0CC
:1067C0006951D9266A51DA224C0EDE18D8A4EBEFB3
:1067D00033F0EDEF33F01EEF34F020EE04F06951AA
:1067E000D9266A51DA22DF506E6F20EE03F069512C
:1067F000D9266A51DA22DF506F6F6EC060F06FC029
:1068000061F00C0E0CEC46F0000120EE06F0695130
:10681000D9266A51DA22DF506E6F20EE05F06951F9
:10682000D9266A51DA22DF506F6F6EC060F06FC0F8
:1068300061F00D0E0CEC46F08DEF34F020EE02F01E
:106840006951D9266A51DA22520EDE18D8A42BEFEC
:1068500034F02DEF34F05EEF34F020EE04F06951A7
:10686000D9266A51DA22DF506E6F20EE03F06951AB
:10687000D9266A51DA22DF506F6F6EC060F06FC0A8
:1068800061F0100E0CEC46F0000120EE06F06951AC
:10689000D9266A51DA22DF506E6F20EE05F0695179
:1068A000D9266A51DA22DF506F6F6EC060F06FC078
:1068B00061F0110E0CEC46F08DEF34F020EE04F098
:1068C0006951D9266A51DA22DF506E6F20EE03F04B
:1068D0006951D9266A51DA22DF506F6F6EC060F0BD
