:1000000059EF00F0FF00FF005F82A5EF21F0FF0035
:10001000FF00FF00FF00FF005F80D8CF2EF0E8CF89
:100020002FF0E0CF30F0D9CF31F0DACF32F0F3CF8C
:1000300033F0F4CF34F00E01CEA321EF00F023EF24
:1000400000F049EF00F0CE9399EC21F0010E010190
:100050003C27000E3D233E233F235D50D8B433EFB1
:1000600000F035EF00F049EF00F03CC123F03DC156
:1000700024F03EC125F03FC126F0000EA1EC09F0AE
:10008000000E01013C6F000E3D6F000E3E6F000E32
:100090003F6F34C0F4FF33C0F3FF32C0DAFF31C02A
:1000A000D9FF30C0E0FF2FC0E8FF2EC0D8FF5F901F
:1000B0001000CAEF16F00001FD512CEC20F060C0DA
:1000C000D8F061C0D9F002EF02F0000EDB6F000E35
:1000D000DA6F140ED26F010ED36FD890DA35D96E65
:1000E000DB35DA6ED890D936DA36D251D926D351EB
:1000F000DA22DA5147EC14F0DF6E0001DA4BDB2B29
:10010000DBBF8CEF00F0DB5109E1040EDA5DD8A013
:100110008CEF00F08EEF00F069EF00F001011C5150
:10012000D8B495EF00F097EF00F0A3EF00F0205166
:10013000D8B49DEF00F09FEF00F0A3EF00F0000EA9
:100140001C6F000E206F1451D8B4A9EF00F0ABEF74
:1001500000F0B7EF00F01851D8B4B1EF00F0B3EFF2
:1001600000F0B7EF00F0000E146F000E186F000ED5
:100170000001DD6F000EDC6F140ED26F010ED36F25
:10018000010ED227000ED323D890DC35D96EDD3591
:10019000DA6ED890D936DA36D251D926D351DA224E
:1001A000140ED56F010ED66FD890DC35E16EDD35BB
:1001B000E26ED890E136E236D551E126D651E22200
:1001C000DE50E618D8B4E7EF00F0E9EF00F027EFD3
:1001D00001F0140ED26F010ED36F020ED227000E63
:1001E000D323D890DC35D96EDD35DA6ED890D93688
:1001F000DA36D251D926D351DA22000EDF6E140E30
:10020000D26F010ED36FD890DC35D96EDD35DA6E42
:10021000D890D936DA36D251D926D351DA22140EF3
:10022000D46F010ED56F010ED427000ED523D890C0
:10023000DC35E16EDD35E26ED890E136E236D45140
:10024000E126D551E222DFCFE7FFD9EF01F0140E0E
:10025000D26F010ED36F020ED227000ED323D89097
:10026000DC35D96EDD35DA6ED890D936DA36D25132
:10027000D926D351DA22DF2A140ED26F010ED36FA2
:10028000020ED227000ED323D890DC35D96EDD358F
:10029000DA6ED890D936DA36D251D926D351DA224D
:1002A000030EDE18D8A457EF01F059EF01F0A4EFC8
:1002B00001F0140ED26F010ED36FD890DC35D96ED9
:1002C000DD35DA6ED890D936DA36D251D926D35107
:1002D000DA22DF50D8B46FEF01F071EF01F08DEF4B
:1002E00001F0140ED26F010ED36F030ED227000E51
:1002F000D323D890DC35D96EDD35DA6ED890D93677
:10030000DA36D251D926D351DA22DF5037EC13F046
:100310000B0E4FEC1FF0A4EF01F0140ED26F010E84
:10032000D36F030ED227000ED323D890DC35D96EBD
:10033000DD35DA6ED890D936DA36D251D926D35196
:10034000DA22DF50D8EC12F0140E0001D26F010E49
:10035000D36F020ED227000ED323D890DC35D96E8E
:10036000DD35DA6ED890D936DA36D251D926D35166
:10037000DA22030EDF64BFEF01F0C1EF01F0FFEFFF
:1003800000F0140ED26F010ED36F020ED227000EB2
:10039000D323D890DC35D96EDD35DA6ED890D936D6
:1003A000DA36D251D926D351DA22030EDF6EFFEFAF
:1003B00000F0DC4BDD2BDDBFE7EF01F0DD5109E1A3
:1003C000040EDC5DD8A0E7EF01F0E9EF01F0BCEF2F
:1003D00000F0000E626F140E636F000E646F000E6B
:1003E000656F000E666FFD51C4EC15F0000E000144
:1003F000616FC70E606FFD511CEC20F00001FD69BC
:1004000019EF02F0D8C0D2F0D9C0D3F00001D35117
:10041000000AD8B40EEF02F019EF02F0D251000A30
:10042000D8B465EF00F0C70AD8B465EF00F019EF53
:1004300002F012007DC095F07EC096F07FC097F06C
:1004400080C098F081C099F082C09AF083C09BF080
:1004500084C09CF000019CBF30EF02F033EF02F04B
:10046000010E34EF02F0000E936F946B93519411D0
:10047000D8B43DEF02F03FEF02F04FEF02F09C1FC7
:100480009B1F9A1F991F981F971F961F956D000E0F
:1004900096239723982399239A239B239C2340BE3A
:1004A00054EF02F056EF02F057EF02F0E09340BE37
:1004B00064EF02F0405006E13F04D8B062EF02F072
:1004C00064EF02F06AEF02F0000E906F010E8F6F82
:1004D0006EEF02F03FC08FF040C090F03DC091F051
:1004E0003EC092F093519411D8A479EF02F07BEFC3
:1004F00002F082EF02F0E0A580EF02F082EF02F05E
:1005000085EF02F09107D8A09207000E9E6F1F0E94
:100510009D6F000E01019B6F0BEF03F09D07D8A0AC
:100520009E077C0E9D25D96E010E9E21DA6E95C028
:1005300060F096C061F097C062F098C063F099C017
:1005400064F09AC065F09BC066F09CC067F00A0E2C
:10055000686F000E696F000E6A6F000E6B6F000E01
:100560006C6F000E6D6F000E6E6F000E6F6F5AECA9
:100570000DF060C085F061C086F062C087F063C096
:1005800088F064C089F065C08AF066C08BF067C0EF
:100590008CF085C072F087C073F0CEEC1DF00001C6
:1005A0007251300FDF6E8F07D8A090079107D8A047
:1005B000920795C060F096C061F097C062F098C055
:1005C00063F099C064F09AC065F09BC066F09CC06F
:1005D00067F00A0E686F000E696F000E6A6F000EFA
:1005E0006B6F000E6C6F000E6D6F000E6E6F000E65
:1005F0006F6F67EC0AF060C095F061C096F062C062
:1006000097F063C098F064C099F065C09AF066C036
:100610009BF067C09CF000019EBF17EF03F09E5156
:1006200008E19D05D8A017EF03F019EF03F049EF9B
:1006300003F0955196119711981199119A119B11E8
:100640009C11D8A426EF03F028EF03F08EEF02F000
:1006500090BF35EF03F0905106E18F05D8B033EF2E
:1006600003F035EF03F08EEF02F092BF40EF03F09E
:10067000925108E19105D8A040EF03F042EF03F05A
:1006800049EF03F0E0B347EF03F049EF03F08EEFDB
:1006900002F093519411D8A450EF03F052EF03F0FD
:1006A00059EF03F0E0A557EF03F059EF03F077EFB0
:1006B00003F09D07D8A09E0793519411D8A463EF2F
:1006C00003F065EF03F06BEF03F0000E8E6F2B0E5F
:1006D0008D6F6FEF03F0000E8E6F2D0E8D6F7C0E01
:1006E0009D25D96E010E9E21DA6E8DC0DFFF7BC085
:1006F00070F07CC071F07C0E9D25726F010E9E2102
:10070000736F91C074F092C075F04DEC11F070C031
:100710007BF071C07CF01200A1C0D9FFA2C0DAFF4B
:10072000DECFF6FFDDCFF7FFF86A0800F550250AA7
:10073000D8A49DEF03F09FEF03F0CAEF04F0A1C02F
:10074000D9FFA2C0DAFFDE2A000EDD22000E3E6EC7
:10075000000E3D6E3DC0E0F03EC0E1F03F684068F5
:10076000A1C0D9FFA2C0DAFFDECFF6FFDDCFF7FFD1
:10077000F86A0800F550640AD8B4C1EF03F0C3EF7B
:1007800003F0D6EF03F0A1C0D9FFA2C0DAFFDECF9D
:10079000F6FFDDCFF7FFF86A0800F550690AD8A424
:1007A000D4EF03F0D6EF03F017EF04F0A1C0D9FFA8
:1007B000A2C0DAFFDE2A000EDD22A3C0D9FFA4C04A
:1007C000DAFFDFCFA5F0020EDE26DFCFA6F0000EA7
:1007D000DD22A5C0D9FFA6C0DAFFDECFA7F0DDCFAE
:1007E000A8F00001000EA8BFFF0EA96FAA6FAB6FA3
:1007F000AC6FAD6FAE6F9FC07BF0A0C07CF0A7C0A8
:100800007DF0A8C07EF0A9C07FF0AAC080F0ABC088
:1008100081F0ACC082F0ADC083F0AEC084F01AECC1
:1008200002F07BC09FF07CC0A0F0E7EF04F0A1C015
:10083000D9FFA2C0DAFFDECFF6FFDDCFF7FFF86AFF
:100840000800F550730AD8B428EF04F02AEF04F03A
:1008500047EF04F0A1C0D9FFA2C0DAFFDECF60F0FD
:10086000DDCF61F0FA0E0001626FFF0E636F000EC4
:10087000656F030E646F8CEC0FF000016051611125
:10088000D8A445EF04F047EF04F092EF04F0A1C0C4
:10089000D9FFA2C0DAFFDECFF6FFDDCFF7FFF86A9F
:1008A0000800F550730AD8B458EF04F05AEF04F07A
:1008B00061EF04F0000E0001B26F030EB16F66EF3E
:1008C00004F0000E0001B26F010EB16FA1C0D9FF9C
:1008D000A2C0DAFFB151DE26B251DD22A3C0D9FF9A
:1008E000A4C0DAFFDFCFA5F0020EDE26DFCFA6F030
:1008F000000EDD22A5C0D9FFA6C0DAFFDECFAFF023
:10090000DDCFB0F09FC069F0A0C06AF0AFC06BF05F
:10091000B0C06CF0CEEC08F069C09FF06AC0A0F0E7
:10092000E7EF04F0A1C0D9FFA2C0DAFFDECFF6FFE7
:10093000DDCFF7FFF86A0800F550250AD8A4A3EF29
:1009400004F0A5EF04F0BDEF04F0A1C0D9FFA2C0F0
:10095000DAFFDE2A000EDD22000E616F250E606FC9
:100960009FC062F0A0C063F0E9EC14F0000E00013B
:10097000A06F010E9F6FE7EF04F0A1C0D9FFA2C0E6
:10098000DAFFDE2A000EDD22000EA06F000E9F6F40
:10099000E7EF04F0A1C0D9FFA2C0DAFFDECFF6FF77
:1009A000DDCFF7FFF86A0800F5500001606F616B5A
:1009B0009FC062F0A0C063F0E9EC14F0A1C0D9FFC1
:1009C000A2C0DAFFDE2A000EDD22B6EF04F012002C
:1009D0000001FD512CEC20F060C06BF061C06CF0A8
:1009E000DFEF05F0030E3A6EE80E396E0EEC1EF0E6
:1009F00000016D6FF551D8A400EF05F002EF05F08E
:100A00000DEF05F0FA0E606F000E616FD2EC20F072
:100A1000010E0001F56FC5EF05F0F505D8A413EF41
:100A200005F015EF05F02CEF05F06D51D8B41BEF74
:100A300005F01DEF05F0C5EF05F06DC055F0FA0E9D
:100A4000626F000E636FFCEC1FF0020E0001F56F89
:100A5000C5EF05F0C5EF05F0020EF519D8A433EF88
:100A600005F035EF05F073EF05F055506D19D8A47A
:100A70003CEF05F03EEF05F06FEF05F0FA0E606F0A
:100A8000000E616F000E626F5CEC1CF037500001CD
:100A9000605D38506159D8A050EF05F052EF05F075
:100AA000C5EF05F0FA0E606F000E616F21EC21F0CA
:100AB00000016DA15EEF05F060EF05F064EF05F059
:100AC000030EF56FC5EF05F06DA369EF05F06BEF51
:100AD00005F02AEF05F0040EF56FC5EF05F0060EE0
:100AE000F56FC5EF05F0030EF519D8A47AEF05F000
:100AF0007CEF05F07EEF05F06FEF05F0040EF519C1
:100B0000D8A485EF05F087EF05F090EF05F06DB301
:100B10008CEF05F08EEF05F0C5EF05F06FEF05F0F7
:100B2000060EF519D8A497EF05F099EF05F02AEF16
:100B300005F06D51D8B49FEF05F0A1EF05F0A9EFD6
:100B400005F0FA0E606F000E616F21EC21F0C5EF29
:100B500005F0FA0E606F000E616F000E626F5CECC4
:100B60001CF035500001605D36506159D8A0BBEFD4
:100B700005F0BDEF05F02AEF05F0000EF56FFA0E57
:100B8000606F000E616FD2EC20F0000E0001626F0A
:100B9000320E636F000E646F000E656F000E666F9D
:100BA000FD51C4EC15F0010E0001616F320E606F53
:100BB000FD511CEC20F00001FD69FDEF05F06BC05C
:100BC00069F06CC06AF000016A51000AD8B4EFEF16
:100BD00005F0010AD8B4F6EF05F0FDEF05F0695114
:100BE000000AD8B4F2EF04F0FDEF05F06951320AC3
:100BF000D8B4F2EF04F0FDEF05F01200000E000192
:100C0000D36F000ED26F000ED56F000ED46F82EC42
:100C100019F00009D8A40FEF06F011EF06F061EF0C
:100C200006F0000EA0EC20F00009D8B41AEF06F090
:100C30001CEF06F023EF06F0FF0E0001D56F9C0EAF
:100C4000D46F33EF06F0010EA0EC20F00009D8B409
:100C50002CEF06F02EEF06F033EF06F0000E000149
:100C6000D56F640ED46F020EA0EC20F00009D8B44A
:100C70003CEF06F03EEF06F045EF06F0000E0001F7
:100C8000D36F640ED26F61EF06F0030EA0EC20F07C
:100C90000009D8B44EEF06F050EF06F061EF06F011
:100CA000FAEC20F00009D8A458EF06F05AEF06F04D
:100CB00061EF06F0FF0E0001D36F9C0ED26F61EF63
:100CC00006F00001F4A167EF06F069EF06F08CEF83
:100CD00006F0000ED36F000ED26F000ED56F000E1F
:100CE000D46F040ED8EC12F0070E4FEC1FF0DDECC1
:100CF00018F06DC073F06EC074F0000E0001766FD6
:100D00000A0E756FBEEC17F073C0E8F074C0E9F01E
:100D1000920E4B6E340E4C6E0001F4A392EF06F06F
:100D200094EF06F0ABEF06F0000ED36F000ED26F1B
:100D3000000ED56F000ED46F080E4FEC1FF0000EA2
:100D40000001E76F0A0EE66F090E37EC13F0480E4C
:100D50004B6E310E4C6E0001D3BFB7EF06F0D3518E
:100D600008E1D205D8A0B7EF06F0B9EF06F0C1EF61
:100D700006F0050E37EC13F0060ED8EC12F0D6EFA5
:100D800006F0D3BFC8EF06F0C6EF06F0D0EF06F0CE
:100D9000050ED8EC12F0060E37EC13F0D6EF06F085
:100DA000050ED8EC12F0060ED8EC12F00001D5BFFB
:100DB000E2EF06F0D55108E1D405D8A0E2EF06F045
:100DC000E4EF06F0ECEF06F0070ED8EC12F0080E98
:100DD00037EC13F001EF07F0D5BFF3EF06F0F1EFBA
:100DE00006F0FBEF06F0070E37EC13F0080ED8EC18
:100DF00012F001EF07F0070ED8EC12F0080ED8EC55
:100E000012F01200A3EC21F00009D8B40AEF07F0A9
:100E10000CEF07F013EF07F0000E0001616F940E66
:100E2000606F33EC21F0090E0001EE651AEF07F058
:100E30001CEF07F022EF07F0000E616F950E606F58
:100E400033EC21F0000169516A11D8A42AEF07F0B0
:100E50002CEF07F032EF07F0000E616F960E606F17
:100E600033EC21F0EEC074F04EEF07F074077451CC
:100E7000170D0C0EF324D96E020EF420DA6E6D51AC
:100E8000DE18D8A446EF07F048EF07F04EEF07F062
:100E9000000E616F9E0E606F33EC21F00001745103
:100EA000D8A455EF07F057EF07F036EF07F0EE51F3
:100EB000170D000EF324756F020EF420766F20EEEE
:100EC0000BF07551D9267651DA22EEC0DFFF20EE05
:100ED0000CF07551D9267651DA226DC0DFFF20EE75
:100EE00002F07551D9267651DA22050EDF6E20EE1A
:100EF00004F07551D9267651DA22050EDF6E20EE08
:100F00000DF07551D9267651DA22000EDF6E20EEF3
:100F100005F07551D9267651DA22000EDE6E000EEC
:100F2000DD6E75C0D9FF76C0DAFF69C0DEFF6AC02A
:100F3000DDFF20EE12F07551D9267651DA22000E2F
:100F4000DF6E20EE07F07551D9267651DA22DE6A7F
:100F5000DE6ADE6ADD6A7051D8B4B1EF07F0B3EF34
:100F600007F0D3EF07F06EC062F06FC063F070C09F
:100F700064F071C065F072C066F020EE0BF0755140
:100F8000D9267651DA22DF50676F77EC12F0000134
:100F9000736F20EE0EF07551D9267651DA2273C0A8
:100FA000DFFFDBEF07F020EE0EF07551D92676510A
:100FB000DA22FF0EDF6E20EE15F07551D92676513C
:100FC000DA226BC0DEFF6CC0DDFFEE512FEC1BF0B0
:100FD0000001EE2B20EE0BF07551D9267651DA2266
:100FE000DF5012000001FD512CEC20F060C07EF0BB
:100FF00061C07FF0AFEF08F0000E0001626F0F0ECE
:10100000636F000E646F000E656F000E666FFD511A
:10101000C4EC15F0010E0001616F360E606FFD51DA
:101020001CEC20F00001FD69CDEF08F00C0EF81962
:10103000D8B41DEF08F01FEF08F0A1EF08F0F8C0DA
:1010400080F00C0EF86F4D4A4E2A000E816F8151D0
:10105000100D9B0EF324F66EFE0EF420F76EF86A68
:10106000000EF82209000C0EF5180900F510D8A49E
:101070003CEF08F03EEF08F040EF08F0A1EF08F079
:101080008151100D9B0EF324F66EFE0EF420F76EC8
:10109000F86A000EF82280517C6F7D6B0900F550D4
:1010A0007C1908E10900F5507D19D8A45AEF08F021
:1010B0005CEF08F098EF08F08151100D020EF32656
:1010C000000EF4229B0EF324F66EFE0EF420F76E53
:1010D000F86A000EF8220900F5040900F510D8A4FA
:1010E00074EF08F076EF08F082EF08F03CEC20F0A7
:1010F0000009D8A47EEF08F080EF08F082EF08F036
:10110000A1EF08F0010E596E81C0F7F06A0E4F187A
:1011100009E12A0E5018D8B490EF08F092EF08F0C9
:10112000A1EF08F05A0E4F6E410E506EA1EF08F07D
:10113000812B090E81659FEF08F0A1EF08F027EFE2
:1011400008F002D8ADEF08F00500FA6E4F50FD6EC2
:101150005050FE6EFF6AFA501200FCEF07F07EC09E
:101160007CF07FC07DF000017D51000AD8B4BFEF54
:1011700008F0010AD8B4C6EF08F0CDEF08F07C51B2
:10118000000AD8B4FCEF07F0CDEF08F07C51360A26
:10119000D8B416EF08F0CDEF08F0120021EEDCF025
:1011A00010EE6EF0060EDBCFE3FFE806FCE26BC04C
:1011B00079F06CC07AF0000179517A11D8A4E3EF8C
:1011C00008F0E5EF08F0E9EF08F06E0E796F000E19
:1011D0007A6F79C060F07AC061F009EC1CF060C0F1
:1011E0007DF061C07EF03FC07BF040C07CF000012C
:1011F0007CBFFDEF08F0FFEF08F014EF09F07D5120
:101200007B5D7C51800A6D6F7E51800A6D59D8A03C
:101210000CEF09F00EEF09F010EF09F014EF09F0F0
:101220007BC07DF07CC07EF07DC07BF07EC07CF01A
:101230003DC077F03EC078F0E0B121EF09F023EF38
:1012400009F041EF09F032EF09F0000E616F200E56
:10125000606F69C062F06AC063F0E9EC14F00001ED
:101260007D4B7E2B77517D5D7E51800A6D6F78516D
:10127000800A6D59D8A03FEF09F041EF09F025EF42
:1012800009F0000E766F000E756F68EF09F079C0F7
:10129000F6FF7AC0F7FF000EF86E0E0EF76403D06B
:1012A0000800F55005D0F6CFE9FFF7CFEAFFEF5081
:1012B00000016D6F6D51606F616B69C062F06AC053
:1012C00063F0E9EC14F00001794B7A2B754B762B27
:1012D0007B51755D7651800A6D6F7C51800A6D5926
:1012E000D8A075EF09F077EF09F047EF09F0E0A11A
:1012F0007CEF09F07EEF09F09CEF09F08DEF09F02B
:10130000000E616F200E606F69C062F06AC063F00A
:10131000E9EC14F000017D4B7E2B77517D5D7E5111
:10132000800A6D6F7851800A6D59D8A09AEF09F044
:101330009CEF09F080EF09F07DC069F07EC06AF093
:1013400012002B6E000E2D6E5CEF0AF02D50170D63
:10135000020EF324D96E020EF420DA6EDF502C6EEA
:10136000020E2C18D8B4B7EF09F0B9EF09F0C2EFAC
:1013700009F0040E2C18D8A4C0EF09F0C2EF09F050
:1013800023EF0AF02D50170D130EF324D96E020E21
:10139000F420DA6E2B50DE18D8A4D1EF09F0D3EF89
:1013A00009F038EF0AF02D50170D070EF324D96E0F
:1013B000020EF420DA6EDE50235CDE502458DE503C
:1013C0002558DE502658D8A0E8EF09F0EAEF09F0DA
:1013D00011EF0AF02D50170D070EF324D96E020EEF
:1013E000F420DA6EDE6ADE6ADE6ADD6A040E2C182C
:1013F000D8A4FDEF09F0FFEF09F00CEF0AF02D5033
:10140000B4EC1BF02D50170D030EF324D96E020E11
:10141000F420DA6E020EDF6E2D50BAEC20F038EFB9
:101420000AF02D50170D070EF324D96E020EF4208A
:10143000DA6E2350DE5E2450DE5A2550DE5A2650E6
:10144000DE5A38EF0AF02C04D8A429EF0AF02BEF6B
:101450000AF038EF0AF02D50170D070EF324D96E5D
:10146000020EF420DA6EDE2A000EDE22DE22DE22FA
:101470002B50D8A43EEF0AF040EF0AF05BEF0AF0E1
:101480002D50170D0E0EF324D96E020EF420DA6ED5
:10149000DE28D8B44EEF0AF050EF0AF05BEF0AF006
:1014A0002D50170D0E0EF324D96E020EF420DA6EB5
:1014B000DF50A6EC0CF02D2A0001EE512D18D8A417
:1014C00064EF0AF066EF0AF0A6EF09F01200000ED2
:1014D0000001716F6FBF71EF0AF06FEF0AF083EFD9
:1014E0000AF06F1F6E1F6D1F6C1F6B1F6A1F691F35
:1014F000686D000E69236A236B236C236D236E23B2
:101500006F23010E716F67BF8AEF0AF088EF0AF050
:101510009CEF0AF0671F661F651F641F631F621F31
:10152000611F606D000E61236223632364236523C2
:1015300066236723010E711B20EE72F0070EDE6A30
:10154000E806FDE2685169116A116B116C116D11A9
:101550006E116F11D8B4AFEF0AF0B1EF0AF003EFDC
:101560000BF0010E706FBFEF0AF0D8906837693743
:101570006A376B376C376D376E376F37702B6FAFDD
:10158000C4EF0AF0C6EF0AF0B5EF0AF0D890723750
:1015900073377437753776377737783779376851D7
:1015A000605D695161596A5162596B5163596C515F
:1015B00064596D5165596E5166596F516759D8A07C
:1015C000E4EF0AF0E6EF0AF0F7EF0AF06851605F27
:1015D0006951615B6A51625B6B51635B6C51645B27
:1015E0006D51655B6E51665B6F51675B7281D89020
:1015F0006F336E336D336C336B336A3369336833F7
:10160000702FC6EF0AF07151D8B409EF0BF00BEF51
:101610000BF01BEF0BF0791F781F771F761F751FDC
:10162000741F731F726D000E73237423752376234A
:1016300077237823792372C060F073C061F074C09F
:1016400062F075C063F076C064F077C065F078C072
:1016500066F079C067F01200106E10C001F0026AE7
:10166000000E046E080E036E15EC12F00150116EA0
:101670001050070B126E000E146EE5EF0BF01450B5
:10168000170D020EF324D96E020EF420DA6EDF502D
:10169000136E000E0F6E030E1318D8B452EF0BF03A
:1016A00054EF0BF05DEF0BF0040E1318D8A45BEFB2
:1016B0000BF05DEF0BF05FEF0BF0010E0F6E1450AF
:1016C000170D000E096E020E0A6E140E0926000E8A
:1016D0000A22F3500926F4500A2211500924D96E27
:1016E000000E0A20DA6EDF500B6E12C00CF0010EF5
:1016F0000D6E0C2A7EEF0BF0D8900D360C2E7CEF81
:101700000BF00D500B140E6E0E50D8B48AEF0BF088
:101710008CEF0BF0E4EF0BF00F50D8B492EF0BF01E
:1017200094EF0BF0E4EF0BF012C009F0010E0A6E1B
:10173000092A9DEF0BF0D8900A36092E9BEF0BF08B
:101740000A50FF0A0B6E1450170D000E0C6E020E9D
:101750000D6E140E0C26000E0D22F3500C26F450C4
:101760000D2211500C24D96E000E0D20DA6E0B5094
:10177000DF161450170D120EF324D96E020EF4204A
:10178000DA6EDF50D8A4C7EF0BF0C9EF0BF0D4EF3F
:101790000BF01450A7EC1AF00009D8B4D2EF0BF0FC
:1017A000D4EF0BF0E4EF0BF01450170D030EF324FD
:1017B000D96E020EF420DA6E010EDF6E1450B4EC16
:1017C0001BF01450BAEC20F0142A0001EE5114184A
:1017D000D8A4EDEF0BF0EFEF0BF03FEF0BF01200A2
:1017E000000E0001EE6F000E626F6251170D000EC9
:1017F000F324646F020EF420656F20EE13F0645141
:10180000D9266551DA22FF0EDF6E20EE05F0645115
:10181000D9266551DA22FF0EDE6E000EDD6E20EE57
:101820000EF06451D9266551DA22000EDF6E20EEEB
:101830000FF06451D9266551DA22000EDF6E20EEDA
:1018400010F06451D9266551DA22000EDF6E20EEC9
:1018500011F06451D9266551DA22000EDF6E20EEB8
:101860000CF06451D9266551DA22000EDF6E20EEAD
:1018700004F06451D9266551DA22000EDF6E20EEA5
:101880000DF06451D9266551DA22FF0EDF6E20EE8D
:1018900002F06451D9266551DA22000EDF6E20EE87
:1018A00003F06451D9266551DA22000EDF6E64C060
:1018B000D9FF65C0DAFF000EDE6E000EDD6E20EE91
:1018C0000BF06451D9266551DA22FF0EDF6E20EE4F
:1018D00007F06451D9266551DA22DE6ADE6ADE6AD3
:1018E000DD6A20EE12F06451D9266551DA22000E2D
:1018F000DF6E000E636F63516425606F000E65211B
:10190000616F140E6025D96E000E6121DA6EFF0E34
:10191000DF6E632B6351D8B490EF0CF092EF0CF0B4
:101920007BEF0CF020EE15F06451D9266551DA22D8
:10193000000EDE6E000EDD6E622B090E6265A3EFF7
:101940000CF0A5EF0CF0F5EF0BF012001F6E1F501E
:101950000C0D400EF324216E010EF420226E20EEB9
:1019600005F02150D9262250DA22DF50166E010EE2
:101970001624016E026A000E022220EE06F02150AB
:10198000D9262250DA22DF50176E1750036E046AF0
:10199000EFEC13F00150206E20EE04F02150D92618
:1019A0002250DA22DF501C6E20EE02F02150D926A0
:1019B0002250DA22DECF1AF0DDCF1BF050EF0DF00F
:1019C00020C001F0026A1AC003F01BC004F0C7EC8B
:1019D0001FF021C0D9FF22C0DAFFDF50166E176A50
:1019E000015016241D6E025017201E6E20EE04F0CA
:1019F0001D50D9261E50DA22DE50DE10DE10DE1019
:101A0000D8B405EF0DF007EF0DF03BEF0DF020EE31
:101A100004F01D50D9261E50DA22DE06000EDE5AD2
:101A2000DE5ADE5A20EE04F01D50D9261E50DA226E
:101A3000DE50DE10DE10DE10D8A421EF0DF023EF13
:101A40000DF03BEF0DF01F500C0D4B0EF324D96E33
:101A5000010EF420DA6EDF5066EC21F0FE0E016E0E
:101A60001F500C0D4B0EF324D96E010EF420DA6ECC
:101A7000DF50C6EC20F0010E2024016E026A000E39
:101A8000022220EE06F02150D9262250DA22DF5021
:101A9000166E1650036E046AEFEC13F00150206EC0
:101AA0001C502018D8A457EF0DF059EF0DF0E0EFBF
:101AB0000CF01200000E0001716F67BF64EF0DF0B3
:101AC00062EF0DF076EF0DF0671F661F651F641F54
:101AD000631F621F611F606D000E61236223632319
:101AE0006423652366236723010E716F6FBF7DEF4B
:101AF0000DF07BEF0DF08DEF0DF06F1F6E1F6D1F62
:101B00006C1F6B1F6A1F691F686D000E69236A23B3
:101B10006B236C236D236E236F23685169116A1147
:101B20006B116C116D116E116F11D8B49AEF0DF02D
:101B30009CEF0DF0E4EF0DF0010E706FAAEF0DF0C9
:101B4000D890683769376A376B376C376D376E37BF
:101B50006F37702B6FAFAFEF0DF0B1EF0DF0A0EF5F
:101B60000DF06851605D695161596A5162596B515C
:101B700063596C5164596D5165596E5166596F5175
:101B80006759D8A0C6EF0DF0C8EF0DF0D8EF0DF0F3
:101B90006851605F6951615B6A51625B6B51635B65
:101BA0006C51645B6D51655B6E51665B6F51675B39
:101BB000D8906F336E336D336C336B336A33693364
:101BC0006833702FB1EF0DF07151D8B4EAEF0DF01A
:101BD000ECEF0DF0FCEF0DF0671F661F651F641F33
:101BE000631F621F611F606D000E61236223632308
:101BF000642365236623672360C060F061C061F0E1
:101C000062C062F063C063F064C064F065C065F0F8
:101C100066C066F067C067F012000001E7BF19EF09
:101C20000EF0E75108E1E605D8A019EF0EF01BEF22
:101C30000EF062EF0EF0E607D8A0E707E651E711D5
:101C4000D8A425EF0EF027EF0EF097EF0EF0000E60
:101C5000D8EC12F0030ED8EC12F0020ED8EC12F011
:101C6000010ED8EC12F00001E44BE52B9C0ED26F74
:101C7000010ED36F020ED227000ED323D890E43585
:101C8000D96EE535DA6ED890D936DA36D251D92602
:101C9000D351DA22DECF60F0DDCF61F0000E636F4A
:101CA0000A0E626FB2EC11F060C0E6F061C0E7F0BE
:101CB0000001E651E711D8A460EF0EF062EF0EF0DC
:101CC00068EF0EF0120E4B6E2E0E4C6E97EF0EF06C
:101CD0009C0ED26F010ED36FD890E435D96EE535E6
:101CE000DA6ED890D936DA36D251D926D351DA22E3
:101CF0000A0EDE18DE10D8B480EF0EF082EF0EF080
:101D000097EF0EF09C0ED26F010ED36FD890E43592
:101D1000D96EE535DA6ED890D936DA36D251D92671
:101D2000D351DA22DF5037EC13F097EF0EF01200A8
:101D30000001EC51ED11D8B4A0EF0EF0A2EF0EF0BF
:101D4000A5EF0EF0EC07D8A0ED07EC51ED11D8A4EB
:101D5000ACEF0EF0AEEF0EF013EF0FF0F62BF751E5
:101D6000100D9B0E7A6FFE0E7B6FF3507A27F450A6
:101D70007B23F651040DF3507A27F4507B237AC06D
:101D8000F6FF7BC0F7FFF86A0900F52807E10900B4
:101D9000F528D8A4CEEF0EF0D0EF0EF0D6EF0EF06F
:101DA0006A0E4F6E2A0E506E13EF0FF0010E3CECD0
:101DB00021F00001F751100D9B0E7A6FFE0E7B6F24
:101DC000F3507A27F4507B23F651040DF3507A2711
:101DD000F4507B237AC0F6FF7BC0F7FFF86A090056
:101DE000F5CF73F00A00F5CF74F0000E766F0F0E8A
:101DF000756FBEEC17F073C0ECF074C0EDF000012D
:101E0000EC51ED11D8A407EF0FF009EF0FF00FEF31
:101E10000FF06A0E4F6E330E506E13EF0FF0040E7C
:101E20004F6E200E506E1200000E00017A6F000EF1
:101E3000796F140E776F010E786FD8907935D96E5F
:101E40007A35DA6ED890D936DA367751D926785184
:101E5000DA22000EDF6E140E776F010E786F010E1E
:101E60007727000E7823D8907935D96E7A35DA6ED7
:101E7000D890D936DA367751D9267851DA22000E41
:101E8000DF6E140E776F010E786F020E7727000E4B
:101E90007823D8907935D96E7A35DA6ED890D936DC
:101EA000DA367751D9267851DA22000EDF6E794B77
:101EB0007A2B7ABF65EF0FF07A5109E1040E795D54
:101EC000D8A065EF0FF067EF0FF019EF0FF0010EDC
:101ED0000101176F020E1B6F000E1F6F030E236FA1
:101EE00085EC20F043EC21F0B60E0001696F000E86
:101EF0006A6F000E6B6F000E6C6F020E6D6F000E3E
:101F00006E6F000E6F6F000E706F000E726F000E1E
:101F1000716F02EC07F0120060C067F061C068F0FA
:101F200062C069F063C06AF000016407D8A0650769
:101F3000642906E16529D8A4A0EF0FF0A2EF0FF005
:101F4000AFEF0FF0000E616F000E606F01EF10F049
:101F5000674B682B694B6A2B6407D8A0650767C07D
:101F6000F6FF68C0F7FFF86A0800F5500009D8B41A
:101F7000BCEF0FF0BEEF0FF0EDEF0FF069C0F6FF12
:101F80006AC0F7FFF86A0800F5500009D8B4CBEF33
:101F90000FF0CDEF0FF0EDEF0FF064516511D8B4F5
:101FA000D4EF0FF0D6EF0FF0EDEF0FF067C0F6FFB4
:101FB00068C0F7FFF86A0800F5CF66F069C0F6FF61
:101FC0006AC0F7FFF86A0800F5506619D8B4EBEF5D
:101FD0000FF0EDEF0FF0A8EF0FF067C0F6FF68C04D
:101FE000F7FFF86A0800F5CF66F069C0F6FF6AC02F
:101FF000F7FFF86A0800F550665D606F616BD8A066
:10200000610712000001EC51ED11D8B40AEF10F095
:102010000CEF10F00FEF10F0EC07D8A0ED07EC512B
:10202000ED11D8A416EF10F018EF10F073EF10F0C8
:10203000000E3CEC21F00001F751100D9B0E7A6F61
:10204000FE0E7B6FF3507A27F4507B23F651040D7C
:10205000F3507A27F4507B23020E7A27000E7B235D
:102060007AC0F6FF7BC0F7FFF86A0900F550090057
:10207000F510D8A43EEF10F040EF10F046EF10F04E
:102080006A0E4F6E330E506E73EF10F0F751100D55
:102090009B0E7A6FFE0E7B6FF3507A27F4507B23F2
:1020A000F651040DF3507A27F4507B23020E7A2761
:1020B000000E7B237AC0F6FF7BC0F7FFF86A0900A9
:1020C000F5CF73F00A00F5CF74F0000E766F0F0EA7
:1020D000756FBEEC17F073C0ECF074C0EDF0300E0D
:1020E0004F6E1D0E506E1200DAEF10F041C062F01C
:1020F00042C063F0D8906237633743C064F044C095
:1021000065F06251642763516523020E6425D96E20
:10211000000E6521DA6EDECF66F0DDCF67F041C0DC
:1021200062F042C063F0D8906237633743C064F016
:1021300044C065F06251642763516523420E6425F3
:10214000D96E000E6521DA6EDECF68F0DDCF69F062
:1021500068C060F069C061F002D8B8EF10F0050007
:10216000FA6E6651FD6E6751FE6EFF6AFA501200FC
:1021700041500001626F4250636F010E415E000EDC
:10218000425A63BFCEEF10F0635106E16205D8B04A
:10219000CCEF10F0CEEF10F076EF10F043C0D9FF87
:1021A00044C0DAFFDECF43F0DDCF44F0000E426ED4
:1021B000200E416E43504410D8A4E1EF10F0E3EF3D
:1021C00010F0B8EF10F012000001D16F12EF11F013
:1021D0008C9087804CEF11F08C9287824CEF11F03D
:1021E0008A9085804CEF11F08C9487844CEF11F02D
:1021F000889283824CEF11F0889883984CEF11F00D
:102200008B9A869A4CEF11F08B9C869C4CEF11F0C8
:10221000889483944CEF11F0889683964CEF11F0DC
:102220004CEF11F00001D151CF6FD06BD051000AAB
:10223000D8B41DEF11F010EF11F0CF51000AD8B44F
:10224000ECEF10F0010AD8B4F0EF10F0030AD8B4A4
:10225000F4EF10F0010AD8B4F8EF10F0070AD8B480
:10226000E8EF10F0010AD8B4FCEF10F0030AD8B47C
:1022700000EF11F0010AD8B404EF11F00F0AD8B43E
:1022800008EF11F0010AD8B40CEF11F0030AD8B42A
:1022900010EF11F010EF11F012000001E0A153EF68
:1022A00011F055EF11F05FEF11F072C069F073C0DB
:1022B0006AF070C06BF071C06CF043EC1DF000016F
:1022C00075BF65EF11F067EF11F06DEF11F074C09D
:1022D00079F075C07AF071EF11F0000E7A6F000E90
:1022E000796F000E786F000E776F84EF11F0000E9B
:1022F000616F200E606F70C062F071C063F0E9EC36
:1023000014F00001774B782B7951775D7851800A72
:10231000766F7A51800A7659D8A091EF11F093EF39
:1023200011F077EF11F0E0B198EF11F09AEF11F0A2
:10233000A4EF11F072C069F073C06AF070C06BF066
:1023400071C06CF043EC1DF072C060F073C061F0BE
:1023500009EC1CF0000179516025706F7A51612100
:10236000716F1200000E0001656F63BFBCEF11F0CA
:10237000BAEF11F0C2EF11F0626D631FD8B0632B9A
:10238000010E656F61BFC9EF11F0C7EF11F0CFEF1C
:1023900011F0606D611FD8B0612B010E651B000E3E
:1023A000676F000E666F62516311D8B4DAEF11F0F7
:1023B000DCEF11F004EF12F0010E646FE4EF11F0A6
:1023C000D89062376337642B63AFE9EF11F0EBEF1E
:1023D00011F0E0EF11F0D890663767376251605D19
:1023E00063516159D8A0F7EF11F0F9EF11F0FEEF4A
:1023F00011F06251605F6351615B6681D890633315
:102400006233642FEBEF11F06551D8B40AEF12F08C
:102410000CEF12F010EF12F0666D671FD8B0672B4B
:1024200066C060F067C061F01200000E066E04BE68
:102430001EEF12F01CEF12F024EF12F0036C041EDA
:10244000D8B0042A010E066E02BE2BEF12F029EF5F
:1024500012F031EF12F0016C021ED8B0022A010E08
:10246000061A000E086E000E076E03500410D8B452
:102470003CEF12F03EEF12F066EF12F0010E056E27
:1024800046EF12F0D89003360436052A04AE4BEF1F
:1024900012F04DEF12F042EF12F0D89007360836E6
:1024A0000350015C04500258D8A059EF12F05BEFC2
:1024B00012F060EF12F00350015E0450025A0780E0
:1024C000D89004320332052E4DEF12F00650D8B4E6
:1024D0006CEF12F06EEF12F072EF12F0076C081E44
:1024E000D8B0082A07C001F008C002F01200040E9C
:1024F0000001F0657EEF12F080EF12F086EF12F02F
:10250000000E616F5C0E606F33EC21F00001F05142
:102510000C0D400EF324D96E010EF420DA6E62C069
:10252000DEFF63C0DDFFF0510C0D440EF324D96EC5
:10253000010EF420DA6E010EDF6EF0510C0D450E27
:10254000F324D96E010EF420DA6E000EDF6EF05126
:102550000C0D460EF324D96E010EF420DA6E64C021
:10256000DFFFF0510C0D420EF324D96E010EF42062
:10257000DA6E65C0DEFF66C0DDFFF0510C0D4A0E5D
:10258000F324D96E010EF420DA6E67C0DFFFD2ECBF
:102590001CF00001686FF0510C0D4B0EF324D96E46
:1025A000010EF420DA6E68C0DFFFF02BF005120098
:1025B0000001D16FFCEF12F0878036EF13F08782B5
:1025C00036EF13F0858036EF13F0878436EF13F083
:1025D000838236EF13F0839836EF13F0869A36EF46
:1025E00013F0869C36EF13F0839436EF13F0839646
:1025F00036EF13F036EF13F00001D151CF6FD06BEF
:10260000D051000AD8B407EF13F0FAEF12F0CF510F
:10261000000AD8B4DFEF12F0010AD8B4E2EF12F0EA
:10262000030AD8B4E5EF12F0010AD8B4E8EF12F0CB
:10263000070AD8B4DCEF12F0010AD8B4EBEF12F0BD
:10264000030AD8B4EEEF12F0010AD8B4F1EF12F099
:102650000F0AD8B4F4EF12F0010AD8B4F7EF12F071
:10266000030AD8B4FAEF12F0FAEF12F012000001E8
:10267000D16F5BEF13F0879095EF13F0879295EF92
:1026800013F0859095EF13F0879495EF13F08392F4
:1026900095EF13F0838895EF13F0868A95EF13F08A
:1026A000868C95EF13F0838495EF13F0838695EF76
:1026B00013F095EF13F00001D151CF6FD06BD051D3
:1026C000000AD8B466EF13F059EF13F0CF51000AA7
:1026D000D8B43EEF13F0010AD8B441EF13F0030A67
:1026E000D8B444EF13F0010AD8B447EF13F0070A47
:1026F000D8B43BEF13F0010AD8B44AEF13F0030A41
:10270000D8B44DEF13F0010AD8B450EF13F00F0A0C
:10271000D8B453EF13F0010AD8B456EF13F0030AFC
:10272000D8B459EF13F059EF13F01200000E000166
:10273000F06F000E606F60510C0D400EF324D96EE7
:10274000010EF420DA6E000EDE6E000EDD6E6051BA
:102750000C0D440EF324D96E010EF420DA6E000E37
:10276000DF6E60510C0D450EF324D96E010EF4207E
:10277000DA6E000EDF6E60510C0D460EF324D96E3A
:10278000010EF420DA6E000EDF6E60510C0D420E69
:10279000F324D96E010EF420DA6E000EDE6E000E08
:1027A000DD6E60510C0D4A0EF324D96E010EF4203B
:1027B000DA6E000EDF6E60510C0D4B0EF324D96EF5
:1027C000010EF420DA6E000EDF6E602B040E6065E1
:1027D000ECEF13F0EEEF13F09BEF13F01200000E8E
:1027E000066E02BEF8EF13F0F6EF13F0FEEF13F0F3
:1027F000016C021ED8B0022A010E066E04BE05EF5F
:1028000014F003EF14F009EF14F0036C041ED8B0B9
:10281000042A03500410D8B410EF14F012EF14F08F
:1028200036EF14F0010E056E1AEF14F0D89003364F
:102830000436052A04AE1FEF14F021EF14F016EF52
:1028400014F00350015C04500258D8A02AEF14F091
:102850002CEF14F030EF14F00350015E0450025AD4
:10286000D89004320332052E21EF14F00650D8B46C
:102870003CEF14F03EEF14F042EF14F0016C021E36
:10288000D8B0022A01C001F002C002F0120000011B
:10289000626F7AEF14F08EA250EF14F053EF14F041
:1028A000010E54EF14F0000E9CEF14F08EA85BEFB5
:1028B00014F05EEF14F0010E5FEF14F0000E9CEFC9
:1028C00014F08EA666EF14F069EF14F0010E6AEFB3
:1028D00014F0000E9CEF14F08EA471EF14F074EF5E
:1028E00014F0010E75EF14F0000E9CEF14F0000EC2
:1028F0009CEF14F000016251606F616B6151000A3E
:10290000D8B485EF14F077EF14F06051000AD8B412
:102910004BEF14F0010AD8B461EF14F0030AD8B4F5
:1029200056EF14F0010AD8B46CEF14F0070AD8B4CB
:1029300077EF14F077EF14F012000001FD512CEC4A
:1029400020F060C0D8F061C0D9F0D1EF14F00EECE7
:102950001EF00001F46F02D8B7EF14F00500FA6E14
:102960004B50FD6E4C50FE6EFF6AFA501200000E86
:102970000001626F0A0E636F000E646F000E656FD8
:10298000000E666FFD51C4EC15F0000E0001616F82
:10299000F30E606FFD511CEC20F00001FD69E8EFC3
:1029A00014F0D8C0D6F0D9C0D7F00001D751000A32
:1029B000D8B4DDEF14F0E8EF14F0D651000AD8B423
:1029C000A7EF14F0F30AD8B4A7EF14F0E8EF14F06F
:1029D0001200000162516311D8B4F1EF14F0F3EF6B
:1029E00014F0FCEF14F062516311D8A4FAEF14F064
:1029F000FCEF14F001EF15F06051A9EC21F034EF79
:102A000015F020EE09F06251D9266351DA22DE502A
:102A1000DE10D8B40EEF15F010EF15F02BEF15F017
:102A200020EE09F06251D9266351DA2210EE03F04C
:102A30006251E1266351E222DE50E65CE650800AF4
:102A4000686FDE50800A6859D8B029EF15F02BEF77
:102A500015F034EF15F020EE03F06251D9266351E2
:102A6000DA22DE2A000EDD2212005950D8B43BEFE4
:102A700015F03DEF15F07FEF15F0000E596E010EC9
:102A80000001F66F010E3CEC21F00001F751100D32
:102A90009B0E7A6FFE0E7B6FF3507A27F4507B23E8
:102AA000F651040DF3507A27F4507B237AC0F6FFD9
:102AB0007BC0F7FFF86A0900F5CF73F00A00F5CF85
:102AC00074F0000E766F0F0E756FBEEC17F073C0CA
:102AD000ECF074C0EDF00001EC51ED11D8A473EFEF
:102AE00015F075EF15F07BEF15F06A0E4F6E330E93
:102AF000506E7FEF15F0040E4F6E200E506E1200D8
:102B0000000160516111D8A488EF15F08AEF15F02B
:102B10008CEF15F0C3EF15F06105D8B092EF15F00A
:102B200094EF15F0A4EF15F0000E686F99EF15F013
:102B3000682B6051685DD8A0A0EF15F0A2EF15F0EA
:102B400098EF15F0C3EF15F0000E676F000E666F7B
:102B5000ACEF15F0664B672BE00E626FFF0E636FF4
:102B600060C064F061C065F0625164276351652301
:102B70006451665D65516759D8A0C1EF15F0C3EF88
:102B800015F0AAEF15F012000001676F0001EE5179
:102B9000675DD8A0CEEF15F0D0EF15F0D6EF15F0A9
:102BA000020E616F300E606F33EC21F00001635153
:102BB000641165116611D8A4E0EF15F0E2EF15F08D
:102BC000E8EF15F0020E616F310E606F33EC21F00B
:102BD00000016751170D130EF324D96E020EF42075
:102BE000DA6E62C0DFFF6751170D070EF324D96E4E
:102BF000020EF420DA6E63C0DEFF64C0DEFF65C043
:102C0000DEFF66C0DEFF67515BEC20F012000001C2
:102C1000FD512CEC20F060C06AF061C06BF02AEF2F
:102C200016F0000E626F140E636F000E646F000EDC
:102C3000656F000E666FFD51C4EC15F0010E0001CA
:102C4000616F160E606FFD511CEC20F00001FD69F4
:102C500048EF16F06AC068F06BC069F00001695176
:102C6000000AD8B43AEF16F0010AD8B441EF16F0D2
:102C700048EF16F06851000AD8B411EF16F048EF8B
:102C800016F06851160AD8B411EF16F048EF16F096
:102C90001200000161696269000E666F7FEF16F035
:102CA0006651170D000EF324636F020EF420646F5B
:102CB00020EE0CF06351D9266451DA22DF50656FA3
:102CC00020EE02F06351D9266451DA22DF50606FA2
:102CD000050E6019D8A46FEF16F071EF16F07EEFB5
:102CE00016F06251655DD8B078EF16F07AEF16F005
:102CF0007EEF16F065C062F066C061F0662BEE51A3
:102D00006619D8A486EF16F088EF16F050EF16F08B
:102D100061511200000E0001E56F000EE46F9C0E81
:102D2000D26F010ED36F020ED227000ED323D8909C
:102D3000E435D96EE535DA6ED890D936DA36D25127
:102D4000D926D351DA22DECF60F0DDCF61F0000E5C
:102D5000636F0A0E626FB2EC11F060C0E6F061C002
:102D6000E7F09C0E0001D26F010ED36FD890E435CE
:102D7000D96EE535DA6ED890D936DA36D251D92601
:102D8000D351DA22DF5037EC13F01A0E4B6E1C0EC3
:102D90004C6E1200CE0EF66E3A0EF76E000EF86E06
:102DA00001EE9CF010EE47F00900F5CFEEFFE55084
:102DB000E150FAE14E0EF66E430EF76E000EF86E1D
:102DC0000900F5CF5CF00900F5CF5DF003EE00F0EF
:102DD000B40EEE6AE806FDE102EE00F0E60EEE6AE1
:102DE000E806FDE101EE00F09C0EEE6AE806FDE16A
:102DF00000EEE0F01D0EEE6AE806FDE100EE35F0B3
:102E0000270EEE6AE806FDE15F905F920001E2EFB7
:102E10001EF00001EBBF16EF17F0EB5109E1330E86
:102E2000EA5DD8A016EF17F018EF17F01CEF17F0B7
:102E3000000EEB6F320EEA6FEA07D8A0EB07EBBF8C
:102E40002CEF17F0EB5106E1EA05D8B02AEF17F0A6
:102E50002CEF17F046EF17F0E6EC20F00009D8B49D
:102E600034EF17F036EF17F03FEF17F0040E37ECA2
:102E700013F0B80E4B6E410E4C6E46EF17F0040E79
:102E8000D8EC12F03E0E4B6E3A0E4C6E1200000162
:102E9000F4A14DEF17F04FEF17F06EEF17F0070E9C
:102EA0004FEC1FF0DDEC18F06DC073F06EC074F0E5
:102EB000000E0001766F0A0E756FBEEC17F073C03E
:102EC000E8F074C0E9F0EBEC1FF0640E4B6E300ECE
:102ED0004C6E040ED8EC12F082EF17F004EC21F0E7
:102EE0000009D8B476EF17F078EF17F07DEF17F000
:102EF000040ED8EC12F080EF17F0040E37EC13F04C
:102F000079EC1AF0120082EC19F00009D8B48BEFBA
:102F100017F08DEF17F0B8EF17F079EC1AF0000109
:102F2000EBBF9CEF17F0EB5109E1330EEA5DD8A03F
:102F30009CEF17F09EEF17F0A2EF17F0000EEB6F6B
:102F4000320EEA6FEA07D8A0EB07EBBFB2EF17F03B
:102F5000EB5106E1EA05D8B0B0EF17F0B2EF17F089
:102F6000BDEF17F0C80E4B6E3E0E4C6EBDEF17F066
:102F7000000E0001EB6F320EEA6F1200000E00012E
:102F8000786F000E776F75517611D8B4CAEF17F0CD
:102F9000CCEF17F0F4EF17F0010E796FD4EF17F0C4
:102FA000D89075377637792B76AFD9EF17F0DBEFFE
:102FB00017F0D0EF17F0D890773778377551735DE9
:102FC00076517459D8A0E7EF17F0E9EF17F0EEEF5C
:102FD00017F07551735F7651745B7781D8907633B3
:102FE0007533792FDBEF17F077C073F078C074F08A
:102FF00012000001E7BF05EF18F0E75108E1E60510
:10300000D8A005EF18F007EF18F02DEF18F0E6073D
:10301000D8A0E707E651E711D8A411EF18F013EF95
:1030200018F031EF18F0090ED8EC12F0DDEC18F0C2
:103030006DC073F06EC074F0000E0001766F0A0E62
:10304000756FBEEC17F073C0E8F074C0E9F0B80E0D
:103050004B6E360E4C6E31EF18F0C80E4B6E3E0EB6
:103060004C6E12000A0E0001F227F351020DCC0E35
:10307000F324D96E010EF420DA6EDE50F25DD8A092
:1030800044EF18F046EF18F06AEF18F0000EF26FF8
:10309000F32BF351020DCC0EF324D96E010EF42064
:1030A000DA6EDF50D8B457EF18F059EF18F066EF2A
:1030B00018F0F351020DCD0EF324D96E010EF42059
:1030C000DA6EDF5084EC1CF06AEF18F0920E4B6E53
:1030D000340E4C6E12000A0E0001F227F351020D5D
:1030E000B80EF324D96E010EF420DA6EDE50F25DD4
:1030F000D8A07DEF18F07FEF18F0A3EF18F0000EC6
:10310000F26FF32BF351020DB80EF324D96E010EBA
:10311000F420DA6EDF50D8B490EF18F092EF18F088
:103120009FEF18F0F351020DB90EF324D96E010E82
:10313000F420DA6EDF5084EC1CF0A3EF18F0180EC8
:103140004B6E400E4C6E12000001E7BFB0EF18F05E
:10315000E75108E1E605D8A0B0EF18F0B2EF18F09B
:10316000D8EF18F0E607D8A0E707E651E711D8A492
:10317000BCEF18F0BEEF18F0DCEF18F0090ED8EC39
:1031800012F0DDEC18F06DC073F06EC074F0000E3C
:103190000001766F0A0E756FBEEC17F073C0E8F091
:1031A00074C0E9F0100E4B6E370E4C6EDCEF18F069
:1031B000C80E4B6E3E0E4C6E12004AEC1EF069C0FB
:1031C0006FF06AC070F06FC060F070C061F0000E08
:1031D0000001636F060E626F78EC1FF060C071F043
:1031E00061C072F0F40E0001715D010E7259D8B029
:1031F000FCEF18F0FEEF18F002EF19F0000E726FFE
:10320000000E716F710E715D170E7259D8A00BEF21
:1032100019F00DEF19F011EF19F0170E726F700E13
:10322000716F71C06DF072C06EF0120093EC20F0FF
:10323000000E0001F56F0EEC1EF00009D8B423EF6C
:1032400019F025EF19F028EF19F0060E0001F56FBF
:10325000010E8CEC1FF0546E000E386E320E376E7D
:10326000030E3A6EE80E396ED00E0001696F090E3A
:103270006A6F000E6B6F000E6C6F030E6D6F000EA9
:103280006E6F000E6F6F000E706F000E726F000E8B
:10329000716F02EC07F012000001656F5FEF19F02B
:1032A0006251F8EC1EF081EF19F06251CBEC1EF088
:1032B00081EF19F062510EEC1FF081EF19F000015F
:1032C0006551636F646B6451000AD8B46AEF19F0FA
:1032D00081EF19F06351000AD8B450EF19F0010AD8
:1032E000D8B455EF19F0030AD8B45AEF19F0010A0F
:1032F000D8B481EF19F0070AD8B481EF19F081EF43
:1033000019F01200010E0001626F000E646F000ED2
:10331000636F140E606F010E616FD8906335D96EC4
:103320006435DA6ED890D936DA366051D9266151D3
:10333000DA22DF50D8B49FEF19F0A1EF19F0A3EF14
:1033400019F0000E626F634B642B64BFB1EF19F08C
:10335000645109E1040E635DD8A0B1EF19F0B3EF39
:1033600019F089EF19F062511200000E3CEC21F0C7
:103370000001F751100D9B0E7A6FFE0E7B6FF3501C
:103380007A27F4507B23F651040DF3507A27F4503A
:103390007B23020E7A27000E7B237AC0F6FF7BC0C8
:1033A000F7FFF86A0900F5CF73F00A00F5CF74F063
:1033B000000E766F0F0E756FBEEC17F073C0ECF059
:1033C00074C0EDF0CA0E4F6E3C0E506E1200B5C0C8
:1033D000B9F0B6C0BAF0000E3C6E000E3B6E05EFC1
:1033E0001AF0B3C09FF0B4C0A0F0B90E0001A16FF5
:1033F000000EA26FB7C0A3F0B8C0A4F08CEC03F02D
:1034000000019F513B26A0513C22B9C0F6FFBAC033
:10341000F7FFF86A0800F5500009D8A412EF1AF077
:1034200014EF1AF0F1EF19F03BC0B3F03CC0B4F068
:1034300012000001E7BF25EF1AF0E75108E1E605A9
:10344000D8A025EF1AF027EF1AF044EF1AF0E6079C
:10345000D8A0E707E651E711D8A431EF1AF033EF0F
:103460001AF048EF1AF0080E4FEC1FF0090E37EC77
:1034700013F0000E0001E76F0A0EE66FF20E4B6EBE
:103480002F0E4C6E48EF1AF0C80E4B6E3E0E4C6E6F
:1034900012000001F4A14FEF1AF051EF1AF071EF92
:1034A0001AF0E851E911D8B458EF1AF05AEF1AF0AF
:1034B0005DEF1AF0E807D8A0E907E851E911D8A4B0
:1034C00064EF1AF066EF1AF078EF1AF0010E4FEC85
:1034D0001FF0DAEC1FF0D60E4B6E300E4C6E78EF0C
:1034E0001AF0040ED8EC12F03E0E4B6E3A0E4C6EF3
:1034F0001200000E0001666F030EA0EC20F0000920
:10350000D8B485EF1AF087EF1AF093EF1AF0FAECBF
:1035100020F0E806D8A48FEF1AF091EF1AF093EF9D
:103520001AF09CEF1AF000016651A0EC20F00001A7
:10353000626F66514CEC19F00001662B030E666554
:10354000A4EF1AF0A6EF1AF07CEF1AF01200036E47
:10355000010E046E010E056E05060350170D000ED8
:10356000016E020E026E140E0126000E0222F350AE
:103570000126F450022205500124D96E000E0220CB
:10358000DA6EDF50D8B4C7EF1AF0C9EF1AF0CBEFFC
:103590001AF0000E046E0550D8A4D1EF1AF0D3EF44
:1035A0001AF0ACEF1AF0045012000001E7BFE1EF8F
:1035B0001AF0E75108E1E605D8A0E1EF1AF0E3EFD1
:1035C0001AF0FDEF1AF0E607D8A0E707E651E71179
:1035D000D8A4EDEF1AF0EFEF1AF001EF1BF0090E8F
:1035E000D8EC12F0000E0001E76F140EE66F320EF9
:1035F0004B6E340E4C6E01EF1BF0C80E4B6E3E0E40
:103600004C6E12000001F4A108EF1BF00AEF1BF052
:103610002AEF1BF0E851E911D8B411EF1BF013EFBA
:103620001BF016EF1BF0E807D8A0E907E851E911F5
:10363000D8A41DEF1BF01FEF1BF02EEF1BF0010EA7
:103640004FEC1FF0DAEC1FF0D60E4B6E300E4C6EC6
:103650002EEF1BF0C80E4B6E3E0E4C6E120000019A
:10366000626F00016251170D000EF324636F020EAA
:10367000F420646F20EE12F06351D9266451DA22EF
:10368000000EDF6E010E656F650765516325606F83
:10369000000E6421616F140E6025D96E000E612149
:1036A000DA6E000EDF6E6551D8A459EF1BF05BEFA8
:1036B0001BF044EF1BF012000001F4A362EF1BF0BB
:1036C00064EF1BF083EF1BF0E851E911D8B46BEF06
:1036D0001BF06DEF1BF072EF1BF0E807D8A0E907B5
:1036E00087EF1BF0050E4FEC1FF0010E0001E76F96
:1036F0002C0EE66F090E37EC13F0160E4B6E3B0ED8
:103700004C6E87EF1BF0C80E4B6E3E0E4C6E1200D7
:103710000001F4A38EEF1BF090EF1BF0AFEF1BF056
:10372000E851E911D8B497EF1BF099EF1BF09EEF29
:103730001BF0E807D8A0E907B3EF1BF0080E4FEC29
:103740001FF0000E0001E76F0A0EE66F090E37EC5E
:1037500013F0AA0E4B6E350E4C6EB3EF1BF0C80E75
:103760004B6E3E0E4C6E1200036E0350170D000E92
:10377000F324046E020EF420056E20EE12F00450C5
:10378000D9260550DA22000EDF6E010E066E0606FF
:1037900006500424016E000E0520026E140E012452
:1037A000D96E000E0220DA6E000EDF6E0650D8A42D
:1037B000DCEF1BF0DEEF1BF0C7EF1BF01200000187
:1037C000EE51FD5DD8A0E7EF1BF0E9EF1BF0EFEF46
:1037D0001BF0020E616FAE0E606F33EC21F0000142
:1037E000FD51170D000EF324D96E020EF420DA6E8F
:1037F000DECFDEF0DDCFDFF002D808EF1CF00500F1
:10380000FA6EDE51FD6EDF51FE6EFF6AFA50120055
:10381000120060C062F061C063F012EF1CF00001A2
:10382000604B612B60C0F6FF61C0F7FF000EF86EC1
:103830000E0EF76403D00800F55005D0F6CFE9FF6F
:10384000F7CFEAFFEF500009D8A429EF1CF02BEFC7
:103850001CF00FEF1CF000016251605D606F63515E
:103860006159616F12000001636F090E0001EF657D
:103870003CEF1CF03EEF1CF044EF1CF0000E616FBB
:10388000400E606F33EC21F00001EF51020D000E8D
:10389000F324D96E010EF420DA6E63C0DFFFEF511E
:1038A000020D010EF324D96E010EF420DA6E62C00F
:1038B000DFFFEF2BEF051200E2C065F0E3C066F01A
:1038C00060C0D9FF61C0DAFFDECF63F0DDCF64F006
:1038D00000016351655D676F64516659686F62519D
:1038E000D8B475EF1CF077EF1CF07FEF1CF060C0D0
:1038F000D9FF61C0DAFFE2C0DEFFE3C0DDFF67C0D1
:1039000060F068C061F012000001666F000E0001F7
:10391000686F000E676F6605D8B491EF1CF094EFE6
:103920001CF0010E95EF1CF0000E626F67514CEC1D
:1039300019F00001674B682B68BFA8EF1CF06851B5
:1039400009E1040E675DD8A0A8EF1CF0AAEF1CF0F7
:103950008BEF1CF012006DEC21F0010E8CEC1FF0CF
:10396000566E0C0E0001F86F000E596E6A0E4F6E07
:103970002A0E506EE40E696F0F0E6A6F000E6B6FA9
:10398000000E6C6F050E6D6F000E6E6F000E6F6F88
:10399000000E706F000E726F000E716F02EC07F078
:1039A0005A6E1200180E0001F165D9EF1CF0DBEF22
:1039B0001CF0E1EF1CF0000E616F570E606F33ECEE
:1039C00021F00001F151020D000EF324D96E030E17
:1039D000F420DA6EF1C0DFFFF151020D010EF32485
:1039E000D96E030EF420DA6EFF0EDF6EF12BF105B7
:1039F00012008EA0FEEF1CF001EF1DF0010E02EF91
:103A00001DF0000E0001616FFAEC20F00009D8B43F
:103A10000CEF1DF00EEF1DF01CEF1DF0030EA0ECDF
:103A200020F00009D8B417EF1DF019EF1DF01CEFBE
:103A30001DF0010E0001616F0001615112000001D3
:103A4000F4A125EF1DF027EF1DF042EF1DF0080E49
:103A50004FEC1FF0040E37EC13F0DDEC18F06DC0E6
:103A600073F06EC074F0000E0001766F0A0E756F71
:103A7000BEEC17F073C0E8F074C0E9F0040E4B6EB2
:103A8000360E4C6E1200000E00016F6F000E6E6F4E
:103A900056EF1DF06DC060F0616B6BC062F06CC0E2
:103AA00063F0E9EC14F000016E4B6F2B6E51692549
:103AB000D96E6F516A21DA6EDF506D6F6D51D8A4E7
:103AC00064EF1DF066EF1DF04AEF1DF012000A00D2
:103AD0005E0100005E010A00C80000005E010A00ED
:103AE000C800010064000A00000064000A010A0026
:103AF0000A010A0032013200320132000000640083
:103B00000A010A000A010A00320132000000286E90
:103B1000756C6C2900000001E7BF97EF1DF0E751BD
:103B200008E1E605D8A097EF1DF099EF1DF0A8EF8A
:103B30001DF0E607D8A0E707E651E711D8A4A3EFE8
:103B40001DF0A5EF1DF0ACEF1DF0090ED8EC12F042
:103B5000C80E4B6E3E0E4C6E1200000E0001EB6F55
:103B6000640EEA6F140E4B6E2D0E4C6E3A0E696F9A
:103B7000290E6A6F000E6B6F000E6C6F060E6D6F74
:103B8000000E6E6F000E6F6F000E706F000E726F82
:103B9000000E716F02EC07F0526E1200000173BF4D
:103BA000DCEF1DF0735106E17205D8B0DAEF1DF0BD
:103BB000DCEF1DF0EAEF1DF072C074F073C075F019
:103BC000741F751F744B752B74C072F075C073F041
:103BD000EEEF1DF072C072F073C073F01200000EB1
:103BE000E4EC10F0010EE4EC10F0020EE4EC10F046
:103BF000030EE4EC10F0040EE4EC10F0050EE4EC1F
:103C000010F0060EE4EC10F0070EE4EC10F0080ED5
:103C1000E4EC10F0090EE4EC10F01200000E0001CC
:103C2000626FF0EC20F00009D8B419EF1EF01BEF22
:103C30001EF01DEF1EF000016281F9EC1CF000097E
:103C4000D8B425EF1EF027EF1EF029EF1EF000017B
:103C500062830001625112000F011181609860843B
:103C6000609CF80E5A17FC0E581758995751C00B04
:103C70000709576F000E5E6F040E5C6FE00E5D1754
:103C8000000E666E000E676E000E736E000E726E92
:103C9000608E1200C00E0F015F17000E0001616FF1
:103CA000020E606F80EC15F0608060B05AEF1EF07D
:103CB0005CEF1EF055EF1EF06450030B00016B6FBC
:103CC0006350696F6BC06AF012000001EC51ED1196
:103CD000D8B46DEF1EF06FEF1EF072EF1EF0EC0720
:103CE000D8A0ED07EC51ED11D8A479EF1EF07BEFD1
:103CF0001EF07FEF1EF06A0E4F6E2A0E506E1200FD
:103D00003B0E0001BB6FFF0EBC6FC7C0BDF0C8C04B
:103D1000BEF0C9C0BFF0CAC0C0F0CDC0C1F0CEC0B7
:103D2000C2F0CBC0C3F0CCC0C4F0A0EC1FF05FEC7D
:103D300021F01200000E0001F96F0E0E696F2C0EBB
:103D40006A6F000E6B6F000E6C6F000E6D6F000ED1
:103D50006E6F000E6F6F000E706F000E726F000EB0
:103D6000716F02EC07F012000001626F0001EE516A
:103D7000625DD8A0BEEF1EF0C0EF1EF0C6EF1EF0D1
:103D8000010E616FFD0E606F33EC21F00001625196
:103D900069EC20F012000001616F00016151D8B49C
:103DA000D4EF1EF0D8EF1EF0606B602BDAEF1EF040
:103DB0000001606B60336033865060197F0B6019BF
:103DC000866E120077EC20F078EC21F0EFEC1DF01D
:103DD0002CEC1EF0ABEC1CF016EC19F014EC0FF010
:103DE000ADEC1DF09AEC1EF018EC21F059EF00F04C
:103DF0000001616F00016151D8B401EF1FF005EFC0
:103E00001FF0606B602B07EF1FF00001606B6047D5
:103E100086506019FD0B6019866E12000001616FFB
:103E200000016151D8B417EF1FF01BEF1FF0606B5A
:103E3000602B1DEF1FF00001606B603B8650601926
:103E4000EF0B6019866E12000001616F0001615175
:103E5000D8B42DEF1FF031EF1FF0606B602B33EF04
:103E60001FF00001606B604785506019FD0B601901
:103E7000856E12000001FD6949EC16F00001FD6F2E
:103E8000FD29D8B446EF1FF048EF1FF04CEF1FF0AC
:103E9000DFEC1BF04EEF1FF0A8EC21F01200000148
:103EA000606F6A0E4F1809E12A0E5018D8B45BEF04
:103EB0001FF05DEF1FF061EF1FF05A0E4F6E410EC5
:103EC000506E60C0F8F01200040E37EC13F0F4C02E
:103ED000D2F0030E0001D217D8A471EF1FF073EFD8
:103EE0001FF077EF1FF0FC0E4B6E0B0E4C6E1200A6
:103EF000000160516203F3CF64F0F4CF65F06051CC
:103F00006303F350652761516203F350652764C072
:103F100060F065C061F012000001646F000164513F
:103F2000D8A495EF1FF098EF1FF0010E99EF1FF046
:103F3000000E646F64C062F0010E33EC1CF01200DE
:103F4000BD0E0001C56F000EC66F000EB36F000EF0
:103F5000B46FBBC0B5F0BCC0B6F0C50EB76F000EF5
:103F6000B86FE7EC19F01200BF50F00B0109BF6EFB
:103F7000E00EBE16BD508F0B4009BD6EF00EBD1693
:103F80009C0EBC6E0E01BE93C683BD8E1200015006
:103F90000302F3CF05F0F4CF06F001500402F35012
:103FA000062602500302F350062605C001F006C0A3
:103FB00002F01200000E0001F36F000EF26FF351D9
:103FC000020DB90EF324D96E010EF420DA6EDF5023
:103FD00084EC1CF01200000E0001F36F000EF26F73
:103FE000F351020DCD0EF324D96E010EF420DA6EDA
:103FF000DF5084EC1CF0120062C060F063C061F01E
:1040000021EC21F0000120EE02F06251D92663512B
:10401000DA22010EDF6E12000001F4B112EF20F07F
:1040200014EF20F01BEF20F0040E37EC13F08E0E8F
:104030004B6E2E0E4C6E12000001626F0001625139
:10404000170D050EF324D96E020EF420DA6E60C04F
:10405000DEFF61C0DDFF12000001626F00016251EE
:10406000170D050EF324D96E020EF420DA6EDECFA2
:1040700060F0DDCF61F012004CEC20F00009D8A414
:1040800044EF20F046EF20F049EF20F0000E4BEF18
:1040900020F09DEC21F012003E0E4B1807E13A0E85
:1040A0004C18D8A456EF20F059EF20F0010E5AEF2B
:1040B00020F0000E12000001606F00016051170D2A
:1040C000020EF324D96E020EF420DA6E020EDF6EB9
:1040D00012000001606F00016051170D020EF32401
:1040E000D96E020EF420DA6E070EDF6E12000001A8
:1040F000FD695E68000E516E91EC21F095EC21F0A7
:1041000096EC13F0F0EC0BF0120089820F0119937A
:104110001593898419951595898619971597898816
:104120001999159912007DEC21F08DEC21F073ECBA
:1041300021F089EC21F085EC21F081EC21F01200D6
:104140000001606F00016051040D150EF324D96E5B
:10415000010EF420DA6EDF501200000E3CEC21F06C
:10416000000E0001ED6F210EEC6FCA0E4F6E3C0E7B
:10417000506E1200016E0150170D020EF324D96E1D
:10418000020EF420DA6E050EDF6E1200026E02508F
:10419000020D010EF324D96E030EF420DA6E01C075
:1041A000DFFF1200000120EE02F06051D9266151BC
:1041B000DA22000EDF6E1200000E0001EB6F320EED
:1041C000EA6F060E4B6E2F0E4C6E12008FA8EBEFAF
:1041D00020F0EEEF20F0010EEFEF20F0000E1200C5
:1041E0008EAEF5EF20F0F8EF20F0010EF9EF20F0A1
:1041F000000E120090A4FFEF20F002EF21F0010E5C
:1042000003EF21F0000E12008FAA09EF21F00CEF4E
:1042100021F0010E0DEF21F0000E120090A613EF19
:1042200021F016EF21F0010E17EF21F0000E120021
:10423000010E516EF28CF28E3AEC1FF01CEF21F061
:10424000120060C0D9FF61C0DAFFE2C0DEFFE3C048
:10425000DDFF120074EC10F06AC060F06BC061F01A
:10426000A0EC21F01200F29CF29E60C049F061C007
:104270004AF039EF21F012000001626F0001625133
:1042800024EC1FF0120051EC21F04AEC21F058EC24
:1042900021F012008B9E0F01269F000ECBEC1EF02A
:1042A00012008B920F012693000EF8EC1EF0120004
:1042B0008B980F012699000E0EEC1FF01200FF0ED6
:1042C00000016B6F6A692AEC21F01200156E15C0AF
:1042D0005CF015502CEC0BF012008B868A92000ECD
:1042E00024EC1FF012008A8A0F01219B208B120000
:1042F000B4EC1FF0F28AF28C12000F01199F188F94
:1043000012008B860F01269712008A880F012199CF
:1043100012008B840F01269512000F01199118814C
:104320001200000E0001EF6F1200000E0001F16F8D
:1043300012000001E24BE32B12000EEC21F0120000
:10434000A0EF21F01200515012005F921100FF0106
:10435000120012001200FF00FF00FF00FF00FF002C
:10436000FF00FF00FF00FF00FF00FF00FF00FF0055
:10437000FF00FF00FF00FF00FF00FF00FF00FF0045
:10438000FF00FF00FF00FF00FF00FF00FF00FF0035
:10439000FF00FF00FF00FF00FF00FF00FF00FF0025
:10FE9000FF00FF00FF00FF00FF00000B000100005B
:10FEA000003200FFFF00000000000006000000C854
:10FEB000000000FFFF00000000000001000000D073
:10FEC000073200FFFF0000000000000000000000FB
:10FED000003200FFFF0000000000000700000032B9
:10FEE00000960032003200FFFF00000800000064AE
:10FEF000000000FFFF00000000000005000000B847
:10FF00000B0000FFFF0000000000000C00000000DC
:10FF100000000000000000000000000C00000000D5
:10FF200000000000000000000000000C00000000C5
:10FF300000000000000000000000004173736572C3
:10FF400074696F6E206661696C65643A2025732060
:10FF50002825733A2025733A202564290A00627304
:10FF6000702F5843382F67656E6572616C5F6F75CF
:10FF7000747075745F6374726C5F6273702E63006B
:10FF800047656E4F75744374726C4273705F53654E
:10FF900074496E6163746976650047656E4F757468
:10FFA0004374726C4273705F536574416374697615
:10FFB000650047656E4F75744374726C4273705F71
:10FFC00044697361626C650047656E4F7574437474
:10FFD000726C4273705F456E61626C650047656E5E
:10FFE0004F75744374726C4273705F546F67676CC3
:10FFF00065007265745F76616C006C6C7300000064
:020000040020DA
:10000000FF0FFF0FFF0FFF0FFF0FFF0FFF0FFF0F80
:020000040030CA
:0C000000FADFFDF79FFFFFCFFFFFFFFFBF
:00000001FF
