:1000000059EF00F0FF00FF005F82B6EF21F0FF0024
:10001000FF00FF00FF00FF005F80D8CF2EF0E8CF89
:100020002FF0E0CF30F0D9CF31F0DACF32F0F3CF8C
:1000300033F0F4CF34F00E01CEA321EF00F023EF24
:1000400000F049EF00F0CE93AAEC21F0010E01017F
:100050003C27000E3D233E233F235D50D8B433EFB1
:1000600000F035EF00F049EF00F03CC123F03DC156
:1000700024F03EC125F03FC126F0000EB4EC09F09B
:10008000000E01013C6F000E3D6F000E3E6F000E32
:100090003F6F34C0F4FF33C0F3FF32C0DAFF31C02A
:1000A000D9FF30C0E0FF2FC0E8FF2EC0D8FF5F901F
:1000B0001000DDEF16F00001FD5134EC20F060C0BF
:1000C000D8F061C0D9F002EF02F0000EDB6F000E35
:1000D000DA6F140ED26F010ED36FD890DA35D96E65
:1000E000DB35DA6ED890D936DA36D251D926D351EB
:1000F000DA22DA515AEC14F0DF6E0001DA4BDB2B16
:10010000DBBF8CEF00F0DB5109E1040EDA5DD8A013
:100110008CEF00F08EEF00F069EF00F001011C5150
:10012000D8B495EF00F097EF00F0A3EF00F0205166
:10013000D8B49DEF00F09FEF00F0A3EF00F0000EA9
:100140001C6F000E206F1451D8B4A9EF00F0ABEF74
:1001500000F0B7EF00F01851D8B4B1EF00F0B3EFF2
:1001600000F0B7EF00F0000E146F000E186F000ED5
:100170000001DD6F000EDC6F140ED26F010ED36F25
:10018000010ED227000ED323D890DC35D96EDD3591
:10019000DA6ED890D936DA36D251D926D351DA224E
:1001A000140ED56F010ED66FD890DC35E16EDD35BB
:1001B000E26ED890E136E236D551E126D651E22200
:1001C000DE50E618D8B4E7EF00F0E9EF00F027EFD3
:1001D00001F0140ED26F010ED36F020ED227000E63
:1001E000D323D890DC35D96EDD35DA6ED890D93688
:1001F000DA36D251D926D351DA22000EDF6E140E30
:10020000D26F010ED36FD890DC35D96EDD35DA6E42
:10021000D890D936DA36D251D926D351DA22140EF3
:10022000D46F010ED56F010ED427000ED523D890C0
:10023000DC35E16EDD35E26ED890E136E236D45140
:10024000E126D551E222DFCFE7FFD9EF01F0140E0E
:10025000D26F010ED36F020ED227000ED323D89097
:10026000DC35D96EDD35DA6ED890D936DA36D25132
:10027000D926D351DA22DF2A140ED26F010ED36FA2
:10028000020ED227000ED323D890DC35D96EDD358F
:10029000DA6ED890D936DA36D251D926D351DA224D
:1002A000030EDE18D8A457EF01F059EF01F0A4EFC8
:1002B00001F0140ED26F010ED36FD890DC35D96ED9
:1002C000DD35DA6ED890D936DA36D251D926D35107
:1002D000DA22DF50D8B46FEF01F071EF01F08DEF4B
:1002E00001F0140ED26F010ED36F030ED227000E51
:1002F000D323D890DC35D96EDD35DA6ED890D93677
:10030000DA36D251D926D351DA22DF504AEC13F033
:100310000B0E34EC1FF0A4EF01F0140ED26F010E9F
:10032000D36F030ED227000ED323D890DC35D96EBD
:10033000DD35DA6ED890D936DA36D251D926D35196
:10034000DA22DF50EBEC12F0140E0001D26F010E36
:10035000D36F020ED227000ED323D890DC35D96E8E
:10036000DD35DA6ED890D936DA36D251D926D35166
:10037000DA22030EDF64BFEF01F0C1EF01F0FFEFFF
:1003800000F0140ED26F010ED36F020ED227000EB2
:10039000D323D890DC35D96EDD35DA6ED890D936D6
:1003A000DA36D251D926D351DA22030EDF6EFFEFAF
:1003B00000F0DC4BDD2BDDBFE7EF01F0DD5109E1A3
:1003C000040EDC5DD8A0E7EF01F0E9EF01F0BCEF2F
:1003D00000F0000E626F140E636F000E646F000E6B
:1003E000656F000E666FFD51D7EC15F0000E000131
:1003F000616FC70E606FFD5124EC20F00001FD69B4
:1004000019EF02F0D8C0D2F0D9C0D3F00001D35117
:10041000000AD8B40EEF02F019EF02F0D251000A30
:10042000D8B465EF00F0C70AD8B465EF00F019EF53
:1004300002F012007DC095F07EC096F07FC097F06C
:1004400080C098F081C099F082C09AF083C09BF080
:1004500084C09CF000019CBF30EF02F033EF02F04B
:10046000010E34EF02F0000E936F946B93519411D0
:10047000D8B43DEF02F03FEF02F04FEF02F09C1FC7
:100480009B1F9A1F991F981F971F961F956D000E0F
:1004900096239723982399239A239B239C2340BE3A
:1004A00054EF02F056EF02F057EF02F0E09340BE37
:1004B00064EF02F0405006E13F04D8B062EF02F072
:1004C00064EF02F06AEF02F0000E906F010E8F6F82
:1004D0006EEF02F03FC08FF040C090F03DC091F051
:1004E0003EC092F093519411D8A479EF02F07BEFC3
:1004F00002F082EF02F0E0A580EF02F082EF02F05E
:1005000085EF02F09107D8A09207000E9E6F1F0E94
:100510009D6F000E01019B6F0BEF03F09D07D8A0AC
:100520009E077C0E9D25D96E010E9E21DA6E95C028
:1005300060F096C061F097C062F098C063F099C017
:1005400064F09AC065F09BC066F09CC067F00A0E2C
:10055000686F000E696F000E6A6F000E6B6F000E01
:100560006C6F000E6D6F000E6E6F000E6F6F6DEC96
:100570000DF060C085F061C086F062C087F063C096
:1005800088F064C089F065C08AF066C08BF067C0EF
:100590008CF085C072F087C073F06BEC1DF0000129
:1005A0007251300FDF6E8F07D8A090079107D8A047
:1005B000920795C060F096C061F097C062F098C055
:1005C00063F099C064F09AC065F09BC066F09CC06F
:1005D00067F00A0E686F000E696F000E6A6F000EFA
:1005E0006B6F000E6C6F000E6D6F000E6E6F000E65
:1005F0006F6F7AEC0AF060C095F061C096F062C04F
:1006000097F063C098F064C099F065C09AF066C036
:100610009BF067C09CF000019EBF17EF03F09E5156
:1006200008E19D05D8A017EF03F019EF03F049EF9B
:1006300003F0955196119711981199119A119B11E8
:100640009C11D8A426EF03F028EF03F08EEF02F000
:1006500090BF35EF03F0905106E18F05D8B033EF2E
:1006600003F035EF03F08EEF02F092BF40EF03F09E
:10067000925108E19105D8A040EF03F042EF03F05A
:1006800049EF03F0E0B347EF03F049EF03F08EEFDB
:1006900002F093519411D8A450EF03F052EF03F0FD
:1006A00059EF03F0E0A557EF03F059EF03F077EFB0
:1006B00003F09D07D8A09E0793519411D8A463EF2F
:1006C00003F065EF03F06BEF03F0000E8E6F2B0E5F
:1006D0008D6F6FEF03F0000E8E6F2D0E8D6F7C0E01
:1006E0009D25D96E010E9E21DA6E8DC0DFFF7BC085
:1006F00070F07CC071F07C0E9D25726F010E9E2102
:10070000736F91C074F092C075F060EC11F070C01E
:100710007BF071C07CF01200A1C0D9FFA2C0DAFF4B
:10072000DECFF6FFDDCFF7FFF86A0800F550250AA7
:10073000D8A49DEF03F09FEF03F0CAEF04F0A1C02F
:10074000D9FFA2C0DAFFDE2A000EDD22000E3E6EC7
:10075000000E3D6E3DC0E0F03EC0E1F03F684068F5
:10076000A1C0D9FFA2C0DAFFDECFF6FFDDCFF7FFD1
:10077000F86A0800F550640AD8B4C1EF03F0C3EF7B
:1007800003F0D6EF03F0A1C0D9FFA2C0DAFFDECF9D
:10079000F6FFDDCFF7FFF86A0800F550690AD8A424
:1007A000D4EF03F0D6EF03F017EF04F0A1C0D9FFA8
:1007B000A2C0DAFFDE2A000EDD22A3C0D9FFA4C04A
:1007C000DAFFDFCFA5F0020EDE26DFCFA6F0000EA7
:1007D000DD22A5C0D9FFA6C0DAFFDECFA7F0DDCFAE
:1007E000A8F00001000EA8BFFF0EA96FAA6FAB6FA3
:1007F000AC6FAD6FAE6F9FC07BF0A0C07CF0A7C0A8
:100800007DF0A8C07EF0A9C07FF0AAC080F0ABC088
:1008100081F0ACC082F0ADC083F0AEC084F01AECC1
:1008200002F07BC09FF07CC0A0F0E7EF04F0A1C015
:10083000D9FFA2C0DAFFDECFF6FFDDCFF7FFF86AFF
:100840000800F550730AD8B428EF04F02AEF04F03A
:1008500047EF04F0A1C0D9FFA2C0DAFFDECF60F0FD
:10086000DDCF61F0FA0E0001626FFF0E636F000EC4
:10087000656F030E646F9FEC0FF000016051611112
:10088000D8A445EF04F047EF04F092EF04F0A1C0C4
:10089000D9FFA2C0DAFFDECFF6FFDDCFF7FFF86A9F
:1008A0000800F550730AD8B458EF04F05AEF04F07A
:1008B00061EF04F0000E0001B26F030EB16F66EF3E
:1008C00004F0000E0001B26F010EB16FA1C0D9FF9C
:1008D000A2C0DAFFB151DE26B251DD22A3C0D9FF9A
:1008E000A4C0DAFFDFCFA5F0020EDE26DFCFA6F030
:1008F000000EDD22A5C0D9FFA6C0DAFFDECFAFF023
:10090000DDCFB0F09FC069F0A0C06AF0AFC06BF05F
:10091000B0C06CF0E1EC08F069C09FF06AC0A0F0D4
:10092000E7EF04F0A1C0D9FFA2C0DAFFDECFF6FFE7
:10093000DDCFF7FFF86A0800F550250AD8A4A3EF29
:1009400004F0A5EF04F0BDEF04F0A1C0D9FFA2C0F0
:10095000DAFFDE2A000EDD22000E616F250E606FC9
:100960009FC062F0A0C063F0FCEC14F0000E000128
:10097000A06F010E9F6FE7EF04F0A1C0D9FFA2C0E6
:10098000DAFFDE2A000EDD22000EA06F000E9F6F40
:10099000E7EF04F0A1C0D9FFA2C0DAFFDECFF6FF77
:1009A000DDCFF7FFF86A0800F5500001606F616B5A
:1009B0009FC062F0A0C063F0FCEC14F0A1C0D9FFAE
:1009C000A2C0DAFFDE2A000EDD22B6EF04F012002C
:1009D000000E0001D36F000ED26F000ED56F000E17
:1009E000D46F9AEC19F00009D8A4F9EF04F0FBEFEA
:1009F00004F04BEF05F0000EA8EC20F00009D8B48D
:100A000004EF05F006EF05F00DEF05F0FF0E000115
:100A1000D56F9C0ED46F1DEF05F0010EA8EC20F0F1
:100A20000009D8B416EF05F018EF05F01DEF05F03A
:100A3000000E0001D56F640ED46F020EA8EC20F0FA
:100A40000009D8B426EF05F028EF05F02FEF05F0E8
:100A5000000E0001D36F640ED26F4BEF05F0030E52
:100A6000A8EC20F00009D8B438EF05F03AEF05F013
:100A70004BEF05F002EC21F00009D8A442EF05F09D
:100A800044EF05F04BEF05F0FF0E0001D36F9C0E15
:100A9000D26F4BEF05F00001F4A151EF05F053EFD9
:100AA00005F089EF05F0000ED36F000ED26F000E37
:100AB000D56F000ED46F2BEC19F06DC073F06EC0C3
:100AC00074F0000E0001766F0A0E756F0CEC18F0D2
:100AD00073C0E8F074C0E9F00001E851E911D8A44E
:100AE00074EF05F076EF05F07FEF05F0090E4AECA4
:100AF00013F0800E4B6E3F0E4C6E89EF05F0040E26
:100B0000EBEC12F0070E34EC1FF0C20E4B6E340EFD
:100B10004C6E0001F4A38FEF05F091EF05F0A8EF04
:100B200005F0000ED36F000ED26F000ED56F000ED1
:100B3000D46F080E34EC1FF0000E0001E76F0A0EB0
:100B4000E66F090E4AEC13F0E40E4B6E310E4C6E5C
:100B50000001D3BFB4EF05F0D35108E1D205D8A00E
:100B6000B4EF05F0B6EF05F0BEEF05F0050E4AEC68
:100B700013F0060EEBEC12F0D3EF05F0D3BFC5EF88
:100B800005F0C3EF05F0CDEF05F0050EEBEC12F02C
:100B9000060E4AEC13F0D3EF05F0050EEBEC12F065
:100BA000060EEBEC12F00001D5BFDFEF05F0D551DA
:100BB00008E1D405D8A0DFEF05F0E1EF05F0E9EF9B
:100BC00005F0070EEBEC12F0080E4AEC13F0FEEF06
:100BD00005F0D5BFF0EF05F0EEEF05F0F8EF05F00A
:100BE000070E4AEC13F0080EEBEC12F0FEEF05F0E6
:100BF000070EEBEC12F0080EEBEC12F01200000105
:100C0000FD5134EC20F060C06BF061C06CF0F6EF89
:100C100006F0030E3A6EE80E396EABEC1DF00001E3
:100C20006D6FF551D8A417EF06F019EF06F024EF19
:100C300006F0FA0E606F000E616FDAEC20F0010E24
:100C40000001F56FDCEF06F0F505D8A42AEF06F0F9
:100C50002CEF06F043EF06F06D51D8B432EF06F0FA
:100C600034EF06F0DCEF06F06DC055F0FA0E626F5F
:100C7000000E636FF4EC1FF0020E0001F56FDCEF65
:100C800006F0DCEF06F0020EF519D8A44AEF06F0E4
:100C90004CEF06F08AEF06F055506D19D8A453EFCB
:100CA00006F055EF06F086EF06F0FA0E606F000EC4
:100CB000616F000E626F19EC1CF037500001605D2F
:100CC00038506159D8A067EF06F069EF06F0DCEF05
:100CD00006F0FA0E606F000E616F29EC21F0000142
:100CE0006DA175EF06F077EF06F07BEF06F0030ECF
:100CF000F56FDCEF06F06DA380EF06F082EF06F0F3
:100D000041EF06F0040EF56FDCEF06F0060EF56F0E
:100D1000DCEF06F0030EF519D8A491EF06F093EF7F
:100D200006F095EF06F086EF06F0040EF519D8A44C
:100D30009CEF06F09EEF06F0A7EF06F06DB3A3EF71
:100D400006F0A5EF06F0DCEF06F086EF06F0060EE3
:100D5000F519D8A4AEEF06F0B0EF06F041EF06F0BB
:100D60006D51D8B4B6EF06F0B8EF06F0C0EF06F05C
:100D7000FA0E606F000E616F29EC21F0DCEF06F0D7
:100D8000FA0E606F000E616F000E626F19EC1CF0BE
:100D900035500001605D36506159D8A0D2EF06F0A1
:100DA000D4EF06F041EF06F0000EF56FFA0E606F1B
:100DB000000E616FDAEC20F0000E0001626F320E5F
:100DC000636F000E646F000E656F000E666FFD515D
:100DD000D7EC15F0010E0001616F320E606FFD510E
:100DE00024EC20F00001FD6914EF07F06BC069F0FE
:100DF0006CC06AF000016A51000AD8B406EF07F02F
:100E0000010AD8B40DEF07F014EF07F06951000A9A
:100E1000D8B409EF06F014EF07F06951320AD8B4DC
:100E200009EF06F014EF07F01200B4EC21F000090E
:100E3000D8B41DEF07F01FEF07F026EF07F0000E04
:100E40000001616F940E606F44EC21F0090E000107
:100E5000EE652DEF07F02FEF07F035EF07F0000EEE
:100E6000616F950E606F44EC21F0000169516A11C9
:100E7000D8A43DEF07F03FEF07F045EF07F0000E75
:100E8000616F960E606F44EC21F0EEC074F061EF7C
:100E900007F074077451170D0C0EF324D96E020E6F
:100EA000F420DA6E6D51DE18D8A459EF07F05BEF2D
:100EB00007F061EF07F0000E616F9E0E606F44EC6B
:100EC00021F000017451D8A468EF07F06AEF07F031
:100ED00049EF07F0EE51170D000EF324756F020E67
:100EE000F420766F20EE0BF07551D9267651DA2278
:100EF000EEC0DFFF20EE0CF07551D9267651DA22D4
:100F00006DC0DFFF20EE02F07551D9267651DA224E
:100F1000050EDF6E20EE04F07551D9267651DA22E7
:100F2000050EDF6E20EE0DF07551D9267651DA22CE
:100F3000000EDF6E20EE05F07551D9267651DA22CB
:100F4000000EDE6E000EDD6E75C0D9FF76C0DAFFD2
:100F500069C0DEFF6AC0DDFF20EE12F07551D926B0
:100F60007651DA22000EDF6E20EE07F07551D92699
:100F70007651DA22DE6ADE6ADE6ADD6A7051D8B442
:100F8000C4EF07F0C6EF07F0E6EF07F06EC062F0BF
:100F90006FC063F070C064F071C065F072C066F03D
:100FA00020EE0BF07551D9267651DA22DF50676FAB
:100FB0008AEC12F00001736F20EE0EF07551D92605
:100FC0007651DA2273C0DFFFEEEF07F020EE0EF06D
:100FD0007551D9267651DA22FF0EDF6E20EE15F01C
:100FE0007551D9267651DA226BC0DEFF6CC0DDFF69
:100FF000EE51ECEC1AF00001EE2B20EE0BF07551E7
:10100000D9267651DA22DF5012000001FD5134EC6E
:1010100020F060C07EF061C07FF0C2EF08F0000EEB
:101020000001626F0F0E636F000E646F000E656F3C
:10103000000E666FFD51D7EC15F0010E0001616FD7
:10104000360E606FFD5124EC20F00001FD69E0EFE9
:1010500008F00C0EF819D8B430EF08F032EF08F0B1
:10106000B4EF08F0F8C080F00C0EF86F4D4A4E2A2D
:10107000000E816F8151100D9B0EF324F66EFE0E53
:10108000F420F76EF86A000EF82209000C0EF5182D
:101090000900F510D8A44FEF08F051EF08F053EF16
:1010A00008F0B4EF08F08151100D9B0EF324F66E9A
:1010B000FE0EF420F76EF86A000EF82280517C6F65
:1010C0007D6B0900F5507C1908E10900F5507D1988
:1010D000D8A46DEF08F06FEF08F0ABEF08F0815186
:1010E000100D020EF326000EF4229B0EF324F66E72
:1010F000FE0EF420F76EF86A000EF8220900F504DF
:101100000900F510D8A487EF08F089EF08F095EFF3
:1011100008F044EC20F00009D8A491EF08F093EF18
:1011200008F095EF08F0B4EF08F0010E596E81C099
:10113000F7F0900E4F1809E12A0E5018D8B4A3EF1B
:1011400008F0A5EF08F0B4EF08F06A0E4F6E410EFC
:10115000506EB4EF08F0812B090E8165B2EF08F0F4
:10116000B4EF08F03AEF08F002D8C0EF08F005003D
:10117000FA6E4F50FD6E5050FE6EFF6AFA5012002C
:101180000FEF08F07EC07CF07FC07DF000017D5144
:10119000000AD8B4D2EF08F0010AD8B4D9EF08F0A9
:1011A000E0EF08F07C51000AD8B40FEF08F0E0EF50
:1011B00008F07C51360AD8B429EF08F0E0EF08F0C7
:1011C000120021EEE4F010EE6EF0060EDBCFE3FF2E
:1011D000E806FCE26BC079F06CC07AF0000179514E
:1011E0007A11D8A4F6EF08F0F8EF08F0FCEF08F059
:1011F0006E0E796F000E7A6F79C060F07AC061F080
:10120000C6EC1BF060C07DF061C07EF03FC07BF09B
:1012100040C07CF000017CBF10EF09F012EF09F034
:1012200027EF09F07D517B5D7C51800A6D6F7E5107
:10123000800A6D59D8A01FEF09F021EF09F023EFC4
:1012400009F027EF09F07BC07DF07CC07EF07DC007
:101250007BF07EC07CF03DC077F03EC078F0E0B11E
:1012600034EF09F036EF09F054EF09F045EF09F0DB
:10127000000E616F200E606F69C062F06AC063F09B
:10128000FCEC14F000017D4B7E2B77517D5D7E518F
:10129000800A6D6F7851800A6D59D8A052EF09F01D
:1012A00054EF09F038EF09F0000E766F000E756FFD
:1012B0007BEF09F079C0F6FF7AC0F7FF000EF86EF9
:1012C0000E0EF76403D00800F55005D0F6CFE9FF05
:1012D000F7CFEAFFEF5000016D6F6D51606F616BEA
:1012E00069C062F06AC063F0FCEC14F00001794B55
:1012F0007A2B754B762B7B51755D7651800A6D6F1D
:101300007C51800A6D59D8A088EF09F08AEF09F066
:101310005AEF09F0E0A18FEF09F091EF09F0AFEF7C
:1013200009F0A0EF09F0000E616F200E606F69C038
:1013300062F06AC063F0FCEC14F000017D4B7E2B80
:1013400077517D5D7E51800A6D6F7851800A6D59AD
:10135000D8A0ADEF09F0AFEF09F093EF09F07DC031
:1013600069F07EC06AF012002B6E000E2D6E6FEFDA
:101370000AF02D50170D020EF324D96E020EF42040
:10138000DA6EDF502C6E020E2C18D8B4CAEF09F0BA
:10139000CCEF09F0D5EF09F0040E2C18D8A4D3EF48
:1013A00009F0D5EF09F036EF0AF02D50170D130EA6
:1013B000F324D96E020EF420DA6E2B50DE18D8A476
:1013C000E4EF09F0E6EF09F04BEF0AF02D50170DAE
:1013D000070EF324D96E020EF420DA6EDE50235C81
:1013E000DE502458DE502558DE502658D8A0FBEF9A
:1013F00009F0FDEF09F024EF0AF02D50170D070E4C
:10140000F324D96E020EF420DA6EDE6ADE6ADE6A3A
:10141000DD6A040E2C18D8A410EF0AF012EF0AF0BF
:101420001FEF0AF02D5071EC1BF02D50170D030E1D
:10143000F324D96E020EF420DA6E020EDF6E2D5008
:10144000C2EC20F04BEF0AF02D50170D070EF324DD
:10145000D96E020EF420DA6E2350DE5E2450DE5A7E
:101460002550DE5A2650DE5A4BEF0AF02C04D8A441
:101470003CEF0AF03EEF0AF04BEF0AF02D50170D4B
:10148000070EF324D96E020EF420DA6EDE2A000E67
:10149000DE22DE22DE222B50D8A451EF0AF053EFD9
:1014A0000AF06EEF0AF02D50170D0E0EF324D96ED0
:1014B000020EF420DA6EDE28D8B461EF0AF063EF92
:1014C0000AF06EEF0AF02D50170D0E0EF324D96EB0
:1014D000020EF420DA6EDF50B9EC0CF02D2A000178
:1014E000EE512D18D8A477EF0AF079EF0AF0B9EF92
:1014F00009F01200000E0001716F6FBF84EF0AF057
:1015000082EF0AF096EF0AF06F1F6E1F6D1F6C1FBF
:101510006B1F6A1F691F686D000E69236A236B23A6
:101520006C236D236E236F23010E716F67BF9DEFD8
:101530000AF09BEF0AF0AFEF0AF0671F661F651F06
:10154000641F631F621F611F606D000E61236223B1
:1015500063236423652366236723010E711B20EE3A
:1015600072F0070EDE6AE806FDE2685169116A1141
:101570006B116C116D116E116F11D8B4C2EF0AF0BE
:10158000C4EF0AF016EF0BF0010E706FD2EF0AF005
:10159000D890683769376A376B376C376D376E3775
:1015A0006F37702B6FAFD7EF0AF0D9EF0AF0C8EFA3
:1015B0000AF0D890723773377437753776377737C4
:1015C000783779376851605D695161596A5162595C
:1015D0006B5163596C5164596D5165596E5166591F
:1015E0006F516759D8A0F7EF0AF0F9EF0AF00AEF48
:1015F0000BF06851605F6951615B6A51625B6B51CE
:10160000635B6C51645B6D51655B6E51665B6F51E2
:10161000675B7281D8906F336E336D336C336B338D
:101620006A3369336833702FD9EF0AF07151D8B437
:101630001CEF0BF01EEF0BF02EEF0BF0791F781F55
:10164000771F761F751F741F731F726D000E732333
:1016500074237523762377237823792372C060F06F
:1016600073C061F074C062F075C063F076C064F05E
:1016700077C065F078C066F079C067F01200106E30
:1016800010C001F0026A000E046E080E036E28EC12
:1016900012F00150116E1050070B126E000E146EF6
:1016A000F8EF0BF01450170D020EF324D96E020E52
:1016B000F420DA6EDF50136E000E0F6E030E131857
:1016C000D8B465EF0BF067EF0BF070EF0BF0040E82
:1016D0001318D8A46EEF0BF070EF0BF072EF0BF055
:1016E000010E0F6E1450170D000E096E020E0A6ED9
:1016F000140E0926000E0A22F3500926F4500A227D
:1017000011500924D96E000E0A20DA6EDF500B6EDC
:1017100012C00CF0010E0D6E0C2A91EF0BF0D89058
:101720000D360C2E8FEF0BF00D500B140E6E0E506D
:10173000D8B49DEF0BF09FEF0BF0F7EF0BF00F50CD
:10174000D8B4A5EF0BF0A7EF0BF0F7EF0BF012C03A
:1017500009F0010E0A6E092AB0EF0BF0D8900A3694
:10176000092EAEEF0BF00A50FF0A0B6E1450170D46
:10177000000E0C6E020E0D6E140E0C26000E0D22C5
:10178000F3500C26F4500D2211500C24D96E000E8B
:101790000D20DA6E0B50DF161450170D120EF324C5
:1017A000D96E020EF420DA6EDF50D8A4DAEF0BF017
:1017B000DCEF0BF0E7EF0BF0145091EC1AF000099E
:1017C000D8B4E5EF0BF0E7EF0BF0F7EF0BF01450A8
:1017D000170D030EF324D96E020EF420DA6E010EFB
:1017E000DF6E145071EC1BF01450C2EC20F0142A80
:1017F0000001EE511418D8A400EF0CF002EF0CF029
:1018000052EF0BF01200000E0001EE6F000E626F3F
:101810006251170D000EF324646F020EF420656F01
:1018200020EE13F06451D9266551DA22FF0EDF6EE7
:1018300020EE05F06451D9266551DA22FF0EDE6EE6
:10184000000EDD6E20EE0EF06451D9266551DA22CD
:10185000000EDF6E20EE0FF06451D9266551DA22BA
:10186000000EDF6E20EE10F06451D9266551DA22A9
:10187000000EDF6E20EE11F06451D9266551DA2298
:10188000000EDF6E20EE0CF06451D9266551DA228D
:10189000000EDF6E20EE04F06451D9266551DA2285
:1018A000000EDF6E20EE0DF06451D9266551DA226C
:1018B000FF0EDF6E20EE02F06451D9266551DA2268
:1018C000000EDF6E20EE03F06451D9266551DA2256
:1018D000000EDF6E64C0D9FF65C0DAFF000EDE6E59
:1018E000000EDD6E20EE0BF06451D9266551DA2230
:1018F000FF0EDF6E20EE07F06451D9266551DA2223
:10190000DE6ADE6ADE6ADD6A20EE12F06451D926F4
:101910006551DA22000EDF6E000E636F635164259D
:10192000606F000E6521616F140E6025D96E000E88
:101930006121DA6EFF0EDF6E632B6351D8B4A3EF23
:101940000CF0A5EF0CF08EEF0CF020EE15F06451CA
:10195000D9266551DA22000EDE6E000EDD6E622B96
:10196000090E6265B6EF0CF0B8EF0CF008EF0CF062
:1019700012001F6E1F500C0D400EF324216E010E3D
:10198000F420226E20EE05F02150D9262250DA22D2
:10199000DF50166E010E1624016E026A000E02223E
:1019A00020EE06F02150D9262250DA22DF50176EA1
:1019B0001750036E046A02EC14F00150206E20EE02
:1019C00004F02150D9262250DA22DF501C6E20EE7E
:1019D00002F02150D9262250DA22DECF1AF0DDCFD4
:1019E0001BF063EF0DF020C001F0026A1AC003F093
:1019F0001BC004F0ADEC1FF021C0D9FF22C0DAFFFC
:101A0000DF50166E176A015016241D6E0250172003
:101A10001E6E20EE04F01D50D9261E50DA22DE5034
:101A2000DE10DE10DE10D8B418EF0DF01AEF0DF056
:101A30004EEF0DF020EE04F01D50D9261E50DA2294
:101A4000DE06000EDE5ADE5ADE5A20EE04F01D508D
:101A5000D9261E50DA22DE50DE10DE10DE10D8A4A9
:101A600034EF0DF036EF0DF04EEF0DF01F500C0D72
:101A70004B0EF324D96E010EF420DA6EDF5077ECB2
:101A800021F0FE0E016E1F500C0D4B0EF324D96E8B
:101A9000010EF420DA6EDF50CEEC20F0010E20248F
:101AA000016E026A000E022220EE06F02150D926B5
:101AB0002250DA22DF50166E1650036E046A02ECD2
:101AC00014F00150206E1C502018D8A46AEF0DF0BD
:101AD0006CEF0DF0F3EF0CF01200000E0001716FCF
:101AE00067BF77EF0DF075EF0DF089EF0DF0671F11
:101AF000661F651F641F631F621F611F606D000EFC
:101B00006123622363236423652366236723010E15
:101B1000716F6FBF90EF0DF08EEF0DF0A0EF0DF035
:101B20006F1F6E1F6D1F6C1F6B1F6A1F691F686D13
:101B3000000E69236A236B236C236D236E236F23AE
:101B4000685169116A116B116C116D116E116F1171
:101B5000D8B4ADEF0DF0AFEF0DF0F7EF0DF0010ED3
:101B6000706FBDEF0DF0D890683769376A376B3703
:101B70006C376D376E376F37702B6FAFC2EF0DF06C
:101B8000C4EF0DF0B3EF0DF06851605D695161591C
:101B90006A5162596B5163596C5164596D51655961
:101BA0006E5166596F516759D8A0D9EF0DF0DBEF30
:101BB0000DF0EBEF0DF06851605F6951615B6A51A8
:101BC000625B6B51635B6C51645B6D51655B6E5125
:101BD000665B6F51675BD8906F336E336D336C33D8
:101BE0006B336A3369336833702FC4EF0DF0715172
:101BF000D8B4FDEF0DF0FFEF0DF00FEF0EF0671F03
:101C0000661F651F641F631F621F611F606D000EEA
:101C1000612362236323642365236623672360C0F3
:101C200060F061C061F062C062F063C063F064C0E4
:101C300064F065C065F066C066F067C067F01200CA
:101C40000001E7BF2CEF0EF0E75108E1E605D8A050
:101C50002CEF0EF02EEF0EF075EF0EF0E607D8A089
:101C6000E707E651E711D8A438EF0EF03AEF0EF08F
:101C7000AAEF0EF0000EEBEC12F0030EEBEC12F0FC
:101C8000020EEBEC12F0010EEBEC12F00001E44B53
:101C9000E52B9C0ED26F010ED36F020ED227000EE1
:101CA000D323D890E435D96EE535DA6ED890D9369D
:101CB000DA36D251D926D351DA22DECF60F0DDCF29
:101CC00061F0000E636F0A0E626FC5EC11F060C028
:101CD000E6F061C0E7F00001E651E711D8A473EF28
:101CE0000EF075EF0EF07BEF0EF0380E4B6E2E0EF1
:101CF0004C6EAAEF0EF09C0ED26F010ED36FD890EF
:101D0000E435D96EE535DA6ED890D936DA36D25167
:101D1000D926D351DA220A0EDE18DE10D8B493EF9A
:101D20000EF095EF0EF0AAEF0EF09C0ED26F010EA2
:101D3000D36FD890E435D96EE535DA6ED890D936C0
:101D4000DA36D251D926D351DA22DF504AEC13F0D9
:101D5000AAEF0EF012000001EC51ED11D8B4B3EF70
:101D60000EF0B5EF0EF0B8EF0EF0EC07D8A0ED07CF
:101D7000EC51ED11D8A4BFEF0EF0C1EF0EF026EF3D
:101D80000FF0F62BF751100D9B0E7A6FFE0E7B6F46
:101D9000F3507A27F4507B23F651040DF3507A2741
:101DA000F4507B237AC0F6FF7BC0F7FFF86A090086
:101DB000F52807E10900F528D8A4E1EF0EF0E3EFDC
:101DC0000EF0E9EF0EF0900E4F6E2A0E506E26EFD9
:101DD0000FF0010E4DEC21F00001F751100D9B0E9C
:101DE0007A6FFE0E7B6FF3507A27F4507B23F65107
:101DF000040DF3507A27F4507B237AC0F6FF7BC0A2
:101E0000F7FFF86A0900F5CF73F00A00F5CF74F018
:101E1000000E766F0F0E756F0CEC18F073C0ECF0BF
:101E200074C0EDF00001EC51ED11D8A41AEF0FF0E1
:101E30001CEF0FF022EF0FF09A0E4F6E330E506E24
:101E400026EF0FF02A0E4F6E200E506E1200000E7D
:101E500000017A6F000E796F140E776F010E786FA4
:101E6000D8907935D96E7A35DA6ED890D936DA3697
:101E70007751D9267851DA22000EDF6E140E776F73
:101E8000010E786F010E7727000E7823D8907935F0
:101E9000D96E7A35DA6ED890D936DA367751D926B6
:101EA0007851DA22000EDF6E140E776F010E786F14
:101EB000020E7727000E7823D8907935D96E7A35BF
:101EC000DA6ED890D936DA367751D9267851DA22B7
:101ED000000EDF6E794B7A2B7ABF78EF0FF07A51D4
:101EE00009E1040E795DD8A078EF0FF07AEF0FF0DA
:101EF0002CEF0FF0010E0101176F020E1B6F000E89
:101F00001F6F030E236F8DEC20F032EC21F0B60E24
:101F10000001696F000E6A6F000E6B6F000E6C6F30
:101F2000020E6D6F000E6E6F000E6F6F000E706F01
:101F3000000E726F000E716F15EC07F0120060C09A
:101F400067F061C068F062C069F063C06AF00001C8
:101F50006407D8A06507642906E16529D8A4B3EF12
:101F60000FF0B5EF0FF0C2EF0FF0000E616F000E33
:101F7000606F14EF10F0674B682B694B6A2B640796
:101F8000D8A0650767C0F6FF68C0F7FFF86A0800C9
:101F9000F5500009D8B4CFEF0FF0D1EF0FF000EFFC
:101FA00010F069C0F6FF6AC0F7FFF86A0800F55044
:101FB0000009D8B4DEEF0FF0E0EF0FF000EF10F003
:101FC00064516511D8B4E7EF0FF0E9EF0FF000EFBF
:101FD00010F067C0F6FF68C0F7FFF86A0800F5CF99
:101FE00066F069C0F6FF6AC0F7FFF86A0800F550AE
:101FF0006619D8B4FEEF0FF000EF10F0BBEF0FF052
:1020000067C0F6FF68C0F7FFF86A0800F5CF66F012
:1020100069C0F6FF6AC0F7FFF86A0800F550665D10
:10202000606F616BD8A0610712000001EC51ED11E7
:10203000D8B41DEF10F01FEF10F022EF10F0EC07F6
:10204000D8A0ED07EC51ED11D8A429EF10F02BEF3B
:1020500010F086EF10F0000E4DEC21F00001F7516A
:10206000100D9B0E7A6FFE0E7B6FF3507A27F450A3
:102070007B23F651040DF3507A27F4507B23020E94
:102080007A27000E7B237AC0F6FF7BC0F7FFF86A41
:102090000900F5500900F510D8A451EF10F053EFE6
:1020A00010F059EF10F09A0E4F6E330E506E86EF0F
:1020B00010F0F751100D9B0E7A6FFE0E7B6FF350F0
:1020C0007A27F4507B23F651040DF3507A27F4500D
:1020D0007B23020E7A27000E7B237AC0F6FF7BC09B
:1020E000F7FFF86A0900F5CF73F00A00F5CF74F036
:1020F000000E766F0F0E756F0CEC18F073C0ECF0DD
:1021000074C0EDF0560E4F6E1D0E506E1200EDEFC6
:1021100010F041C062F042C063F0D890623763377C
:1021200043C064F044C065F0625164276351652385
:10213000020E6425D96E000E6521DA6EDECF66F0E0
:10214000DDCF67F041C062F042C063F0D8906237E3
:10215000633743C064F044C065F062516427635143
:102160006523420E6425D96E000E6521DA6EDECF3E
:1021700068F0DDCF69F068C060F069C061F002D836
:10218000CBEF10F00500FA6E6651FD6E6751FE6EE2
:10219000FF6AFA50120041500001626F4250636FB3
:1021A000010E415E000E425A63BFE1EF10F0635131
:1021B00006E16205D8B0DFEF10F0E1EF10F089EF33
:1021C00010F043C0D9FF44C0DAFFDECF43F0DDCFCB
:1021D00044F0000E426E200E416E43504410D8A4CD
:1021E000F4EF10F0F6EF10F0CBEF10F0120000015A
:1021F000D16F25EF11F08C9087805FEF11F08C92FA
:1022000087825FEF11F08A9085805FEF11F08C94E8
:1022100087845FEF11F0889283825FEF11F08898D6
:1022200083985FEF11F08B9A869A5FEF11F08B9C89
:10223000869C5FEF11F0889483945FEF11F088968D
:1022400083965FEF11F05FEF11F00001D151CF6F76
:10225000D06BD051000AD8B430EF11F023EF11F059
:10226000CF51000AD8B4FFEF10F0010AD8B403EF41
:1022700011F0030AD8B407EF11F0010AD8B40BEF3C
:1022800011F0070AD8B4FBEF10F0010AD8B40FEF31
:1022900011F0030AD8B413EF11F0010AD8B417EF04
:1022A00011F00F0AD8B41BEF11F0010AD8B41FEFD8
:1022B00011F0030AD8B423EF11F023EF11F012004C
:1022C0000001E0A166EF11F068EF11F072EF11F07C
:1022D00072C069F073C06AF070C06BF071C06CF0CE
:1022E00004EC1DF0000175BF78EF11F07AEF11F0EA
:1022F00080EF11F074C079F075C07AF084EF11F0BE
:10230000000E7A6F000E796F000E786F000E776FF7
:1023100097EF11F0000E616F200E606F70C062F0D9
:1023200071C063F0FCEC14F00001774B782B79510D
:10233000775D7851800A766F7A51800A7659D8A0F5
:10234000A4EF11F0A6EF11F08AEF11F0E0B1ABEFBE
:1023500011F0ADEF11F0B7EF11F072C069F073C07A
:102360006AF070C06BF071C06CF004EC1DF072C0CC
:1023700060F073C061F0C6EC1BF00001795160257C
:10238000706F7A516121716F1200000E0001656F4C
:1023900063BFCFEF11F0CDEF11F0D5EF11F0626D0B
:1023A000631FD8B0632B010E656F61BFDCEF11F0C6
:1023B000DAEF11F0E2EF11F0606D611FD8B0612B20
:1023C000010E651B000E676F000E666F6251631190
:1023D000D8B4EDEF11F0EFEF11F017EF12F0010E9E
:1023E000646FF7EF11F0D89062376337642B63AFF7
:1023F000FCEF11F0FEEF11F0F3EF11F0D89066371B
:1024000067376251605D63516159D8A00AEF12F0DD
:102410000CEF12F011EF12F06251605F6351615BDB
:102420006681D89063336233642FFEEF11F06551FB
:10243000D8B41DEF12F01FEF12F023EF12F0666D0B
:10244000671FD8B0672B66C060F067C061F01200EC
:10245000000E066E04BE31EF12F02FEF12F037EFD0
:1024600012F0036C041ED8B0042A010E066E02BEE0
:102470003EEF12F03CEF12F044EF12F0016C021E3E
:10248000D8B0022A010E061A000E086E000E076E62
:1024900003500410D8B44FEF12F051EF12F079EF5F
:1024A00012F0010E056E59EF12F0D8900336043683
:1024B000052A04AE5EEF12F060EF12F055EF12F055
:1024C000D890073608360350015C04500258D8A053
:1024D0006CEF12F06EEF12F073EF12F00350015E2A
:1024E0000450025A0780D89004320332052E60EF60
:1024F00012F00650D8B47FEF12F081EF12F085EFA2
:1025000012F0076C081ED8B0082A07C001F008C0F6
:1025100002F01200040E0001F06591EF12F093EF4B
:1025200012F099EF12F0000E616F5C0E606F44ECD8
:1025300021F00001F0510C0D400EF324D96E010E74
:10254000F420DA6E62C0DEFF63C0DDFFF0510C0DD7
:10255000440EF324D96E010EF420DA6E010EDF6E04
:10256000F0510C0D450EF324D96E010EF420DA6EF5
:10257000000EDF6EF0510C0D460EF324D96E010EE5
:10258000F420DA6E64C0DFFFF0510C0D420EF3242C
:10259000D96E010EF420DA6E65C0DEFF66C0DDFF85
:1025A000F0510C0D4A0EF324D96E010EF420DA6EB0
:1025B00067C0DFFFB7EC1CF00001686FF0510C0D35
:1025C0004B0EF324D96E010EF420DA6E68C0DFFFE3
:1025D000F02BF00512000001D16F0FEF13F0878090
:1025E00049EF13F0878249EF13F0858049EF13F02C
:1025F000878449EF13F0838249EF13F0839849EF02
:1026000013F0869A49EF13F0869C49EF13F08394F8
:1026100049EF13F0839649EF13F049EF13F00001EF
:10262000D151CF6FD06BD051000AD8B41AEF13F04C
:102630000DEF13F0CF51000AD8B4F2EF12F0010AF7
:10264000D8B4F5EF12F0030AD8B4F8EF12F0010A8B
:10265000D8B4FBEF12F0070AD8B4EFEF12F0010A7A
:10266000D8B4FEEF12F0030AD8B401EF13F0010A58
:10267000D8B404EF13F00F0AD8B407EF13F0010A2F
:10268000D8B40AEF13F0030AD8B40DEF13F00DEF2E
:1026900013F012000001D16F6EEF13F08790A8EFD6
:1026A00013F08792A8EF13F08590A8EF13F08794AA
:1026B000A8EF13F08392A8EF13F08388A8EF13F02C
:1026C000868AA8EF13F0868CA8EF13F08384A8EF16
:1026D00013F08386A8EF13F0A8EF13F00001D15197
:1026E000CF6FD06BD051000AD8B479EF13F06CEFF4
:1026F00013F0CF51000AD8B451EF13F0010AD8B447
:1027000054EF13F0030AD8B457EF13F0010AD8B40A
:102710005AEF13F0070AD8B44EEF13F0010AD8B4F9
:102720005DEF13F0030AD8B460EF13F0010AD8B4D8
:1027300063EF13F00F0AD8B466EF13F0010AD8B4B0
:1027400069EF13F0030AD8B46CEF13F06CEF13F0D9
:102750001200000E0001F06F000E606F60510C0D52
:10276000400EF324D96E010EF420DA6E000EDE6EF8
:10277000000EDD6E60510C0D440EF324D96E010E77
:10278000F420DA6E000EDF6E60510C0D450EF3245E
:10279000D96E010EF420DA6E000EDF6E60510C0D62
:1027A000460EF324D96E010EF420DA6E000EDF6EB1
:1027B00060510C0D420EF324D96E010EF420DA6E36
:1027C000000EDE6E000EDD6E60510C0D4A0EF3241D
:1027D000D96E010EF420DA6E000EDF6E60510C0D22
:1027E0004B0EF324D96E010EF420DA6E000EDF6E6C
:1027F000602B040E6065FFEF13F001EF14F0AEEFF5
:1028000013F01200000E066E02BE0BEF14F009EF7B
:1028100014F011EF14F0016C021ED8B0022A010E60
:10282000066E04BE18EF14F016EF14F01CEF14F04F
:10283000036C041ED8B0042A03500410D8B423EF4C
:1028400014F025EF14F049EF14F0010E056E2DEF92
:1028500014F0D89003360436052A04AE32EF14F093
:1028600034EF14F029EF14F00350015C04500258C7
:10287000D8A03DEF14F03FEF14F043EF14F00350F5
:10288000015E0450025AD89004320332052E34EF10
:1028900014F00650D8B44FEF14F051EF14F055EF88
:1028A00014F0016C021ED8B0022A01C001F002C06F
:1028B00002F012000001626F8DEF14F08EA263EF40
:1028C00014F066EF14F0010E67EF14F0000EAFEF96
:1028D00014F08EA86EEF14F071EF14F0010E72EF89
:1028E00014F0000EAFEF14F08EA679EF14F07CEF29
:1028F00014F0010E7DEF14F0000EAFEF14F08EA473
:1029000084EF14F087EF14F0010E88EF14F0000E3E
:10291000AFEF14F0000EAFEF14F000016251606FE2
:10292000616B6151000AD8B498EF14F08AEF14F08B
:102930006051000AD8B45EEF14F0010AD8B474EF05
:1029400014F0030AD8B469EF14F0010AD8B47FEF89
:1029500014F0070AD8B48AEF14F08AEF14F01200CA
:102960000001FD5134EC20F060C0D8F061C0D9F016
:10297000E4EF14F0ABEC1DF00001F46F02D8CAEFE5
:1029800014F00500FA6E4B50FD6E4C50FE6EFF6A5F
:10299000FA501200000E0001626F0A0E636F000E03
:1029A000646F000E656F000E666FFD51D7EC15F079
:1029B000000E0001616FF70E606FFD5124EC20F0F6
:1029C0000001FD69FBEF14F0D8C0D6F0D9C0D7F0F4
:1029D0000001D751000AD8B4F0EF14F0FBEF14F067
:1029E000D651000AD8B4BAEF14F0F70AD8B4BAEF47
:1029F00014F0FBEF14F01200000162516311D8B41F
:102A000004EF15F006EF15F00FEF15F062516311AA
:102A1000D8A40DEF15F00FEF15F014EF15F060517D
:102A2000BAEC21F047EF15F020EE09F06251D926FB
:102A30006351DA22DE50DE10D8B421EF15F023EF17
:102A400015F03EEF15F020EE09F06251D9266351E2
:102A5000DA2210EE03F06251E1266351E222DE50E9
:102A6000E65CE650800A686FDE50800A6859D8B08C
:102A70003CEF15F03EEF15F047EF15F020EE03F0B8
:102A80006251D9266351DA22DE2A000EDD221200BD
:102A90005950D8B44EEF15F050EF15F092EF15F0F5
:102AA000000E596E010E0001F66F010E4DEC21F083
:102AB0000001F751100D9B0E7A6FFE0E7B6FF350E5
:102AC0007A27F4507B23F651040DF3507A27F45003
:102AD0007B237AC0F6FF7BC0F7FFF86A0900F5CFC9
:102AE00073F00A00F5CF74F0000E766F0F0E756F5D
:102AF0000CEC18F073C0ECF074C0EDF00001EC5178
:102B0000ED11D8A486EF15F088EF15F08EEF15F0D3
:102B10009A0E4F6E330E506E92EF15F02A0E4F6ED6
:102B2000200E506E1200000160516111D8A49BEF7D
:102B300015F09DEF15F09FEF15F0D6EF15F061053C
:102B4000D8B0A5EF15F0A7EF15F0B7EF15F0000E10
:102B5000686FACEF15F0682B6051685DD8A0B3EFDB
:102B600015F0B5EF15F0ABEF15F0D6EF15F0000E40
:102B7000676F000E666FBFEF15F0664B672BE00EB8
:102B8000626FFF0E636F60C064F061C065F06251F8
:102B90006427635165236451665D65516759D8A008
:102BA000D4EF15F0D6EF15F0BDEF15F012000001CF
:102BB000676F0001EE51675DD8A0E1EF15F0E3EF1C
:102BC00015F0E9EF15F0020E616F300E606F44EC06
:102BD00021F000016351641165116611D8A4F3EF6F
:102BE00015F0F5EF15F0FBEF15F0020E616F310EE9
:102BF000606F44EC21F000016751170D130EF324B0
:102C0000D96E020EF420DA6E62C0DFFF6751170D35
:102C1000070EF324D96E020EF420DA6E63C0DEFFD5
:102C200064C0DEFF65C0DEFF66C0DEFF675163EC97
:102C300020F012000001FD5134EC20F060C06AF079
:102C400061C06BF03DEF16F0000E626F140E636F03
:102C5000000E646F000E656F000E666FFD51D7ECBD
:102C600015F0010E0001616F160E606FFD5124EC2E
:102C700020F00001FD695BEF16F06AC068F06BC0E0
:102C800069F000016951000AD8B44DEF16F0010A4D
:102C9000D8B454EF16F05BEF16F06851000AD8B4C0
:102CA00024EF16F05BEF16F06851160AD8B424EF43
:102CB00016F05BEF16F01200000161696269000E08
:102CC000666F92EF16F06651170D000EF324636FD6
:102CD000020EF420646F20EE0CF06351D92664518B
:102CE000DA22DF50656F20EE02F06351D92664517D
:102CF000DA22DF50606F050E6019D8A482EF16F05B
:102D000084EF16F091EF16F06251655DD8B08BEF4D
:102D100016F08DEF16F091EF16F065C062F066C008
:102D200061F0662BEE516619D8A499EF16F09BEF6F
:102D300016F063EF16F061511200000E0001E56F0E
:102D4000000EE46F9C0ED26F010ED36F020ED227DD
:102D5000000ED323D890E435D96EE535DA6ED890DD
:102D6000D936DA36D251D926D351DA22DECF60F005
:102D7000DDCF61F0000E636F0A0E626FC5EC11F0DB
:102D800060C0E6F061C0E7F09C0E0001D26F010E5A
:102D9000D36FD890E435D96EE535DA6ED890D93650
:102DA000DA36D251D926D351DA22DF504AEC13F069
:102DB000400E4B6E1C0E4C6E1200820EF66E380EDC
:102DC000F76E000EF86E01EE9CF010EE4FF0090069
:102DD000F5CFEEFFE550E150FAE1700EF66E430ECE
:102DE000F76E000EF86E0900F5CF5CF00900F5CF24
:102DF0005DF003EE00F0B40EEE6AE806FDE102EECF
:102E000000F0E60EEE6AE806FDE101EE00F09C0E31
:102E1000EE6AE806FDE100EEE0F01D0EEE6AE8065F
:102E2000FDE100EE35F0270EEE6AE806FDE15F9069
:102E30005F920001B1EF1EF00001EBBF29EF17F028
:102E4000EB5109E1330EEA5DD8A029EF17F02BEF23
:102E500017F02FEF17F0000EEB6F320EEA6FEA0754
:102E6000D8A0EB07EBBF3FEF17F0EB5106E1EA0507
:102E7000D8B03DEF17F03FEF17F059EF17F0EEEC39
:102E800020F00009D8B447EF17F049EF17F052EFE0
:102E900017F0040E4AEC13F0C80E4B6E410E4C6E48
:102EA00059EF17F0040EEBEC12F0280E4B6E400EAB
:102EB0004C6E12000001F4A160EF17F062EF17F002
:102EC00081EF17F0070E34EC1FF02BEC19F06DC0FA
:102ED00073F06EC074F0000E0001766F0A0E756F0D
:102EE0000CEC18F073C0E8F074C0E9F0E3EC1FF0EC
:102EF000000E4B6E310E4C6E040EEBEC12F095EFA3
:102F000017F00CEC21F00009D8B489EF17F08BEF23
:102F100017F090EF17F0040EEBEC12F093EF17F0B0
:102F2000040E4AEC13F0C7EC1EF012009AEC19F0F4
:102F30000009D8B49EEF17F0A0EF17F0CBEF17F011
:102F4000C7EC1EF00001EBBFAFEF17F0EB5109E14A
:102F5000330EEA5DD8A0AFEF17F0B1EF17F0B5EF81
:102F600017F0000EEB6F320EEA6FEA07D8A0EB07FE
:102F7000EBBFC5EF17F0EB5106E1EA05D8B0C3EFA0
:102F800017F0C5EF17F0D0EF17F0D80E4B6E3C0ED0
:102F90004C6ED0EF17F0000E0001EB6F320EEA6FAF
:102FA00012000001656FE9EF17F06251DDEC1EF0D1
:102FB0000BEF18F062519AEC1EF00BEF18F0625113
:102FC000F3EC1EF00BEF18F0625149EC1FF00BEF21
:102FD00018F000016551636F646B6451000AD8B446
:102FE000F4EF17F00BEF18F06351000AD8B4D5EFE7
:102FF00017F0010AD8B4DAEF17F0030AD8B4DFEFFC
:1030000017F0010AD8B4E4EF17F0070AD8B40BEFB1
:1030100018F00BEF18F01200000E0001786F000E90
:10302000776F75517611D8B418EF18F01AEF18F0C1
:1030300042EF18F0010E796F22EF18F0D890753733
:103040007637792B76AF27EF18F029EF18F01EEFBF
:1030500018F0D890773778377551735D7651745979
:10306000D8A035EF18F037EF18F03CEF18F0755195
:10307000735F7651745B7781D89076337533792F8F
:1030800029EF18F077C073F078C074F012000001D7
:10309000E7BF53EF18F0E75108E1E605D8A053EF7A
:1030A00018F055EF18F07BEF18F0E607D8A0E70707
:1030B000E651E711D8A45FEF18F061EF18F07FEF49
:1030C00018F0090EEBEC12F02BEC19F06DC073F058
:1030D0006EC074F0000E0001766F0A0E756F0CEC76
:1030E00018F073C0E8F074C0E9F0320E4B6E360E83
:1030F0004C6E7FEF18F0D80E4B6E3C0E4C6E1200EB
:103100000A0E0001F227F351020DD40EF324D96EFA
:10311000010EF420DA6EDE50F25DD8A092EF18F0C6
:1031200094EF18F0B8EF18F0000EF26FF32BF35194
:10313000020DD40EF324D96E010EF420DA6EDF50A6
:10314000D8B4A5EF18F0A7EF18F0B4EF18F0F351CA
:10315000020DD50EF324D96E010EF420DA6EDF5085
:1031600069EC1CF0B8EF18F0C20E4B6E340E4C6ECA
:1031700012000A0E0001F227F351020DC00EF324D3
:10318000D96E010EF420DA6EDE50F25DD8A0CBEFDE
:1031900018F0CDEF18F0F1EF18F0000EF26FF32BEE
:1031A000F351020DC00EF324D96E010EF420DA6E35
:1031B000DF50D8B4DEEF18F0E0EF18F0EDEF18F0C4
:1031C000F351020DC10EF324D96E010EF420DA6E14
:1031D000DF5069EC1CF0F1EF18F0080E4B6E400E5A
:1031E0004C6E12000001E7BFFEEF18F0E75108E156
:1031F000E605D8A0FEEF18F000EF19F026EF19F061
:10320000E607D8A0E707E651E711D8A40AEF19F0BE
:103210000CEF19F02AEF19F0090EEBEC12F02BEC81
:1032200019F06DC073F06EC074F0000E0001766F7F
:103230000A0E756F0CEC18F073C0E8F074C0E9F07A
:103240008A0E4B6E360E4C6E2AEF19F0D80E4B6E6E
:103250003C0E4C6E120002EC1EF069C06FF06AC0AA
:1032600070F06FC060F070C061F0000E0001636F1D
:10327000060E626F5EEC1FF060C071F061C072F00C
:10328000F40E0001715D010E7259D8B04AEF19F0C9
:103290004CEF19F050EF19F0000E726F000E716FC5
:1032A000710E715D170E7259D8A059EF19F05BEFCE
:1032B00019F05FEF19F0170E726F700E716F71C019
:1032C0006DF072C06EF012009BEC20F0000E000159
:1032D000F56FABEC1DF00009D8B471EF19F073EF86
:1032E00019F076EF19F0060E0001F56F010E72EC81
:1032F0001FF0546E000E386E320E376E030E3A6EAB
:10330000E80E396EFE0E0001696F0B0E6A6F000E3B
:103310006B6F000E6C6F030E6D6F000E6E6F000E04
:103320006F6F000E706F000E726F000E716F15ECF4
:1033300007F01200010E0001626F000E646F000EB4
:10334000636F140E606F010E616FD8906335D96E94
:103350006435DA6ED890D936DA366051D9266151A3
:10336000DA22DF50D8B4B7EF19F0B9EF19F0BBEF9C
:1033700019F0000E626F634B642B64BFC9EF19F044
:10338000645109E1040E635DD8A0C9EF19F0CBEFD9
:1033900019F0A1EF19F062511200000E4DEC21F06E
:1033A0000001F751100D9B0E7A6FFE0E7B6FF350EC
:1033B0007A27F4507B23F651040DF3507A27F4500A
:1033C0007B23020E7A27000E7B237AC0F6FF7BC098
:1033D000F7FFF86A0900F5CF73F00A00F5CF74F033
:1033E000000E766F0F0E756F0CEC18F073C0ECF0DA
:1033F00074C0EDF03A0E4F6E3C0E506E1200B5C028
:10340000B9F0B6C0BAF0000E3C6E000E3B6E1DEF78
:103410001AF0B3C09FF0B4C0A0F0B90E0001A16FC4
:10342000000EA26FB7C0A3F0B8C0A4F08CEC03F0FC
:1034300000019F513B26A0513C22B9C0F6FFBAC003
:10344000F7FFF86A0800F5500009D8A42AEF1AF02F
:103450002CEF1AF009EF1AF03BC0B3F03CC0B4F007
:1034600012000001E7BF3DEF1AF0E75108E1E60561
:10347000D8A03DEF1AF03FEF1AF05CEF1AF0E60724
:10348000D8A0E707E651E711D8A449EF1AF04BEFAF
:103490001AF060EF1AF0080E34EC1FF0090E4AEC37
:1034A00013F0000E0001E76F0A0EE66F8E0E4B6EF2
:1034B000300E4C6E60EF1AF0D80E4B6E3C0E4C6E18
:1034C00012000001F4A167EF1AF069EF1AF089EF1A
:1034D0001AF0E851E911D8B470EF1AF072EF1AF04F
:1034E00075EF1AF0E807D8A0E907E851E911D8A468
:1034F0007CEF1AF07EEF1AF090EF1AF0010E34EC28
:103500001FF0D2EC1FF0720E4B6E310E4C6E90EF2E
:103510001AF0040EEBEC12F0280E4B6E400E4C6EBF
:103520001200036E010E046E010E056E05060350B7
:10353000170D000E016E020E026E140E0126000E13
:103540000222F3500126F450022205500124D96EC4
:10355000000E0220DA6EDF50D8B4B1EF1AF0B3EFEC
:103560001AF0B5EF1AF0000E046E0550D8A4BBEFA8
:103570001AF0BDEF1AF096EF1AF004501200000195
:10358000E7BFCBEF1AF0E75108E1E605D8A0CBEF93
:103590001AF0CDEF1AF0E7EF1AF0E607D8A0E70728
:1035A000E651E711D8A4D7EF1AF0D9EF1AF0EBEFF4
:1035B0001AF0090EEBEC12F0000E0001E76F140E8A
:1035C000E66F620E4B6E340E4C6EEBEF1AF0D80EB7
:1035D0004B6E3C0E4C6E12000001626F0001625196
:1035E000170D000EF324636F020EF420646F20EEBB
:1035F00012F06351D9266451DA22000EDF6E010EFB
:10360000656F650765516325606F000E6421616F0A
:10361000140E6025D96E000E6121DA6E000EDF6E89
:103620006551D8A416EF1BF018EF1BF001EF1BF04B
:1036300012000001F4A31FEF1BF021EF1BF040EF7D
:103640001BF0E851E911D8B428EF1BF02AEF1BF06A
:103650002FEF1BF0E807D8A0E90744EF1BF0050E99
:1036600034EC1FF0010E0001E76F2C0EE66F090E1F
:103670004AEC13F0500E4B6E3A0E4C6E44EF1BF0BA
:10368000D80E4B6E3C0E4C6E12000001F4A34BEFB3
:103690001BF04DEF1BF06CEF1BF0E851E911D8B4B3
:1036A00054EF1BF056EF1BF05BEF1BF0E807D8A0C0
:1036B000E90770EF1BF0080E34EC1FF0000E00015C
:1036C000E76F0A0EE66F090E4AEC13F07E0E4B6EA2
:1036D000350E4C6E70EF1BF0D80E4B6E3C0E4C6EE0
:1036E0001200036E0350170D000EF324046E020E39
:1036F000F420056E20EE12F00450D9260550DA228F
:10370000000EDF6E010E066E060606500424016EE2
:10371000000E0520026E140E0124D96E000E022048
:10372000DA6E000EDF6E0650D8A499EF1BF09BEF07
:103730001BF084EF1BF012000001EE51FD5DD8A0DC
:10374000A4EF1BF0A6EF1BF0ACEF1BF0020E616FB5
:10375000AE0E606F44EC21F00001FD51170D000E1C
:10376000F324D96E020EF420DA6EDECFDEF0DDCF68
:10377000DFF002D8C5EF1BF00500FA6EDE51FD6EDA
:10378000DF51FE6EFF6AFA501200120060C062F054
:1037900061C063F0CFEF1BF00001604B612B60C094
:1037A000F6FF61C0F7FF000EF86E0E0EF76403D04F
:1037B0000800F55005D0F6CFE9FFF7CFEAFFEF504C
:1037C0000009D8A4E6EF1BF0E8EF1BF0CCEF1BF0EC
:1037D00000016251605D606F63516159616F120059
:1037E0000001636F090E0001EF65F9EF1BF0FBEFBD
:1037F0001BF001EF1CF0000E616F400E606F44EC97
:1038000021F00001EF51020D000EF324D96E010EDC
:10381000F420DA6E63C0DFFFEF51020D010EF324D6
:10382000D96E010EF420DA6E62C0DFFFEF2BEF05D8
:103830001200E2C065F0E3C066F060C0D9FF61C06D
:10384000DAFFDECF63F0DDCF64F000016351655D28
:10385000676F64516659686F6251D8B432EF1CF0DB
:1038600034EF1CF03CEF1CF060C0D9FF61C0DAFF00
:10387000E2C0DEFFE3C0DDFF67C060F068C061F05A
:1038800012000A005E0100005E010A00C80000008C
:103890005E010A00C800010064000A00C8000100BF
:1038A00064000A00000064000A010A000A010A001C
:1038B0003201320032013200000064000A010A00C5
:1038C0000A010A00320132000000286E756C6C2972
:1038D00000000001666F000E0001686F000E676F48
:1038E0006605D8B476EF1CF079EF1CF0010E7AEF84
:1038F0001CF0000E626F6751D1EC17F00001674BAE
:10390000682B68BF8DEF1CF0685109E1040E675DFC
:10391000D8A08DEF1CF08FEF1CF070EF1CF01200A0
:103920007EEC21F0010E72EC1FF0566E0C0E0001C1
:10393000F86F000E596E900E4F6E2A0E506E0A0EE2
:10394000696F100E6A6F000E6B6F000E6C6F050EC4
:103950006D6F000E6E6F000E6F6F000E706F000EB9
:10396000726F000E716F15EC07F05A6E1200180E90
:103970000001F165BEEF1CF0C0EF1CF0C6EF1CF0BB
:10398000000E616F570E606F44EC21F00001F151A1
:10399000020D000EF324D96E030EF420DA6EF1C08E
:1039A000DFFFF151020D010EF324D96E030EF42056
:1039B000DA6EFF0EDF6EF12BF10512008EA0E3EF41
:1039C0001CF0E6EF1CF0010EE7EF1CF0000E00010A
:1039D000616F02EC21F00009D8B4F1EF1CF0F3EFB5
:1039E0001CF001EF1DF0030EA8EC20F00009D8B484
:1039F000FCEF1CF0FEEF1CF001EF1DF0010E0001CA
:103A0000616F000161511200000E00016F6F000E26
:103A10006E6F17EF1DF06DC060F0616B6BC062F0F0
:103A20006CC063F0FCEC14F000016E4B6F2B6E5118
:103A30006925D96E6F516A21DA6EDF506D6F6D5155
:103A4000D8A425EF1DF027EF1DF00BEF1DF012009D
:103A50000001E7BF34EF1DF0E75108E1E605D8A00B
:103A600034EF1DF036EF1DF045EF1DF0E607D8A04E
:103A7000E707E651E711D8A440EF1DF042EF1DF033
:103A800049EF1DF0090EEBEC12F0D80E4B6E3C0E18
:103A90004C6E1200000E0001EB6F640EEA6F3A0EDE
:103AA0004B6E2D0E4C6E600E696F290E6A6F000E04
:103AB0006B6F000E6C6F060E6D6F000E6E6F000E5A
:103AC0006F6F000E706F000E726F000E716F15EC4D
:103AD00007F0526E1200000173BF79EF1DF07351B1
:103AE00006E17205D8B077EF1DF079EF1DF087EF92
:103AF0001DF072C074F073C075F0741F751F744BA5
:103B0000752B74C072F075C073F08BEF1DF072C02E
:103B100072F073C073F01200000EF7EC10F0010E9B
:103B2000F7EC10F0020EF7EC10F0030EF7EC10F0CB
:103B3000040EF7EC10F0050EF7EC10F0060EF7ECA3
:103B400010F0070EF7EC10F0080EF7EC10F0090E6D
:103B5000F7EC10F01200000E0001626FF8EC20F09C
:103B60000009D8B4B6EF1DF0B8EF1DF0BAEF1DF0A4
:103B700000016281DEEC1CF00009D8B4C2EF1DF038
:103B8000C4EF1DF0C6EF1DF0000162830001625119
:103B900012000F01118160986084609CF80E5A1722
:103BA000FC0E581758995751C00B0709576F000E54
:103BB0005E6F040E5C6FE00E5D17000E666E000E09
:103BC000676E000E736E000E726E608E12009AECBD
:103BD00019F00009D8B4EFEF1DF0F1EF1DF001EF7F
:103BE0001EF0F4C065F0030E00016517D8A4FBEFCA
:103BF0001DF0FDEF1DF001EF1EF0D00E4B6E090E13
:103C00004C6E1200C00E0F015F17000E0001616FB5
:103C1000020E606F93EC15F0608060B012EF1EF042
:103C200014EF1EF00DEF1EF06450030B00016B6FDC
:103C30006350696F6BC06AF012000001EC51ED1126
:103C4000D8B425EF1EF027EF1EF02AEF1EF0EC0788
:103C5000D8A0ED07EC51ED11D8A431EF1EF033EFF1
:103C60001EF037EF1EF0900E4F6E2A0E506E1200AF
:103C70003B0E0001BB6FFF0EBC6FC7C0BDF0C8C0DC
:103C8000BEF0C9C0BFF0CAC0C0F0CDC0C1F0CEC048
:103C9000C2F0CBC0C3F0CCC0C4F086EC1FF070EC17
:103CA00021F01200000E0001F96F340E696F2C0E26
:103CB0006A6F000E6B6F000E6C6F000E6D6F000E62
:103CC0006E6F000E6F6F000E706F000E726F000E41
:103CD000716F15EC07F01200040E4AEC13F0F4C0FB
:103CE000D2F0030E0001D217D8A479EF1EF07BEFBB
:103CF0001EF082EF1EF0000E34EC1FF0D00E4B6E63
:103D0000090E4C6E12000001626F0001EE51625DFF
:103D1000D8A08DEF1EF08FEF1EF095EF1EF0010E74
:103D2000616FFD0E606F44EC21F00001625171EC97
:103D300020F012000001616F00016151D8B4A3EFBF
:103D40001EF0A7EF1EF0606B602BA9EF1EF00001C4
:103D5000606B60336033865060197F0B6019866E2C
:103D600012007FEC20F089EC21F08CEC1DF0C9EC06
:103D70001DF090EC1CF064EC19F027EC0FF04AEC0D
:103D80001DF052EC1EF020EC21F059EF00F0000E77
:103D90000001666F6651A8EC20F00001626F665169
:103DA000D1EC17F00001662B030E6665DAEF1EF00A
:103DB000DCEF1EF0CAEF1EF012000001616F00017F
:103DC0006151D8B4E6EF1EF0EAEF1EF0606B602B95
:103DD000ECEF1EF00001606B604786506019FD0B30
:103DE0006019866E12000001616F00016151D8B444
:103DF000FCEF1EF000EF1FF0606B602B02EF1FF076
:103E00000001606B603B86506019EF0B6019866E95
:103E100012000001616F00016151D8B412EF1FF070
:103E200016EF1FF0606B602B18EF1FF00001606B46
:103E3000604785506019FD0B6019856E1200000106
:103E4000FD695CEC16F00001FD6FFD29D8B42BEF85
:103E50001FF02DEF1FF031EF1FF09CEC1BF033EF44
:103E60001FF0B9EC21F012000001606F900E4F18A6
:103E700009E12A0E5018D8B440EF1FF042EF1FF0AE
:103E800046EF1FF06A0E4F6E410E506E60C0F8F0A4
:103E900012000001616F00016151D8B452EF1FF0B0
:103EA00056EF1FF0606B602B58EF1FF00001606B46
:103EB00086506019FE0B6019866E12000001605179
:103EC0006203F3CF64F0F4CF65F060516303F35005
:103ED000652761516203F350652764C060F065C0D7
:103EE00061F012000001646F00016451D8A47BEFFF
:103EF0001FF07EEF1FF0010E7FEF1FF0000E646FCA
:103F000064C062F0010EF0EC1BF01200BD0E000167
:103F1000C56F000EC66F000EB36F000EB46FBBC04E
:103F2000B5F0BCC0B6F0C50EB76F000EB86FFFECB1
:103F300019F01200BF50F00B0109BF6EE00EBE1663
:103F4000BD508F0B4009BD6EF00EBD169C0EBC6EB1
:103F50000E01BE93C683BD8E120001500302F3CF43
:103F600005F0F4CF06F001500402F350062602508B
:103F70000302F350062605C001F006C002F012004D
:103F80000001F4A1C6EF1FF0C8EF1FF0CAEF1FF049
:103F9000D1EF1FF0090EEBEC12F0CE0E4B6E3B0E84
:103FA0004C6E1200000E0001F36F000EF26FF35121
:103FB000020DC10EF324D96E010EF420DA6EDF502B
:103FC00069EC1CF01200000E0001F36F000EF26F9E
:103FD000F351020DD50EF324D96E010EF420DA6EE2
:103FE000DF5069EC1CF0120062C060F063C061F049
:103FF00029EC21F0000120EE02F06251D926635134
:10400000DA22010EDF6E12000001F4B10AEF20F097
:104010000CEF20F013EF20F0040E4AEC13F0B40E76
:104020004B6E2E0E4C6E12000001F4A11AEF20F020
:104030001CEF20F023EF20F0040EEBEC12F0D80E72
:104040004B6E3C0E4C6E12000001626F000162511B
:10405000170D050EF324D96E020EF420DA6E60C03F
:10406000DEFF61C0DDFF12000001626F00016251DE
:10407000170D050EF324D96E020EF420DA6EDECF92
:1040800060F0DDCF61F0120054EC20F00009D8A4FC
:104090004CEF20F04EEF20F051EF20F0000E53EFE8
:1040A00020F0AEEC21F01200280E4B1807E1400E74
:1040B0004C18D8A45EEF20F061EF20F0010E62EF03
:1040C00020F0000E12000001606F00016051170D1A
:1040D000020EF324D96E020EF420DA6E020EDF6EA9
:1040E00012000001606F00016051170D020EF324F1
:1040F000D96E020EF420DA6E070EDF6E1200000198
:10410000FD695E68000E516EA2EC21F0A6EC21F074
:10411000A9EC13F003EC0CF0120089820F01199343
:104120001593898419951595898619971597898806
:104130001999159912008EEC21F09EEC21F084EC77
:1041400021F09AEC21F096EC21F092EC21F0120093
:104150000001606F00016051040D150EF324D96E4B
:10416000010EF420DA6EDF501200000E4DEC21F04B
:10417000000E0001ED6F210EEC6F3A0E4F6E3C0EFB
:10418000506E1200016E0150170D020EF324D96E0D
:10419000020EF420DA6E050EDF6E1200026E02507F
:1041A000020D010EF324D96E030EF420DA6E01C065
:1041B000DFFF1200000120EE02F06051D9266151AC
:1041C000DA22000EDF6E1200000E0001EB6F320EDD
:1041D000EA6F2C0E4B6E2F0E4C6E12008FA8F3EF71
:1041E00020F0F6EF20F0010EF7EF20F0000E1200A5
:1041F0008EAEFDEF20F000EF21F0010E01EF21F077
:10420000000E120090A407EF21F00AEF21F0010E3A
:104210000BEF21F0000E12008FAA11EF21F014EF26
:1042200021F0010E15EF21F0000E120090A61BEFF9
:1042300021F01EEF21F0010E1FEF21F0000E120001
:10424000010E516EF28CF28E1FEC1FF024EF21F064
:10425000120060C0D9FF61C0DAFFE2C0DEFFE3C038
:10426000DDFF120062EC21F054EC21F069EC21F04A
:104270005BEC21F0120087EC10F06AC060F06BC0BC
:1042800061F0B1EC21F01200F29CF29E60C049F0A6
:1042900061C04AF04AEF21F012000001626F000194
:1042A000625109EC1FF012008B9E0F01269F000E39
:1042B0009AEC1EF012008B900F012691000E49EC33
:1042C0001FF012008B920F012693000EDDEC1EF002
:1042D00012008B980F012699000EF3EC1EF01200CD
:1042E000FF0E00016B6F6A693BEC21F01200156E46
:1042F00015C05CF015503FEC0BF012008B868A92D3
:10430000000E09EC1FF012008A8A0F01219B208BFE
:1043100012009AEC1FF0F28AF28C12000F01199F22
:10432000188F12008B860F01269712008A880F01C2
:10433000219912008B840F01269512000F0119910B
:1043400018811200000E0001EF6F1200000E000134
:10435000F16F12000001E24BE32B120016EC21F08A
:104360001200B1EF21F01200515012005F921100C3
:10437000FF01120012001200FF00FF00FF00FF000B
:10438000FF00FF00FF00FF00FF00FF00FF00FF0035
:10439000FF00FF00FF00FF00FF00FF00FF00FF0025
:1043A000FF00FF00FF00FF00FF00FF00FF00FF0015
:1043B000FF00FF00FF00FF00FF00FF00FF00FF0005
:10FE9000FF00FF00FF00FF00FF00000B000100005B
:10FEA000003200FFFF00000000000006000000C854
:10FEB000000000FFFF00000000000001000000D073
:10FEC000073200FFFF0000000000000000000032C9
:10FED000003200FFFF0000000000000700000032B9
:10FEE00000960032003200FFFF00000800000064AE
:10FEF000000000FFFF00000000000005000000B847
:10FF00000B0000FFFF0000000000000C00000000DC
:10FF100000000000000000000000000C00000000D5
:10FF200000000000000000000000000C00000000C5
:10FF300000000000000000000000004173736572C3
:10FF400074696F6E206661696C65643A2025732060
:10FF50002825733A2025733A202564290A00627304
:10FF6000702F5843382F67656E6572616C5F6F75CF
:10FF7000747075745F6374726C5F6273702E63006B
:10FF800047656E4F75744374726C4273705F53654E
:10FF900074496E6163746976650047656E4F757468
:10FFA0004374726C4273705F536574416374697615
:10FFB000650047656E4F75744374726C4273705F71
:10FFC00044697361626C650047656E4F7574437474
:10FFD000726C4273705F456E61626C650047656E5E
:10FFE0004F75744374726C4273705F546F67676CC3
:10FFF00065007265745F76616C006C6C7300000064
:020000040020DA
:10000000FF0FFF0FFF0FFF0FFF0FFF0FFF0FFF0F80
:020000040030CA
:0C000000FADFFDF79FFFFFCFFFFFFFFFBF
:00000001FF
