:1000000059EF00F0FF00FF005F8200EF22F0FF00D9
:10001000FF00FF00FF00FF005F80D8CF2EF0E8CF89
:100020002FF0E0CF30F0D9CF31F0DACF32F0F3CF8C
:1000300033F0F4CF34F00E01CEA321EF00F023EF24
:1000400000F049EF00F0CE93F4EC21F0010E010135
:100050003C27000E3D233E233F235D50D8B433EFB1
:1000600000F035EF00F049EF00F03CC123F03DC156
:1000700024F03EC125F03FC126F0000EB0EC09F09F
:10008000000E01013C6F000E3D6F000E3E6F000E32
:100090003F6F34C0F4FF33C0F3FF32C0DAFF31C02A
:1000A000D9FF30C0E0FF2FC0E8FF2EC0D8FF5F901F
:1000B00010006BEF17F00001FD5171EC20F060C0F3
:1000C000D8F061C0D9F002EF02F0000EDB6F000E35
:1000D000DA6F140ED26F010ED36FD890DA35D96E65
:1000E000DB35DA6ED890D936DA36D251D926D351EB
:1000F000DA22DA5156EC14F0DF6E0001DA4BDB2B1A
:10010000DBBF8CEF00F0DB5109E1040EDA5DD8A013
:100110008CEF00F08EEF00F069EF00F001011C5150
:10012000D8B495EF00F097EF00F0A3EF00F0205166
:10013000D8B49DEF00F09FEF00F0A3EF00F0000EA9
:100140001C6F000E206F1451D8B4A9EF00F0ABEF74
:1001500000F0B7EF00F01851D8B4B1EF00F0B3EFF2
:1001600000F0B7EF00F0000E146F000E186F000ED5
:100170000001DD6F000EDC6F140ED26F010ED36F25
:10018000010ED227000ED323D890DC35D96EDD3591
:10019000DA6ED890D936DA36D251D926D351DA224E
:1001A000140ED56F010ED66FD890DC35E16EDD35BB
:1001B000E26ED890E136E236D551E126D651E22200
:1001C000DE50E618D8B4E7EF00F0E9EF00F027EFD3
:1001D00001F0140ED26F010ED36F020ED227000E63
:1001E000D323D890DC35D96EDD35DA6ED890D93688
:1001F000DA36D251D926D351DA22000EDF6E140E30
:10020000D26F010ED36FD890DC35D96EDD35DA6E42
:10021000D890D936DA36D251D926D351DA22140EF3
:10022000D46F010ED56F010ED427000ED523D890C0
:10023000DC35E16EDD35E26ED890E136E236D45140
:10024000E126D551E222DFCFE7FFD9EF01F0140E0E
:10025000D26F010ED36F020ED227000ED323D89097
:10026000DC35D96EDD35DA6ED890D936DA36D25132
:10027000D926D351DA22DF2A140ED26F010ED36FA2
:10028000020ED227000ED323D890DC35D96EDD358F
:10029000DA6ED890D936DA36D251D926D351DA224D
:1002A000030EDE18D8A457EF01F059EF01F0A4EFC8
:1002B00001F0140ED26F010ED36FD890DC35D96ED9
:1002C000DD35DA6ED890D936DA36D251D926D35107
:1002D000DA22DF50D8B46FEF01F071EF01F08DEF4B
:1002E00001F0140ED26F010ED36F030ED227000E51
:1002F000D323D890DC35D96EDD35DA6ED890D93677
:10030000DA36D251D926D351DA22DF5046EC13F037
:100310000B0E7FEC1FF0A4EF01F0140ED26F010E54
:10032000D36F030ED227000ED323D890DC35D96EBD
:10033000DD35DA6ED890D936DA36D251D926D35196
:10034000DA22DF50E7EC12F0140E0001D26F010E3A
:10035000D36F020ED227000ED323D890DC35D96E8E
:10036000DD35DA6ED890D936DA36D251D926D35166
:10037000DA22030EDF64BFEF01F0C1EF01F0FFEFFF
:1003800000F0140ED26F010ED36F020ED227000EB2
:10039000D323D890DC35D96EDD35DA6ED890D936D6
:1003A000DA36D251D926D351DA22030EDF6EFFEFAF
:1003B00000F0DC4BDD2BDDBFE7EF01F0DD5109E1A3
:1003C000040EDC5DD8A0E7EF01F0E9EF01F0BCEF2F
:1003D00000F0000E626F140E636F000E646F000E6B
:1003E000656F000E666FFD5165EC16F0000E0001A2
:1003F000616FC70E606FFD5161EC20F00001FD6977
:1004000019EF02F0D8C0D2F0D9C0D3F00001D35117
:10041000000AD8B40EEF02F019EF02F0D251000A30
:10042000D8B465EF00F0C70AD8B465EF00F019EF53
:1004300002F012007DC095F07EC096F07FC097F06C
:1004400080C098F081C099F082C09AF083C09BF080
:1004500084C09CF000019CBF30EF02F033EF02F04B
:10046000010E34EF02F0000E936F946B93519411D0
:10047000D8B43DEF02F03FEF02F04FEF02F09C1FC7
:100480009B1F9A1F991F981F971F961F956D000E0F
:1004900096239723982399239A239B239C2340BE3A
:1004A00054EF02F056EF02F057EF02F0E09340BE37
:1004B00064EF02F0405006E13F04D8B062EF02F072
:1004C00064EF02F06AEF02F0000E906F010E8F6F82
:1004D0006EEF02F03FC08FF040C090F03DC091F051
:1004E0003EC092F093519411D8A479EF02F07BEFC3
:1004F00002F082EF02F0E0A580EF02F082EF02F05E
:1005000085EF02F09107D8A09207000E9E6F1F0E94
:100510009D6F000E01019B6F0BEF03F09D07D8A0AC
:100520009E077C0E9D25D96E010E9E21DA6E95C028
:1005300060F096C061F097C062F098C063F099C017
:1005400064F09AC065F09BC066F09CC067F00A0E2C
:10055000686F000E696F000E6A6F000E6B6F000E01
:100560006C6F000E6D6F000E6E6F000E6F6F69EC9A
:100570000DF060C085F061C086F062C087F063C096
:1005800088F064C089F065C08AF066C08BF067C0EF
:100590008CF085C072F087C073F0E8EC1DF00001AC
:1005A0007251300FDF6E8F07D8A090079107D8A047
:1005B000920795C060F096C061F097C062F098C055
:1005C00063F099C064F09AC065F09BC066F09CC06F
:1005D00067F00A0E686F000E696F000E6A6F000EFA
:1005E0006B6F000E6C6F000E6D6F000E6E6F000E65
:1005F0006F6F76EC0AF060C095F061C096F062C053
:1006000097F063C098F064C099F065C09AF066C036
:100610009BF067C09CF000019EBF17EF03F09E5156
:1006200008E19D05D8A017EF03F019EF03F049EF9B
:1006300003F0955196119711981199119A119B11E8
:100640009C11D8A426EF03F028EF03F08EEF02F000
:1006500090BF35EF03F0905106E18F05D8B033EF2E
:1006600003F035EF03F08EEF02F092BF40EF03F09E
:10067000925108E19105D8A040EF03F042EF03F05A
:1006800049EF03F0E0B347EF03F049EF03F08EEFDB
:1006900002F093519411D8A450EF03F052EF03F0FD
:1006A00059EF03F0E0A557EF03F059EF03F077EFB0
:1006B00003F09D07D8A09E0793519411D8A463EF2F
:1006C00003F065EF03F06BEF03F0000E8E6F2B0E5F
:1006D0008D6F6FEF03F0000E8E6F2D0E8D6F7C0E01
:1006E0009D25D96E010E9E21DA6E8DC0DFFF7BC085
:1006F00070F07CC071F07C0E9D25726F010E9E2102
:10070000736F91C074F092C075F05CEC11F070C022
:100710007BF071C07CF01200A1C0D9FFA2C0DAFF4B
:10072000DECFF6FFDDCFF7FFF86A0800F550250AA7
:10073000D8A49DEF03F09FEF03F0CAEF04F0A1C02F
:10074000D9FFA2C0DAFFDE2A000EDD22000E3E6EC7
:10075000000E3D6E3DC0E0F03EC0E1F03F684068F5
:10076000A1C0D9FFA2C0DAFFDECFF6FFDDCFF7FFD1
:10077000F86A0800F550640AD8B4C1EF03F0C3EF7B
:1007800003F0D6EF03F0A1C0D9FFA2C0DAFFDECF9D
:10079000F6FFDDCFF7FFF86A0800F550690AD8A424
:1007A000D4EF03F0D6EF03F017EF04F0A1C0D9FFA8
:1007B000A2C0DAFFDE2A000EDD22A3C0D9FFA4C04A
:1007C000DAFFDFCFA5F0020EDE26DFCFA6F0000EA7
:1007D000DD22A5C0D9FFA6C0DAFFDECFA7F0DDCFAE
:1007E000A8F00001000EA8BFFF0EA96FAA6FAB6FA3
:1007F000AC6FAD6FAE6F9FC07BF0A0C07CF0A7C0A8
:100800007DF0A8C07EF0A9C07FF0AAC080F0ABC088
:1008100081F0ACC082F0ADC083F0AEC084F01AECC1
:1008200002F07BC09FF07CC0A0F0E7EF04F0A1C015
:10083000D9FFA2C0DAFFDECFF6FFDDCFF7FFF86AFF
:100840000800F550730AD8B428EF04F02AEF04F03A
:1008500047EF04F0A1C0D9FFA2C0DAFFDECF60F0FD
:10086000DDCF61F0FA0E0001626FFF0E636F000EC4
:10087000656F030E646F9BEC0FF000016051611116
:10088000D8A445EF04F047EF04F092EF04F0A1C0C4
:10089000D9FFA2C0DAFFDECFF6FFDDCFF7FFF86A9F
:1008A0000800F550730AD8B458EF04F05AEF04F07A
:1008B00061EF04F0000E0001B26F030EB16F66EF3E
:1008C00004F0000E0001B26F010EB16FA1C0D9FF9C
:1008D000A2C0DAFFB151DE26B251DD22A3C0D9FF9A
:1008E000A4C0DAFFDFCFA5F0020EDE26DFCFA6F030
:1008F000000EDD22A5C0D9FFA6C0DAFFDECFAFF023
:10090000DDCFB0F09FC069F0A0C06AF0AFC06BF05F
:10091000B0C06CF0DDEC08F069C09FF06AC0A0F0D8
:10092000E7EF04F0A1C0D9FFA2C0DAFFDECFF6FFE7
:10093000DDCFF7FFF86A0800F550250AD8A4A3EF29
:1009400004F0A5EF04F0BDEF04F0A1C0D9FFA2C0F0
:10095000DAFFDE2A000EDD22000E616F250E606FC9
:100960009FC062F0A0C063F0F8EC14F0000E00012C
:10097000A06F010E9F6FE7EF04F0A1C0D9FFA2C0E6
:10098000DAFFDE2A000EDD22000EA06F000E9F6F40
:10099000E7EF04F0A1C0D9FFA2C0DAFFDECFF6FF77
:1009A000DDCFF7FFF86A0800F5500001606F616B5A
:1009B0009FC062F0A0C063F0F8EC14F0A1C0D9FFB2
:1009C000A2C0DAFFDE2A000EDD22B6EF04F012002C
:1009D0000001FD5171EC20F060C06BF061C06CF063
:1009E000DFEF05F0030E3A6EE80E396E28EC1EF0CC
:1009F00000016D6FF551D8A400EF05F002EF05F08E
:100A00000DEF05F0FA0E606F000E616F24EC21F01F
:100A1000010E0001F56FC5EF05F0F505D8A413EF41
:100A200005F015EF05F02CEF05F06D51D8B41BEF74
:100A300005F01DEF05F0C5EF05F06DC055F0FA0E9D
:100A4000626F000E636F41EC20F0020E0001F56F43
:100A5000C5EF05F0C5EF05F0020EF519D8A433EF88
:100A600005F035EF05F073EF05F055506D19D8A47A
:100A70003CEF05F03EEF05F06FEF05F0FA0E606F0A
:100A8000000E616F000E626F96EC1CF03750000193
:100A9000605D38506159D8A050EF05F052EF05F075
:100AA000C5EF05F0FA0E606F000E616F73EC21F078
:100AB00000016DA15EEF05F060EF05F064EF05F059
:100AC000030EF56FC5EF05F06DA369EF05F06BEF51
:100AD00005F02AEF05F0040EF56FC5EF05F0060EE0
:100AE000F56FC5EF05F0030EF519D8A47AEF05F000
:100AF0007CEF05F07EEF05F06FEF05F0040EF519C1
:100B0000D8A485EF05F087EF05F090EF05F06DB301
:100B10008CEF05F08EEF05F0C5EF05F06FEF05F0F7
:100B2000060EF519D8A497EF05F099EF05F02AEF16
:100B300005F06D51D8B49FEF05F0A1EF05F0A9EFD6
:100B400005F0FA0E606F000E616F73EC21F0C5EFD7
:100B500005F0FA0E606F000E616F000E626F96EC8A
:100B60001CF035500001605D36506159D8A0BBEFD4
:100B700005F0BDEF05F02AEF05F0000EF56FFA0E57
:100B8000606F000E616F24EC21F0000E0001626FB7
:100B9000320E636F000E646F000E656F000E666F9D
:100BA000FD5165EC16F0010E0001616F320E606FB1
:100BB000FD5161EC20F00001FD69FDEF05F06BC017
:100BC00069F06CC06AF000016A51000AD8B4EFEF16
:100BD00005F0010AD8B4F6EF05F0FDEF05F0695114
:100BE000000AD8B4F2EF04F0FDEF05F06951320AC3
:100BF000D8B4F2EF04F0FDEF05F01200000E000192
:100C0000D36F000ED26F000ED56F000ED46FEAECDA
:100C100019F00009D8A40FEF06F011EF06F061EF0C
:100C200006F0000EF2EC20F00009D8B41AEF06F03E
:100C30001CEF06F023EF06F0FF0E0001D56F9C0EAF
:100C4000D46F33EF06F0010EF2EC20F00009D8B4B7
:100C50002CEF06F02EEF06F033EF06F0000E000149
:100C6000D56F640ED46F020EF2EC20F00009D8B4F8
:100C70003CEF06F03EEF06F045EF06F0000E0001F7
:100C8000D36F640ED26F61EF06F0030EF2EC20F02A
:100C90000009D8B44EEF06F050EF06F061EF06F011
:100CA0004CEC21F00009D8A458EF06F05AEF06F0FA
:100CB00061EF06F0FF0E0001D36F9C0ED26F61EF63
:100CC00006F00001F4A167EF06F069EF06F09CEF73
:100CD00006F0000ED36F000ED26F000ED56F000E1F
:100CE000D46F040EE7EC12F0070E7FEC1FF047EC18
:100CF00019F06DC073F06EC074F0000E0001766FD5
:100D00000A0E756F9AEC18F073C0E8F074C0E9F041
:100D10000001E851E911D8A490EF06F092EF06F037
:100D200098EF06F0CA0E4B6E410E4C6E9CEF06F02B
:100D3000620E4B6E350E4C6EF4A3A1EF06F0A3EFDE
:100D400006F0BAEF06F0000ED36F000ED26F000E61
:100D5000D56F000ED46F080E7FEC1FF0000E00015F
:100D6000E76F0A0EE66F090E46EC13F0B00E4B6EFD
:100D70002B0E4C6E0001D3BFC6EF06F0D35108E135
:100D8000D205D8A0C6EF06F0C8EF06F0D0EF06F007
:100D9000050E46EC13F0060EE7EC12F0E5EF06F058
:100DA000D3BFD7EF06F0D5EF06F0DFEF06F0050E64
:100DB000E7EC12F0060E46EC13F0E5EF06F0050E38
:100DC000E7EC12F0060EE7EC12F00001D5BFF1EFF0
:100DD00006F0D55108E1D405D8A0F1EF06F0F3EF05
:100DE00006F0FBEF06F0070EE7EC12F0080E46ECFB
:100DF00013F010EF07F0D5BF02EF07F000EF07F098
:100E00000AEF07F0070E46EC13F0080EE7EC12F0BD
:100E100010EF07F0070EE7EC12F0080EE7EC12F007
:100E20001200FEEC21F00009D8B419EF07F01BEF17
:100E300007F022EF07F0000E0001616F940E606F63
:100E40008EEC21F0090E0001EE6529EF07F02BEF83
:100E500007F031EF07F0000E616F950E606F8EECBA
:100E600021F0000169516A11D8A439EF07F03BEF76
:100E700007F041EF07F0000E616F960E606F8EEC89
:100E800021F0EEC074F05DEF07F074077451170D98
:100E90000C0EF324D96E020EF420DA6E6D51DE18BA
:100EA000D8A455EF07F057EF07F05DEF07F0000EFD
:100EB000616F9E0E606F8EEC21F000017451D8A41A
:100EC00064EF07F066EF07F045EF07F0EE51170DFE
:100ED000000EF324756F020EF420766F20EE0BF0F7
:100EE0007551D9267651DA22EEC0DFFF20EE0CF0E4
:100EF0007551D9267651DA226DC0DFFF20EE02F05F
:100F00007551D9267651DA22050EDF6E20EE04F0F7
:100F10007551D9267651DA22050EDF6E20EE0DF0DE
:100F20007551D9267651DA22000EDF6E20EE05F0DB
:100F30007551D9267651DA22000EDE6E000EDD6E76
:100F400075C0D9FF76C0DAFF69C0DEFF6AC0DDFF79
:100F500020EE12F07551D9267651DA22000EDF6E9E
:100F600020EE07F07551D9267651DA22DE6ADE6A64
:100F7000DE6ADD6A7051D8B4C0EF07F0C2EF07F047
:100F8000E2EF07F06EC062F06FC063F070C064F013
:100F900071C065F072C066F020EE0BF07551D92675
:100FA0007651DA22DF50676F86EC12F00001736F22
:100FB00020EE0EF07551D9267651DA2273C0DFFF8C
:100FC000EAEF07F020EE0EF07551D9267651DA22BD
:100FD000FF0EDF6E20EE15F07551D9267651DA221C
:100FE0006BC0DEFF6CC0DDFFEE5169EC1BF0000151
:100FF000EE2B20EE0BF07551D9267651DA22DF5018
:1010000012000001FD5171EC20F060C07EF061C063
:101010007FF0BEEF08F0000E0001626F0F0E636FED
:10102000000E646F000E656F000E666FFD5165EC7B
:1010300016F0010E0001616F360E606FFD5161EC1C
:1010400020F00001FD69DCEF08F00C0EF819D8B4AF
:101050002CEF08F02EEF08F0B0EF08F0F8C080F0A9
:101060000C0EF86F4D4A4E2A000E816F8151100D03
:101070009B0EF324F66EFE0EF420F76EF86A000E57
:10108000F82209000C0EF5180900F510D8A44BEF52
:1010900008F04DEF08F04FEF08F0B0EF08F0815185
:1010A000100D9B0EF324F66EFE0EF420F76EF86A18
:1010B000000EF82280517C6F7D6B0900F5507C1981
:1010C00008E10900F5507D19D8A469EF08F06BEF2D
:1010D00008F0A7EF08F08151100D020EF326000E64
:1010E000F4229B0EF324F66EFE0EF420F76EF86ADF
:1010F000000EF8220900F5040900F510D8A483EFCA
:1011000008F085EF08F091EF08F081EC20F000097D
:10111000D8A48DEF08F08FEF08F091EF08F0B0EF52
:1011200008F0010E596E81C0F7F0880E4F1809E1E2
:101130002A0E5018D8B49FEF08F0A1EF08F0B0EFD6
:1011400008F0FE0E4F6E410E506EB0EF08F0812B8E
:10115000090E8165AEEF08F0B0EF08F036EF08F049
:1011600002D8BCEF08F00500FA6E4F50FD6E5050EB
:10117000FE6EFF6AFA5012000BEF08F07EC07CF0A2
:101180007FC07DF000017D51000AD8B4CEEF08F099
:10119000010AD8B4D5EF08F0DCEF08F07C51000A62
:1011A000D8B40BEF08F0DCEF08F07C51360AD8B465
:1011B00025EF08F0DCEF08F0120021EEE4F010EE6D
:1011C0006EF0060EDBCFE3FFE806FCE26BC079F0C1
:1011D0006CC07AF0000179517A11D8A4F2EF08F0CE
:1011E000F4EF08F0F8EF08F06E0E796F000E7A6FEA
:1011F00079C060F07AC061F043EC1CF060C07DF013
:1012000061C07EF03FC07BF040C07CF000017CBF3D
:101210000CEF09F00EEF09F023EF09F07D517B5D33
:101220007C51800A6D6F7E51800A6D59D8A01BEFEA
:1012300009F01DEF09F01FEF09F023EF09F07BC063
:101240007DF07CC07EF07DC07BF07EC07CF03DC038
:1012500077F03EC078F0E0B130EF09F032EF09F0FE
:1012600050EF09F041EF09F0000E616F200E606F42
:1012700069C062F06AC063F0F8EC14F000017D4BC5
:101280007E2B77517D5D7E51800A6D6F7851800A8B
:101290006D59D8A04EEF09F050EF09F034EF09F086
:1012A000000E766F000E756F77EF09F079C0F6FFCC
:1012B0007AC0F7FF000EF86E0E0EF76403D0080038
:1012C000F55005D0F6CFE9FFF7CFEAFFEF50000168
:1012D0006D6F6D51606F616B69C062F06AC063F0E1
:1012E000F8EC14F00001794B7A2B754B762B7B517F
:1012F000755D7651800A6D6F7C51800A6D59D8A05A
:1013000084EF09F086EF09F056EF09F0E0A18BEFCA
:1013100009F08DEF09F0ABEF09F09CEF09F0000E3A
:10132000616F200E606F69C062F06AC063F0F8EC14
:1013300014F000017D4B7E2B77517D5D7E51800A3C
:101340006D6F7851800A6D59D8A0A9EF09F0ABEF05
:1013500009F08FEF09F07DC069F07EC06AF01200DD
:101360002B6E000E2D6E6BEF0AF02D50170D020E36
:10137000F324D96E020EF420DA6EDF502C6E020ECA
:101380002C18D8B4C6EF09F0C8EF09F0D1EF09F076
:10139000040E2C18D8A4CFEF09F0D1EF09F032EFEA
:1013A0000AF02D50170D130EF324D96E020EF420FF
:1013B000DA6E2B50DE18D8A4E0EF09F0E2EF09F066
:1013C00047EF0AF02D50170D070EF324D96E020EC9
:1013D000F420DA6EDE50235CDE502458DE502558AF
:1013E000DE502658D8A0F7EF09F0F9EF09F020EF0A
:1013F0000AF02D50170D070EF324D96E020EF420BB
:10140000DA6EDE6ADE6ADE6ADD6A040E2C18D8A4A3
:101410000CEF0AF00EEF0AF01BEF0AF02D50EEEC85
:101420001BF02D50170D030EF324D96E020EF4207D
:10143000DA6E020EDF6E2D500CEC21F047EF0AF051
:101440002D50170D070EF324D96E020EF420DA6E1C
:101450002350DE5E2450DE5A2550DE5A2650DE5AD6
:1014600047EF0AF02C04D8A438EF0AF03AEF0AF05C
:1014700047EF0AF02D50170D070EF324D96E020E18
:10148000F420DA6EDE2A000EDE22DE22DE222B506F
:10149000D8A44DEF0AF04FEF0AF06AEF0AF02D5092
:1014A000170D0E0EF324D96E020EF420DA6EDE282C
:1014B000D8B45DEF0AF05FEF0AF06AEF0AF02D5042
:1014C000170D0E0EF324D96E020EF420DA6EDF50E3
:1014D000B5EC0CF02D2A0001EE512D18D8A473EFB5
:1014E0000AF075EF0AF0B5EF09F01200000E0001E6
:1014F000716F6FBF80EF0AF07EEF0AF092EF0AF093
:101500006F1F6E1F6D1F6C1F6B1F6A1F691F686D39
:10151000000E69236A236B236C236D236E236F23D4
:10152000010E716F67BF99EF0AF097EF0AF0ABEF0A
:101530000AF0671F661F651F641F631F621F611F1C
:10154000606D000E61236223632364236523662399
:101550006723010E711B20EE72F0070EDE6AE806AB
:10156000FDE2685169116A116B116C116D116E11F8
:101570006F11D8B4BEEF0AF0C0EF0AF012EF0BF013
:10158000010E706FCEEF0AF0D890683769376A376E
:101590006B376C376D376E376F37702B6FAFD3EF9C
:1015A0000AF0D5EF0AF0C4EF0AF0D890723773371B
:1015B0007437753776377737783779376851605DA4
:1015C000695161596A5162596B5163596C5164593F
:1015D0006D5165596E5166596F516759D8A0F3EF37
:1015E0000AF0F5EF0AF006EF0BF06851605F695101
:1015F000615B6A51625B6B51635B6C51645B6D5103
:10160000655B6E51665B6F51675B7281D8906F331B
:101610006E336D336C336B336A3369336833702FD9
:10162000D5EF0AF07151D8B418EF0BF01AEF0BF0A8
:101630002AEF0BF0791F781F771F761F751F741F15
:10164000731F726D000E7323742375237623772323
:101650007823792372C060F073C061F074C062F0C7
:1016600075C063F076C064F077C065F078C066F04E
:1016700079C067F01200106E10C001F0026A000E0F
:10168000046E080E036E24EC12F00150116E10501F
:10169000070B126E000E146EF4EF0BF01450170DC2
:1016A000020EF324D96E020EF420DA6EDF50136EB0
:1016B000000E0F6E030E1318D8B461EF0BF063EF3A
:1016C0000BF06CEF0BF0040E1318D8A46AEF0BF0BC
:1016D0006CEF0BF06EEF0BF0010E0F6E1450170D48
:1016E000000E096E020E0A6E140E0926000E0A2262
:1016F000F3500926F4500A2211500924D96E000E25
:101700000A20DA6EDF500B6E12C00CF0010E0D6E67
:101710000C2A8DEF0BF0D8900D360C2E8BEF0BF0C2
:101720000D500B140E6E0E50D8B499EF0BF09BEFCA
:101730000BF0F3EF0BF00F50D8B4A1EF0BF0A3EFC9
:101740000BF0F3EF0BF012C009F0010E0A6E092A3C
:10175000ACEF0BF0D8900A36092EAAEF0BF00A5026
:10176000FF0A0B6E1450170D000E0C6E020E0D6E5C
:10177000140E0C26000E0D22F3500C26F4500D22F0
:1017800011500C24D96E000E0D20DA6E0B50DF16AE
:101790001450170D120EF324D96E020EF420DA6ED7
:1017A000DF50D8A4D6EF0BF0D8EF0BF0E3EF0BF03F
:1017B0001450E1EC1AF00009D8B4E1EF0BF0E3EFBC
:1017C0000BF0F3EF0BF01450170D030EF324D96E4A
:1017D000020EF420DA6E010EDF6E1450EEEC1BF0F8
:1017E00014500CEC21F0142A0001EE511418D8A466
:1017F000FCEF0BF0FEEF0BF04EEF0BF01200000EC3
:101800000001EE6F000E626F6251170D000EF3249F
:10181000646F020EF420656F20EE13F06451D92638
:101820006551DA22FF0EDF6E20EE05F06451D926F5
:101830006551DA22FF0EDE6E000EDD6E20EE0EF038
:101840006451D9266551DA22000EDF6E20EE0FF0CA
:101850006451D9266551DA22000EDF6E20EE10F0B9
:101860006451D9266551DA22000EDF6E20EE11F0A8
:101870006451D9266551DA22000EDF6E20EE0CF09D
:101880006451D9266551DA22000EDF6E20EE04F095
:101890006451D9266551DA22000EDF6E20EE0DF07C
:1018A0006451D9266551DA22FF0EDF6E20EE02F078
:1018B0006451D9266551DA22000EDF6E20EE03F066
:1018C0006451D9266551DA22000EDF6E64C0D9FF5B
:1018D00065C0DAFF000EDE6E000EDD6E20EE0BF04E
:1018E0006451D9266551DA22FF0EDF6E20EE07F033
:1018F0006451D9266551DA22DE6ADE6ADE6ADD6A63
:1019000020EE12F06451D9266551DA22000EDF6E06
:10191000000E636F63516425606F000E6521616F77
:10192000140E6025D96E000E6121DA6EFF0EDF6E97
:10193000632B6351D8B49FEF0CF0A1EF0CF08AEF4A
:101940000CF020EE15F06451D9266551DA22000E14
:10195000DE6E000EDD6E622B090E6265B2EF0CF0DA
:10196000B4EF0CF004EF0CF012001F6E1F500C0DC2
:10197000400EF324216E010EF420226E20EE05F0BD
:101980002150D9262250DA22DF50166E010E16247D
:10199000016E026A000E022220EE06F02150D926C6
:1019A0002250DA22DF50176E1750036E046AFEECE5
:1019B00013F00150206E20EE04F02150D926225061
:1019C000DA22DF501C6E20EE02F02150D926225080
:1019D000DA22DECF1AF0DDCF1BF05FEF0DF020C072
:1019E00001F0026A1AC003F01BC004F00CEC20F0F6
:1019F00021C0D9FF22C0DAFFDF50166E176A0150EE
:101A000016241D6E025017201E6E20EE04F01D508D
:101A1000D9261E50DA22DE50DE10DE10DE10D8B4D9
:101A200014EF0DF016EF0DF04AEF0DF020EE04F07C
:101A30001D50D9261E50DA22DE06000EDE5ADE5A6E
:101A4000DE5A20EE04F01D50D9261E50DA22DE5058
:101A5000DE10DE10DE10D8A430EF0DF032EF0DF006
:101A60004AEF0DF01F500C0D4B0EF324D96E010EF2
:101A7000F420DA6EDF50C1EC21F0FE0E016E1F5033
:101A80000C0D4B0EF324D96E010EF420DA6EDF50EC
:101A900018EC21F0010E2024016E026A000E0222D1
:101AA00020EE06F02150D9262250DA22DF50166EA1
:101AB0001650036E046AFEEC13F00150206E1C50A9
:101AC0002018D8A466EF0DF068EF0DF0EFEF0CF0E2
:101AD0001200000E0001716F67BF73EF0DF071EF20
:101AE0000DF085EF0DF0671F661F651F641F631FF4
:101AF000621F611F606D000E6123622363236423F4
:101B0000652366236723010E716F6FBF8CEF0DF0A5
:101B10008AEF0DF09CEF0DF06F1F6E1F6D1F6C1F95
:101B20006B1F6A1F691F686D000E69236A236B2390
:101B30006C236D236E236F23685169116A116B1139
:101B40006C116D116E116F11D8B4A9EF0DF0ABEFE0
:101B50000DF0F3EF0DF0010E706FB9EF0DF0D890AE
:101B6000683769376A376B376C376D376E376F3761
:101B7000702B6FAFBEEF0DF0C0EF0DF0AFEF0DF0BB
:101B80006851605D695161596A5162596B5163597D
:101B90006C5164596D5165596E5166596F51675951
:101BA000D8A0D5EF0DF0D7EF0DF0E7EF0DF06851AD
:101BB000605F6951615B6A51625B6B51635B6C5141
:101BC000645B6D51655B6E51665B6F51675BD8906E
:101BD0006F336E336D336C336B336A336933683311
:101BE000702FC0EF0DF07151D8B4F9EF0DF0FBEF8D
:101BF0000DF00BEF0EF0671F661F651F641F631F5C
:101C0000621F611F606D000E6123622363236423E2
:101C100065236623672360C060F061C061F062C025
:101C200062F063C063F064C064F065C065F066C0D4
:101C300066F067C067F012000001E7BF28EF0EF002
:101C4000E75108E1E605D8A028EF0EF02AEF0EF0E4
:101C500071EF0EF0E607D8A0E707E651E711D8A428
:101C600034EF0EF036EF0EF0A6EF0EF0000EE7ECBC
:101C700012F0030EE7EC12F0020EE7EC12F0010E88
:101C8000E7EC12F00001E44BE52B9C0ED26F010E45
:101C9000D36F020ED227000ED323D890E435D96E2D
:101CA000E535DA6ED890D936DA36D251D926D35105
:101CB000DA22DECF60F0DDCF61F0000E636F0A0E36
:101CC000626FC1EC11F060C0E6F061C0E7F00001A6
:101CD000E651E711D8A46FEF0EF071EF0EF077EF39
:101CE0000EF0540E4B6E2F0E4C6EA6EF0EF09C0EA7
:101CF000D26F010ED36FD890E435D96EE535DA6E28
:101D0000D890D936DA36D251D926D351DA220A0EF2
:101D1000DE18DE10D8B48FEF0EF091EF0EF0A6EFC4
:101D20000EF09C0ED26F010ED36FD890E435D96EB1
:101D3000E535DA6ED890D936DA36D251D926D35174
:101D4000DA22DF5046EC13F0A6EF0EF0120000018D
:101D5000EC51ED11D8B4AFEF0EF0B1EF0EF0B4EFDF
:101D60000EF0EC07D8A0ED07EC51ED11D8A4BBEFB5
:101D70000EF0BDEF0EF022EF0FF0F62BF751100D25
:101D80009B0E7A6FFE0E7B6FF3507A27F4507B2305
:101D9000F651040DF3507A27F4507B237AC0F6FFF6
:101DA0007BC0F7FFF86A0900F52807E10900F5286C
:101DB000D8A4DDEF0EF0DFEF0EF0E5EF0EF0880EA9
:101DC0004F6E2A0E506E22EF0FF0010E97EC21F0AD
:101DD0000001F751100D9B0E7A6FFE0E7B6FF350D2
:101DE0007A27F4507B23F651040DF3507A27F450F0
:101DF0007B237AC0F6FF7BC0F7FFF86A0900F5CFB6
:101E000073F00A00F5CF74F0000E766F0F0E756F49
:101E10009AEC18F073C0ECF074C0EDF00001EC51D6
:101E2000ED11D8A416EF0FF018EF0FF01EEF0FF022
:101E30003A0E4F6E340E506E22EF0FF0220E4F6EA0
:101E4000200E506E1200000E00017A6F000E796FA6
:101E5000140E776F010E786FD8907935D96E7A3578
:101E6000DA6ED890D936DA367751D9267851DA2217
:101E7000000EDF6E140E776F010E786F010E77275C
:101E8000000E7823D8907935D96E7A35DA6ED890ED
:101E9000D936DA367751D9267851DA22000EDF6E3C
:101EA000140E776F010E786F020E7727000E7823DD
:101EB000D8907935D96E7A35DA6ED890D936DA3647
:101EC0007751D9267851DA22000EDF6E794B7A2BC2
:101ED0007ABF74EF0FF07A5109E1040E795DD8A052
:101EE00074EF0FF076EF0FF028EF0FF0010E010105
:101EF000176F020E1B6F000E1F6F030E236FCAECCD
:101F000020F07CEC21F0B60E0001696F000E6A6FC4
:101F1000000E6B6F000E6C6F020E6D6F000E6E6F19
:101F2000000E6F6F000E706F000E726F000E716FFB
:101F300011EC07F0120060C067F061C068F062C089
:101F400069F063C06AF000016407D8A065076429DE
:101F500006E16529D8A4AFEF0FF0B1EF0FF0BEEFA7
:101F60000FF0000E616F000E606F10EF10F0674B06
:101F7000682B694B6A2B6407D8A0650767C0F6FF1A
:101F800068C0F7FFF86A0800F5500009D8B4CBEF35
:101F90000FF0CDEF0FF0FCEF0FF069C0F6FF6AC055
:101FA000F7FFF86A0800F5500009D8B4DAEF0FF02F
:101FB000DCEF0FF0FCEF0FF064516511D8B4E3EFE4
:101FC0000FF0E5EF0FF0FCEF0FF067C0F6FF68C011
:101FD000F7FFF86A0800F5CF66F069C0F6FF6AC03F
:101FE000F7FFF86A0800F5506619D8B4FAEF0FF059
:101FF000FCEF0FF0B7EF0FF067C0F6FF68C0F7FF18
:10200000F86A0800F5CF66F069C0F6FF6AC0F7FF0E
:10201000F86A0800F550665D606F616BD8A06107D3
:1020200012000001EC51ED11D8B419EF10F01BEFC4
:1020300010F01EEF10F0EC07D8A0ED07EC51ED11F9
:10204000D8A425EF10F027EF10F082EF10F0000E6B
:1020500097EC21F00001F751100D9B0E7A6FFE0EE8
:102060007B6FF3507A27F4507B23F651040DF35025
:102070007A27F4507B23020E7A27000E7B237AC046
:10208000F6FF7BC0F7FFF86A0900F5500900F5106C
:10209000D8A44DEF10F04FEF10F055EF10F03A0EBE
:1020A0004F6E340E506E82EF10F0F751100D9B0EF4
:1020B0007A6FFE0E7B6FF3507A27F4507B23F65134
:1020C000040DF3507A27F4507B23020E7A27000E7A
:1020D0007B237AC0F6FF7BC0F7FFF86A0900F5CFD3
:1020E00073F00A00F5CF74F0000E766F0F0E756F67
:1020F0009AEC18F073C0ECF074C0EDF04E0E4F6E19
:102100001D0E506E1200E9EF10F041C062F042C0A7
:1021100063F0D8906237633743C064F044C065F021
:102120006251642763516523020E6425D96E000E47
:102130006521DA6EDECF66F0DDCF67F041C062F078
:1021400042C063F0D8906237633743C064F044C044
:1021500065F06251642763516523420E6425D96E90
:10216000000E6521DA6EDECF68F0DDCF69F068C061
:1021700060F069C061F002D8C7EF10F00500FA6E98
:102180006651FD6E6751FE6EFF6AFA5012004150B3
:102190000001626F4250636F010E415E000E425AB1
:1021A00063BFDDEF10F0635106E16205D8B0DBEFED
:1021B00010F0DDEF10F085EF10F043C0D9FF44C000
:1021C000DAFFDECF43F0DDCF44F0000E426E200E8A
:1021D000416E43504410D8A4F0EF10F0F2EF10F02D
:1021E000C7EF10F012000001D16F21EF11F08C90B9
:1021F00087805BEF11F08C9287825BEF11F08A9001
:1022000085805BEF11F08C9487845BEF11F08892EE
:1022100083825BEF11F0889883985BEF11F08B9AC3
:10222000869A5BEF11F08B9C869C5BEF11F0889493
:1022300083945BEF11F0889683965BEF11F05BEF70
:1022400011F00001D151CF6FD06BD051000AD8B43A
:102250002CEF11F01FEF11F0CF51000AD8B4FBEFB3
:1022600010F0010AD8B4FFEF10F0030AD8B403EF5E
:1022700011F0010AD8B407EF11F0070AD8B4F7EF4C
:1022800010F0010AD8B40BEF11F0030AD8B40FEF25
:1022900011F0010AD8B413EF11F00F0AD8B417EFF8
:1022A00011F0010AD8B41BEF11F0030AD8B41FEFE4
:1022B00011F01FEF11F012000001E0A162EF11F028
:1022C00064EF11F06EEF11F072C069F073C06AF044
:1022D00070C06BF071C06CF081EC1DF0000175BF37
:1022E00074EF11F076EF11F07CEF11F074C079F01B
:1022F00075C07AF080EF11F0000E7A6F000E796FE2
:10230000000E786F000E776F93EF11F0000E616F83
:10231000200E606F70C062F071C063F0F8EC14F0D2
:102320000001774B782B7951775D7851800A766F71
:102330007A51800A7659D8A0A0EF11F0A2EF11F0DF
:1023400086EF11F0E0B1A7EF11F0A9EF11F0B3EFB4
:1023500011F072C069F073C06AF070C06BF071C0A8
:102360006CF081EC1DF072C060F073C061F043EC62
:102370001CF0000179516025706F7A516121716FF5
:102380001200000E0001656F63BFCBEF11F0C9EFC3
:1023900011F0D1EF11F0626D631FD8B0632B010E05
:1023A000656F61BFD8EF11F0D6EF11F0DEEF11F0DD
:1023B000606D611FD8B0612B010E651B000E676F49
:1023C000000E666F62516311D8B4E9EF11F0EBEFC4
:1023D00011F013EF12F0010E646FF3EF11F0D890CB
:1023E00062376337642B63AFF8EF11F0FAEF11F047
:1023F000EFEF11F0D890663767376251605D635137
:102400006159D8A006EF12F008EF12F00DEF12F0AC
:102410006251605F6351615B6681D8906333623360
:10242000642FFAEF11F06551D8B419EF12F01BEFD9
:1024300012F01FEF12F0666D671FD8B0672B66C0F1
:1024400060F067C061F01200000E066E04BE2DEF52
:1024500012F02BEF12F033EF12F0036C041ED8B021
:10246000042A010E066E02BE3AEF12F038EF12F0A7
:1024700040EF12F0016C021ED8B0022A010E061ABB
:10248000000E086E000E076E03500410D8B44BEF18
:1024900012F04DEF12F075EF12F0010E056E55EFD0
:1024A00012F0D89003360436052A04AE5AEF12F023
:1024B0005CEF12F051EF12F0D89007360836035057
:1024C000015C04500258D8A068EF12F06AEF12F0D5
:1024D0006FEF12F00350015E0450025A0780D8904B
:1024E00004320332052E5CEF12F00650D8B47BEFB5
:1024F00012F07DEF12F081EF12F0076C081ED8B0D9
:10250000082A07C001F008C002F01200040E000102
:10251000F0658DEF12F08FEF12F095EF12F0000ED4
:10252000616F5C0E606F8EEC21F00001F0510C0DBC
:10253000400EF324D96E010EF420DA6E62C0DEFF85
:1025400063C0DDFFF0510C0D440EF324D96E010E73
:10255000F420DA6E010EDF6EF0510C0D450EF324FF
:10256000D96E010EF420DA6E000EDF6EF0510C0D04
:10257000460EF324D96E010EF420DA6E64C0DFFF3C
:10258000F0510C0D420EF324D96E010EF420DA6ED8
:1025900065C0DEFF66C0DDFFF0510C0D4A0EF3246E
:1025A000D96E010EF420DA6E67C0DFFF34EC1DF047
:1025B0000001686FF0510C0D4B0EF324D96E010E23
:1025C000F420DA6E68C0DFFFF02BF0051200000186
:1025D000D16F0BEF13F0878045EF13F0878245EF43
:1025E00013F0858045EF13F0878445EF13F0838265
:1025F00045EF13F0839845EF13F0869A45EF13F0FB
:10260000869C45EF13F0839445EF13F0839645EFD6
:1026100013F045EF13F00001D151CF6FD06BD051C3
:10262000000AD8B416EF13F009EF13F0CF51000AE7
:10263000D8B4EEEF12F0010AD8B4F1EF12F0030AA9
:10264000D8B4F4EF12F0010AD8B4F7EF12F0070A89
:10265000D8B4EBEF12F0010AD8B4FAEF12F0030A83
:10266000D8B4FDEF12F0010AD8B400EF13F00F0A4E
:10267000D8B403EF13F0010AD8B406EF13F0030A3D
:10268000D8B409EF13F009EF13F012000001D16F75
:102690006AEF13F08790A4EF13F08792A4EF13F082
:1026A0008590A4EF13F08794A4EF13F08392A4EF26
:1026B00013F08388A4EF13F0868AA4EF13F0868CBE
:1026C000A4EF13F08384A4EF13F08386A4EF13F038
:1026D000A4EF13F00001D151CF6FD06BD051000A9D
:1026E000D8B475EF13F068EF13F0CF51000AD8B4E7
:1026F0004DEF13F0010AD8B450EF13F0030AD8B429
:1027000053EF13F0010AD8B456EF13F0070AD8B408
:102710004AEF13F0010AD8B459EF13F0030AD8B402
:102720005CEF13F0010AD8B45FEF13F00F0AD8B4CE
:1027300062EF13F0010AD8B465EF13F0030AD8B4BE
:1027400068EF13F068EF13F01200000E0001F06F55
:10275000000E606F60510C0D400EF324D96E010E17
:10276000F420DA6E000EDE6E000EDD6E60510C0D90
:10277000440EF324D96E010EF420DA6E000EDF6EE3
:1027800060510C0D450EF324D96E010EF420DA6E63
:10279000000EDF6E60510C0D460EF324D96E010E53
:1027A000F420DA6E000EDF6E60510C0D420EF32441
:1027B000D96E010EF420DA6E000EDE6E000EDD6EB4
:1027C00060510C0D4A0EF324D96E010EF420DA6E1E
:1027D000000EDF6E60510C0D4B0EF324D96E010E0E
:1027E000F420DA6E000EDF6E602B040E6065FBEFE6
:1027F00013F0FDEF13F0AAEF13F01200000E066EB7
:1028000002BE07EF14F005EF14F00DEF14F0016CA9
:10281000021ED8B0022A010E066E04BE14EF14F098
:1028200012EF14F018EF14F0036C041ED8B0042A51
:1028300003500410D8B41FEF14F021EF14F045EF4B
:1028400014F0010E056E29EF14F0D890033604360B
:10285000052A04AE2EEF14F030EF14F025EF14F03B
:102860000350015C04500258D8A039EF14F03BEF3C
:1028700014F03FEF14F00350015E0450025AD89058
:1028800004320332052E30EF14F00650D8B44BEF6B
:1028900014F04DEF14F051EF14F0016C021ED8B09B
:1028A000022A01C001F002C002F012000001626FB2
:1028B00089EF14F08EA25FEF14F062EF14F0010EB6
:1028C00063EF14F0000EABEF14F08EA86AEF14F073
:1028D0006DEF14F0010E6EEF14F0000EABEF14F07C
:1028E0008EA675EF14F078EF14F0010E79EF14F066
:1028F000000EABEF14F08EA480EF14F083EF14F011
:10290000010E84EF14F0000EABEF14F0000EABEFED
:1029100014F000016251606F616B6151000AD8B41C
:1029200094EF14F086EF14F06051000AD8B45AEF17
:1029300014F0010AD8B470EF14F0030AD8B465EFAC
:1029400014F0010AD8B47BEF14F0070AD8B486EF6C
:1029500014F086EF14F012000001FD5171EC20F02C
:1029600060C0D8F061C0D9F0E0EF14F028EC1EF0A0
:102970000001F46F02D8C6EF14F00500FA6E4B5058
:10298000FD6E4C50FE6EFF6AFA501200000E000100
:10299000626F0A0E636F000E646F000E656F000EAB
:1029A000666FFD5165EC16F0000E0001616FF70EC9
:1029B000606FFD5161EC20F00001FD69F7EF14F04C
:1029C000D8C0D6F0D9C0D7F00001D751000AD8B48A
:1029D000ECEF14F0F7EF14F0D651000AD8B4B6EFCC
:1029E00014F0F70AD8B4B6EF14F0F7EF14F01200B1
:1029F000000162516311D8B400EF15F002EF15F039
:102A00000BEF15F062516311D8A409EF15F00BEF2D
:102A100015F010EF15F0605104EC22F043EF15F0C3
:102A200020EE09F06251D9266351DA22DE50DE1021
:102A3000D8B41DEF15F01FEF15F03AEF15F020EEAA
:102A400009F06251D9266351DA2210EE03F0625187
:102A5000E1266351E222DE50E65CE650800A686FB0
:102A6000DE50800A6859D8B038EF15F03AEF15F00B
:102A700043EF15F020EE03F06251D9266351DA22BC
:102A8000DE2A000EDD2212005950D8B44AEF15F0AC
:102A90004CEF15F08EEF15F0000E596E010E00018F
:102AA000F66F010E97EC21F00001F751100D9B0E0F
:102AB0007A6FFE0E7B6FF3507A27F4507B23F6512A
:102AC000040DF3507A27F4507B237AC0F6FF7BC0C5
:102AD000F7FFF86A0900F5CF73F00A00F5CF74F03C
:102AE000000E766F0F0E756F9AEC18F073C0ECF055
:102AF00074C0EDF00001EC51ED11D8A482EF15F097
:102B000084EF15F08AEF15F03A0E4F6E340E506ECA
:102B10008EEF15F0220E4F6E200E506E1200000147
:102B2000E7BF9BEF15F0E75108E1E605D8A09BEF62
:102B300015F09DEF15F0D3EF15F0E607D8A0E707E5
:102B4000E651E711D8A4A7EF15F0A9EF15F0D7EFDC
:102B500015F0090EE7EC12F047EC19F06DC073F0B8
:102B60006EC074F0000E0001766F0A0E756F9AEC5D
:102B700018F073C0E8F074C0E9F00001E95107E112
:102B8000640EE85DD8B0C7EF15F0C9EF15F0CDEFD2
:102B900015F0000EE96F640EE86F2C0E4B6E370EC9
:102BA0004C6ED7EF15F0520E4B6E3F0E4C6E12006E
:102BB0000001E7BFE4EF15F0E75108E1E605D8A012
:102BC000E4EF15F0E6EF15F01CEF16F0E607D8A0DD
:102BD000E707E651E711D8A4F0EF15F0F2EF15F092
:102BE00020EF16F0090EE7EC12F047EC19F06DC07B
:102BF00073F06EC074F0000E0001766F0A0E756FF0
:102C00009AEC18F073C0E8F074C0E9F00001E951E3
:102C100007E1640EE85DD8B010EF16F012EF16F081
:102C200016EF16F0000EE96F640EE86F840E4B6E1F
:102C3000370E4C6E20EF16F0520E4B6E3F0E4C6E60
:102C40001200000160516111D8A429EF16F02BEF9A
:102C500016F02DEF16F064EF16F06105D8B033EFE3
:102C600016F035EF16F045EF16F0000E686F3AEFEC
:102C700016F0682B6051685DD8A041EF16F043EF65
:102C800016F039EF16F064EF16F0000E676F000EC5
:102C9000666F4DEF16F0664B672BE00E626FFF0E0E
:102CA000636F60C064F061C065F062516427635176
:102CB00065236451665D65516759D8A062EF16F0CF
:102CC00064EF16F04BEF16F012000001676F000181
:102CD000EE51675DD8A06FEF16F071EF16F077EF49
:102CE00016F0020E616F300E606F8EEC21F0000165
:102CF0006351641165116611D8A481EF16F083EF5A
:102D000016F089EF16F0020E616F310E606F8EECD7
:102D100021F000016751170D130EF324D96E020E36
:102D2000F420DA6E62C0DFFF6751170D070EF3243F
:102D3000D96E020EF420DA6E63C0DEFF64C0DEFFDF
:102D400065C0DEFF66C0DEFF6751A0EC20F0120018
:102D50000001FD5171EC20F060C06AF061C06BF0C1
:102D6000CBEF16F0000E626F140E636F000E646FEF
:102D7000000E656F000E666FFD5165EC16F0010EDA
:102D80000001616F160E606FFD5161EC20F00001D3
:102D9000FD69E9EF16F06AC068F06BC069F00001E8
:102DA0006951000AD8B4DBEF16F0010AD8B4E2EF9B
:102DB00016F0E9EF16F06851000AD8B4B2EF16F039
:102DC000E9EF16F06851160AD8B4B2EF16F0E9EF41
:102DD00016F01200000161696269000E666F20EF53
:102DE00017F06651170D000EF324636F020EF420E6
:102DF000646F20EE0CF06351D9266451DA22DF5063
:102E0000656F20EE02F06351D9266451DA22DF505B
:102E1000606F050E6019D8A410EF17F012EF17F0CD
:102E20001FEF17F06251655DD8B019EF17F01BEF77
:102E300017F01FEF17F065C062F066C061F0662BF7
:102E4000EE516619D8A427EF17F029EF17F0F1EF2C
:102E500016F061511200000E0001E56F000EE46FE4
:102E60009C0ED26F010ED36F020ED227000ED32319
:102E7000D890E435D96EE535DA6ED890D936DA36A1
:102E8000D251D926D351DA22DECF60F0DDCF61F006
:102E9000000E636F0A0E626FC1EC11F060C0E6F0C5
:102EA00061C0E7F09C0E0001D26F010ED36FD89085
:102EB000E435D96EE535DA6ED890D936DA36D251A6
:102EC000D926D351DA22DF5046EC13F0380E4B6E80
:102ED0001C0E4C6E12007C0EF66E390EF76E000E54
:102EE000F86E01EE9CF010EE4FF00900F5CFEEFF0A
:102EF000E550E150FAE1040EF66E440EF76E000E56
:102F0000F86E0900F5CF5CF00900F5CF5DF003EE37
:102F100000F0B40EEE6AE806FDE102EE00F0E60E07
:102F2000EE6AE806FDE101EE00F09C0EEE6AE806AE
:102F3000FDE100EEE0F01D0EEE6AE806FDE100EEB8
:102F400035F0270EEE6AE806FDE15F905F92000122
:102F5000FCEF1EF00001EBBFB7EF17F0EB5109E1FA
:102F6000330EEA5DD8A0B7EF17F0B9EF17F0BDEF59
:102F700017F0000EEB6F320EEA6FEA07D8A0EB07EE
:102F8000EBBFCDEF17F0EB5106E1EA05D8B0CBEF80
:102F900017F0CDEF17F0E7EF17F038EC21F000094C
:102FA000D8B4D5EF17F0D7EF17F0E0EF17F0040E15
:102FB00046EC13F05C0E4B6E420E4C6EE7EF17F0D2
:102FC000040EE7EC12F06C0E4B6E330E4C6E1200DA
:102FD0000001F4A1EEEF17F0F0EF17F00FEF18F08B
:102FE000070E7FEC1FF047EC19F06DC073F06EC058
:102FF00074F0000E0001766F0A0E756F9AEC18F0EF
:1030000073C0E8F074C0E9F030EC20F0AA0E4B6E0B
:10301000310E4C6E040EE7EC12F023EF18F056EC74
:1030200021F00009D8B417EF18F019EF18F01EEFCF
:1030300018F0040EE7EC12F021EF18F0040E46EC45
:1030400013F012EC1FF01200EAEC19F00009D8B4EA
:103050002CEF18F02EEF18F059EF18F012EC1FF0CB
:103060000001EBBF3DEF18F0EB5109E1330EEA5DD3
:10307000D8A03DEF18F03FEF18F043EF18F0000E26
:10308000EB6F320EEA6FEA07D8A0EB07EBBF53EF06
:1030900018F0EB5106E1EA05D8B051EF18F053EF04
:1030A00018F05EEF18F0520E4B6E3F0E4C6E5EEF56
:1030B00018F0000E0001EB6F320EEA6F12000001F3
:1030C000656F77EF18F0625128EC1FF099EF18F058
:1030D0006251E5EC1EF099EF18F062513EEC1FF0E2
:1030E00099EF18F0625194EC1FF099EF18F000017D
:1030F0006551636F646B6451000AD8B482EF18F0B5
:1031000099EF18F06351000AD8B463EF18F0010A80
:10311000D8B468EF18F0030AD8B46DEF18F0010ABC
:10312000D8B472EF18F0070AD8B499EF18F099EFF5
:1031300018F01200000E0001786F000E776F7551C5
:103140007611D8B4A6EF18F0A8EF18F0D0EF18F069
:10315000010E796FB0EF18F0D89075377637792B6C
:1031600076AFB5EF18F0B7EF18F0ACEF18F0D890D5
:10317000773778377551735D76517459D8A0C3EF9E
:1031800018F0C5EF18F0CAEF18F07551735F76515B
:10319000745B7781D89076337533792FB7EF18F059
:1031A00077C073F078C074F012000A0E0001F227A5
:1031B000F351020DD40EF324D96E010EF420DA6E11
:1031C000DE50F25DD8A0E7EF18F0E9EF18F00DEF50
:1031D00019F0000EF26FF32BF351020DD40EF3240D
:1031E000D96E010EF420DA6EDF50D8B4FAEF18F081
:1031F000FCEF18F009EF19F0F351020DD50EF3248E
:10320000D96E010EF420DA6EDF50E6EC1CF00DEF03
:1032100019F0620E4B6E350E4C6E12000A0E000154
:10322000F227F351020DC00EF324D96E010EF420E3
:10323000DA6EDE50F25DD8A020EF19F022EF19F01F
:1032400046EF19F0000EF26FF32BF351020DC00E92
:10325000F324D96E010EF420DA6EDF50D8B433EFC8
:1032600019F035EF19F042EF19F0F351020DC10ECC
:10327000F324D96E010EF420DA6EDF50E6EC1CF078
:1032800046EF19F0A20E4B6E400E4C6E120064EC2D
:103290001EF069C06FF06AC070F06FC060F070C05F
:1032A00061F0000E0001636F060E626FBDEC1FF04F
:1032B00060C071F061C072F0580E0001715D020EC5
:1032C0007259D8B066EF19F068EF19F06CEF19F089
:1032D000000E726F000E716F710E715D170E7259D4
:1032E000D8A075EF19F077EF19F07BEF19F0170EF2
:1032F000726F700E716F71C06DF072C06EF012005F
:10330000D8EC20F0000E0001F56F28EC1EF000094B
:10331000D8B48DEF19F08FEF19F092EF19F0060E77
:103320000001F56F010ED1EC1FF0546E000E386EE7
:10333000320E376E030E3A6EE80E396ED00E000173
:10334000696F090E6A6F000E6B6F000E6C6F030ED3
:103350006D6F000E6E6F000E6F6F000E706F000EBF
:10336000726F000E716F11EC07F012000001F4A1F2
:10337000BCEF19F0BEEF19F0E9EF19F0040E46ECBE
:1033800013F0000E7FEC1FF047EC19F06DC073F0E6
:103390006EC074F0000E0001766F0A0E756F9AEC25
:1033A00018F073C0E8F074C0E9F00001E851E911C9
:1033B000D8A4DDEF19F0DFEF19F0E5EF19F0520EA8
:1033C0004B6E3F0E4C6EE9EF19F0780E4B6E360ED9
:1033D0004C6E1200010E0001626F000E646F000E51
:1033E000636F140E606F010E616FD8906335D96EF4
:1033F0006435DA6ED890D936DA366051D926615103
:10340000DA22DF50D8B407EF1AF009EF1AF00BEF09
:103410001AF0000E626F634B642B64BF19EF1AF051
:10342000645109E1040E635DD8A019EF1AF01BEF97
:103430001AF0F1EF19F062511200000E97EC21F032
:103440000001F751100D9B0E7A6FFE0E7B6FF3504B
:103450007A27F4507B23F651040DF3507A27F45069
:103460007B23020E7A27000E7B237AC0F6FF7BC0F7
:10347000F7FFF86A0900F5CF73F00A00F5CF74F092
:10348000000E766F0F0E756F9AEC18F073C0ECF0AB
:1034900074C0EDF0FE0E4F6E3C0E506E1200B5C0C3
:1034A000B9F0B6C0BAF0000E3C6E000E3B6E6DEF88
:1034B0001AF0B3C09FF0B4C0A0F0B90E0001A16F24
:1034C000000EA26FB7C0A3F0B8C0A4F08CEC03F05C
:1034D00000019F513B26A0513C22B9C0F6FFBAC063
:1034E000F7FFF86A0800F5500009D8A47AEF1AF03F
:1034F0007CEF1AF059EF1AF03BC0B3F03CC0B4F0C7
:1035000012000001E7BF8DEF1AF0E75108E1E60570
:10351000D8A08DEF1AF08FEF1AF0ACEF1AF0E60793
:10352000D8A0E707E651E711D8A499EF1AF09BEF6E
:103530001AF0B0EF1AF0080E7FEC1FF0090E46ECFF
:1035400013F0000E0001E76F0A0EE66F1E0E4B6EC1
:103550002B0E4C6EB0EF1AF0520E4B6E3F0E4C6EAF
:1035600012000001F4A1B7EF1AF0B9EF1AF0D9EF89
:103570001AF0E851E911D8B4C0EF1AF0C2EF1AF00E
:10358000C5EF1AF0E807D8A0E907E851E911D8A477
:10359000CCEF1AF0CEEF1AF0E0EF1AF0010E7FEC4C
:1035A0001FF01FEC20F01C0E4B6E320E4C6EE0EF45
:1035B0001AF0040EE7EC12F06C0E4B6E330E4C6EEC
:1035C0001200036E010E046E010E056E0506035017
:1035D000170D000E016E020E026E140E0126000E73
:1035E0000222F3500126F450022205500124D96E24
:1035F000000E0220DA6EDF50D8B401EF1BF003EFAB
:103600001BF005EF1BF0000E046E0550D8A40BEF65
:103610001BF00DEF1BF0E6EF1AF004501200000152
:10362000E7BF1BEF1BF0E75108E1E605D8A01BEF51
:103630001BF01DEF1BF037EF1BF0E607D8A0E707E4
:10364000E651E711D8A427EF1BF029EF1BF03BEF61
:103650001BF0090EE7EC12F0000E0001E76F140EEC
:10366000E66F020E4B6E350E4C6E3BEF1BF0520EAA
:103670004B6E3F0E4C6E12000001F4A142EF1BF0A6
:1036800044EF1BF064EF1BF0E851E911D8B44BEFA5
:103690001BF04DEF1BF050EF1BF0E807D8A0E90737
:1036A000E851E911D8A457EF1BF059EF1BF068EF70
:1036B0001BF0010E7FEC1FF01FEC20F01C0E4B6E78
:1036C000320E4C6E68EF1BF0520E4B6E3F0E4C6E7E
:1036D00012000001626F00016251170D000EF32409
:1036E000636F020EF420646F20EE12F06351D9264E
:1036F0006451DA22000EDF6E010E656F65076551B9
:103700006325606F000E6421616F140E6025D96E11
:10371000000E6121DA6E000EDF6E6551D8A493EFC2
:103720001BF095EF1BF07EEF1BF012000001F4A3DD
:103730009CEF1BF09EEF1BF0BDEF1BF0E851E91171
:10374000D8B4A5EF1BF0A7EF1BF0ACEF1BF0E80718
:10375000D8A0E907C1EF1BF0050E7FEC1FF0010EAA
:103760000001E76F2C0EE66F090E46EC13F04A0ECF
:103770004B6E3B0E4C6EC1EF1BF0520E4B6E3F0E6C
:103780004C6E12000001F4A3C8EF1BF0CAEF1BF04F
:10379000E9EF1BF0E851E911D8B4D1EF1BF0D3EFFA
:1037A0001BF0D8EF1BF0E807D8A0E907EDEF1BF0FE
:1037B000080E7FEC1FF0000E0001E76F0A0EE66FA7
:1037C000090E46EC13F01E0E4B6E360E4C6EEDEFEE
:1037D0001BF0520E4B6E3F0E4C6E1200036E0350E8
:1037E000170D000EF324046E020EF420056E20EE79
:1037F00012F00450D9260550DA22000EDF6E010EB9
:10380000066E060606500424016E000E0520026EA8
:10381000140E0124D96E000E0220DA6E000EDF6E47
:103820000650D8A416EF1CF018EF1CF001EF1CF0A6
:1038300012000001EE51FD5DD8A021EF1CF023EF36
:103840001CF029EF1CF0020E616FAE0E606F8EEC63
:1038500021F00001FD51170D000EF324D96E020E68
:10386000F420DA6EDECFDEF0DDCFDFF002D842EFFB
:103870001CF00500FA6EDE51FD6EDF51FE6EFF6A30
:10388000FA501200120060C062F061C063F04CEFA9
:103890001CF00001604B612B60C0F6FF61C0F7FFB8
:1038A000000EF86E0E0EF76403D00800F55005D038
:1038B000F6CFE9FFF7CFEAFFEF500009D8A463EF96
:1038C0001CF065EF1CF049EF1CF000016251605DD7
:1038D000606F63516159616F12000001636F090EDF
:1038E0000001EF6576EF1CF078EF1CF07EEF1CF026
:1038F000000E616F400E606F8EEC21F00001EF5101
:10390000020D000EF324D96E010EF420DA6E63C0AE
:10391000DFFFEF51020D010EF324D96E010EF420EA
:10392000DA6E62C0DFFFEF2BEF051200E2C065F038
:10393000E3C066F060C0D9FF61C0DAFFDECF63F09C
:10394000DDCF64F000016351655D676F64516659B6
:10395000686F6251D8B4AFEF1CF0B1EF1CF0B9EF53
:103960001CF060C0D9FF61C0DAFFE2C0DEFFE3C037
:10397000DDFF67C060F068C061F012000A005E0100
:1039800000005E010A00C80000005E010A00C800D5
:10399000010064000A00C800010064000A00000081
:1039A00064000A010A000A010A00320132003201F1
:1039B0003200000064000A010A000A010A00320114
:1039C00032000000286E756C6C2900000001666FE3
:1039D000000E0001686F000E676F6605D8B4F3EF44
:1039E0001CF0F6EF1CF0010EF7EF1CF0000E626FFA
:1039F00067515FEC18F00001674B682B68BF0AEF56
:103A00001DF0685109E1040E675DD8A00AEF1DF0B2
:103A10000CEF1DF0EDEF1CF01200C8EC21F0010ED0
:103A2000D1EC1FF0566E0C0E0001F86F000E596EAF
:103A3000880E4F6E2A0E506E020E696F100E6A6F5E
:103A4000000E6B6F000E6C6F050E6D6F000E6E6FCB
:103A5000000E6F6F000E706F000E726F000E716FB0
:103A600011EC07F05A6E1200180E0001F1653BEFE1
:103A70001DF03DEF1DF043EF1DF0000E616F570E7E
:103A8000606F8EEC21F00001F151020D000EF32465
:103A9000D96E030EF420DA6EF1C0DFFFF151020D92
:103AA000010EF324D96E030EF420DA6EFF0EDF6EE2
:103AB000F12BF10512008EA060EF1DF063EF1DF0F9
:103AC000010E64EF1DF0000E0001616F4CEC21F05F
:103AD0000009D8B46EEF1DF070EF1DF07EEF1DF001
:103AE000030EF2EC20F00009D8B479EF1DF07BEF63
:103AF0001DF07EEF1DF0010E0001616F00016151AC
:103B00001200000E00016F6F000E6E6F94EF1DF03B
:103B10006DC060F0616B6BC062F06CC063F0F8EC7C
:103B200014F000016E4B6F2B6E516925D96E6F51E9
:103B30006A21DA6EDF506D6F6D51D8A4A2EF1DF0CF
:103B4000A4EF1DF088EF1DF012000001E7BFB1EFF8
:103B50001DF0E75108E1E605D8A0B1EF1DF0B3EF85
:103B60001DF0C2EF1DF0E607D8A0E707E651E71108
:103B7000D8A4BDEF1DF0BFEF1DF0C6EF1DF0090E7C
:103B8000E7EC12F0520E4B6E3F0E4C6E1200000E20
:103B90000001EB6F640EEA6F560E4B6E2E0E4C6EEC
:103BA000580E696F290E6A6F000E6B6F000E6C6FF6
:103BB000060E6D6F000E6E6F000E6F6F000E706F51
:103BC000000E726F000E716F11EC07F0526E120052
:103BD000000173BFF6EF1DF0735106E17205D8B016
:103BE000F4EF1DF0F6EF1DF004EF1EF072C074F05C
:103BF00073C075F0741F751F744B752B74C072F011
:103C000075C073F008EF1EF072C072F073C073F0ED
:103C10001200000EF3EC10F0010EF3EC10F0020EA7
:103C2000F3EC10F0030EF3EC10F0040EF3EC10F0D4
:103C3000050EF3EC10F0060EF3EC10F0070EF3ECAB
:103C400010F0080EF3EC10F0090EF3EC10F0120077
:103C5000000E0001626F42EC21F00009D8B433EF8E
:103C60001EF035EF1EF037EF1EF0000162815BECB5
:103C70001DF00009D8B43FEF1EF041EF1EF043EFF6
:103C80001EF0000162830001625112000F011181D8
:103C900060986084609CF80E5A17FC0E581758996B
:103CA0005751C00B0709576F000E5E6F040E5C6F13
:103CB000E00E5D17000E666E000E676E000E736EEE
:103CC000000E726E608E1200C00E0F015F17000EA4
:103CD0000001616F020E606F21EC16F0608060B031
:103CE00074EF1EF076EF1EF06FEF1EF06450030BC2
:103CF00000016B6F6350696F6BC06AF012000001C6
:103D0000EC51ED11D8B487EF1EF089EF1EF08CEF67
:103D10001EF0EC07D8A0ED07EC51ED11D8A493EFFD
:103D20001EF095EF1EF099EF1EF0880E4F6E2A0ED2
:103D3000506E12003B0E0001BB6FFF0EBC6FC7C080
:103D4000BDF0C8C0BEF0C9C0BFF0CAC0C0F0CDC091
:103D5000C1F0CEC0C2F0CBC0C3F0CCC0C4F0E5EC23
:103D60001FF0BAEC21F01200000E0001F96F500EA6
:103D7000696F2D0E6A6F000E6B6F000E6C6F000E78
:103D80006D6F000E6E6F000E6F6F000E706F000E85
:103D9000726F000E716F11EC07F012000001626F7C
:103DA0000001EE51625DD8A0D8EF1EF0DAEF1EF0F0
:103DB000E0EF1EF0010E616FFD0E606F8EEC21F0E2
:103DC00000016251AEEC20F012000001616F0001B1
:103DD0006151D8B4EEEF1EF0F2EF1EF0606B602B75
:103DE000F4EF1EF00001606B6033603386506019A1
:103DF0007F0B6019866E1200BCEC20F0D3EC21F032
:103E000009EC1EF046EC1EF00DEC1DF080EC19F0F4
:103E100023EC0FF0C7EC1DF0B4EC1EF06AEC21F0BF
:103E200059EF00F0000E0001666F6651F2EC20F0D1
:103E30000001626F66515FEC18F00001662B030E03
:103E4000666525EF1FF027EF1FF015EF1FF012003A
:103E50000001616F00016151D8B431EF1FF035EFFF
:103E60001FF0606B602B37EF1FF00001606B604745
:103E700086506019FD0B6019866E12000001616F9B
:103E800000016151D8B447EF1FF04BEF1FF0606B9A
:103E9000602B4DEF1FF00001606B603B8650601996
:103EA000EF0B6019866E12000001616F0001615115
:103EB000D8B45DEF1FF061EF1FF0606B602B63EF14
:103EC0001FF00001606B604785506019FD0B6019A1
:103ED000856E12000001FD69EAEC16F00001FD6F2D
:103EE000FD29D8B476EF1FF078EF1FF07CEF1FF0BC
:103EF00019EC1CF07EEF1FF003EC22F01200000121
:103F0000606F880E4F1809E12A0E5018D8B48BEF55
:103F10001FF08DEF1FF091EF1FF0FE0E4F6E410E60
:103F2000506E60C0F8F012000001616F0001615135
:103F3000D8B49DEF1FF0A1EF1FF0606B602BA3EFD3
:103F40001FF00001606B86506019FE0B6019866ED1
:103F50001200040E46EC13F0F4C0D2F0030E000180
:103F6000D217D8A4B6EF1FF0B8EF1FF0BCEF1FF0C8
:103F7000FC0E4B6E0B0E4C6E120000016051620382
:103F8000F3CF64F0F4CF65F060516303F35065271D
:103F900061516203F350652764C060F065C061F051
:103FA00012000001646F00016451D8A4DAEF1FF021
:103FB000DDEF1FF0010EDEEF1FF0000E646F64C036
:103FC00062F0010E6DEC1CF01200BD0E0001C56F19
:103FD000000EC66F000EB36F000EB46FBBC0B5F01D
:103FE000BCC0B6F0C50EB76F000EB86F4FEC1AF03C
:103FF0001200BF50F00B0109BF6EE00EBE16BD509F
:104000008F0B4009BD6EF00EBD169C0EBC6E0E01EE
:10401000BE93C683BD8E120001500302F3CF05F09C
:10402000F4CF06F001500402F350062602500302BA
:10403000F350062605C001F006C002F01200000E83
:104040000001F36F000EF26FF351020DC10EF32465
:10405000D96E010EF420DA6EDF50E6EC1CF012008F
:10406000000E0001F36F000EF26FF351020DD50E3A
:10407000F324D96E010EF420DA6EDF50E6EC1CF06A
:10408000120062C060F063C061F073EC21F00001C7
:1040900020EE02F06251D9266351DA22010EDF6E62
:1040A00012000001F4B157EF20F059EF20F060EF5B
:1040B00020F0040E46EC13F0D00E4B6E2F0E4C6E1B
:1040C00012000001626F00016251170D050EF3240A
:1040D000D96E020EF420DA6E60C0DEFF61C0DDFF33
:1040E00012000001626F00016251170D050EF324EA
:1040F000D96E020EF420DA6EDECF60F0DDCF61F013
:10410000120091EC20F00009D8A489EF20F08BEF89
:1041100020F08EEF20F0000E90EF20F0F8EC21F070
:1041200012006C0E4B1807E1330E4C18D8A49BEF0D
:1041300020F09EEF20F0010E9FEF20F0000E120005
:104140000001606F00016051170D020EF324D96E5B
:10415000020EF420DA6E020EDF6E12000001606FB4
:1041600000016051170D020EF324D96E020EF420E7
:10417000DA6E070EDF6E12000001FD695E68000E48
:10418000516EECEC21F0F0EC21F0A5EC13F0FFEC1B
:104190000BF0120089820F011993159389841995E8
:1041A0001595898619971597898819991599120077
:1041B000D8EC21F0E8EC21F0CEEC21F0E4EC21F099
:1041C000E0EC21F0DCEC21F012000001F4B1EBEFA7
:1041D00020F0EDEF20F0F1EF20F06C0E4B6E330E7F
:1041E0004C6E12000001606F00016051040D150E4D
:1041F000F324D96E010EF420DA6EDF501200000EA7
:1042000097EC21F0000E0001ED6F210EEC6FFE0E19
:104210004F6E3C0E506E1200016E0150170D020ED3
:10422000F324D96E020EF420DA6E050EDF6E120052
:10423000026E0250020D010EF324D96E030EF4201B
:10424000DA6E01C0DFFF1200000120EE02F06051C3
:10425000D9266151DA22000EDF6E1200000E000135
:10426000EB6F320EEA6F480E4B6E300E4C6E120042
:104270008FA83DEF21F040EF21F0010E41EF21F03A
:10428000000E12008EAE47EF21F04AEF21F0010E32
:104290004BEF21F0000E120090A451EF21F054EFEB
:1042A00021F0010E55EF21F0000E12008FAA5BEFF6
:1042B00021F05EEF21F0010E5FEF21F0000E120001
:1042C00090A665EF21F068EF21F0010E69EF21F073
:1042D000000E1200010E516EF28CF28E6AEC1FF08D
:1042E0006EEF21F0120060C0D9FF61C0DAFFE2C0BA
:1042F000DEFFE3C0DDFF1200ACEC21F09EEC21F00C
:10430000B3EC21F0A5EC21F0120083EC10F06AC0B0
:1043100060F06BC061F0FBEC21F01200F29CF29EA9
:1043200060C049F061C04AF094EF21F01200000132
:10433000626F0001625154EC1FF012008B9E0F015E
:10434000269F000EE5EC1EF012008B900F012691C7
:10435000000E94EC1FF012008B920F012693000EBA
:1043600028EC1FF012008B980F012699000E3EECEE
:104370001FF01200FF0E00016B6F6A6985EC21F0DF
:104380001200156E15C05CF015503BEC0BF01200DE
:104390008B868A92000E54EC1FF012008A8A0F015D
:1043A000219B208B1200F9EC1FF0F28AF28C120094
:1043B0000F01199F188F12008B860F01269712008C
:1043C0008A880F01219912008B840F012695120013
:1043D0000F01199118811200000E0001EF6F1200F9
:1043E000000E0001F16F12000001E24BE32B1200FE
:1043F00060EC21F01200FBEF21F01200515012008E
:104400005F921100FF01120012001200FF00FF0076
:10441000FF00FF00FF00FF00FF00FF00FF00FF00A4
:10442000FF00FF00FF00FF00FF00FF00FF00FF0094
:10443000FF00FF00FF00FF00FF00FF00FF00FF0084
:10444000FF00FF00FF00FF00FF00FF00FF00FF0074
:10FE9000FF00FF00FF00FF00FF00000B000100005B
:10FEA000003200FFFF00000000000006000000C854
:10FEB000000000FFFF00000000000001000000D073
:10FEC000073200FFFF0000000000000000000032C9
:10FED000003200FFFF0000000000000700000032B9
:10FEE00000960032003200FFFF00000800000064AE
:10FEF000000000FFFF00000000000005000000B847
:10FF00000B0000FFFF0000000000000C00000000DC
:10FF100000000000000000000000000C00000000D5
:10FF200000000000000000000000000C00000000C5
:10FF300000000000000000000000004173736572C3
:10FF400074696F6E206661696C65643A2025732060
:10FF50002825733A2025733A202564290A00627304
:10FF6000702F5843382F67656E6572616C5F6F75CF
:10FF7000747075745F6374726C5F6273702E63006B
:10FF800047656E4F75744374726C4273705F53654E
:10FF900074496E6163746976650047656E4F757468
:10FFA0004374726C4273705F536574416374697615
:10FFB000650047656E4F75744374726C4273705F71
:10FFC00044697361626C650047656E4F7574437474
:10FFD000726C4273705F456E61626C650047656E5E
:10FFE0004F75744374726C4273705F546F67676CC3
:10FFF00065007265745F76616C006C6C7300000064
:020000040020DA
:10000000FF0FFF0FFF0FFF0FFF0FFF0FFF0FFF0F80
:020000040030CA
:0C000000FADFFDF79FFFFFCFFFFFFFFFBF
:00000001FF
